S011000057697A494F5F4170702E73726563C1
S214008000004000206581000089B900008DB900009D
S214008010000000000000000000000000000000005B
S2140080200000000000000000000000009DB90000F5
S2140080300000000000000000A1B90000A5B9000083
S214008040ADB90000B1B90000B5B90000B9B900007B
S214008050BDB900000000000000000000C1B900002B
S214008060C5B90000C9B90000CDB90000D1B90000FB
S214008070D5B90000DDB90000E5B90000E9B9000097
S214008080EDB90000F9B9000005BA000009BA000011
S2140080900DBA000011BA000015BA000019BA0000A7
S2140080A01DBA000021BA000070B582B0224B234AE8
S2140080B0002101E0196004339342FBD3204B214A90
S2140080C0214903E010681860043304328B42F9D368
S2140080D003F0ACFC01A8694603F0DAFC1B4B1C4D10
S2140080E0ED1AAD1000241E1C03E0A3009B59984710
S2140080F00134A542F9DC174B174DED1AAD100024DC
S2140081001E1C03E0A3009B5998470134A542F9DCE6
S2140081100198009903F0A4FA061C104B104CE41AC0
S214008120A4101D1C03E0013CA3005B599847002CDB
S214008130F9DC301C03F076FCF00000206C17002001
S214008140000000208C2E0100F00000207C81000042
S2140081507C8100007C8100007C8100007C81000026
S2140081607C810000A0E7C046FEE7C046FEE7C046AA
S210008170FEE7C046FEE7C046FEE7C0463D
S21400817C70B584B0051C02F0C1FA041C031C6433F1
S21400818C1B7A052B3CD89B001E4AD3589F461E4B89
S21400819C1B78002B06D101221B4B1A701B48291C7E
S2140081AC04F068FC194E356080231B010093184AB6
S2140081BC019202931748311CFA229200164B04F0D7
S2140081CC41F964342379617909021943301C012280
S2140081DC04F05EFC14E064342379627912021A43CC
S2140081EC281C0121012305F0ABFD09E0643423793A
S2140081FC627912021A43281C0221012305F0A0FD05
S21400820C04B070BD60240100F0000020B40600200D
S21400821C440F0020C40600204407002070B582B02E
S21400822C061C02F06BFA051C041C643401A8211C05
S21400823C042208F080FE237A052B2CD89B00174AC4
S21400824CD3589F46164B1B78002B24D16435AB793C
S21400825CEA7912021A43134801A904F023FC0122FE
S21400826C0F4B1A7017E00E4B1B78002B13D164358E
S21400827CAB79EA7912021A43301C01A905F028FEE4
S21400828C0122074B1A7006E0301C05F0E7FD02E0F1
S21400829C301C05F01BFD02B070BDC04678240100F2
S2140082AC08010020B406002010B5041C02F026FAC3
S2140082BC031C64331B7A022B0CD002D8002B05D07F
S2140082CC0BE0032B02D0052B04D006E0201C05F097
S2140082DCFDFC02E0201C05F0F9FC10BD10B5041CDA
S2140082EC02F00CFA031C64331B7A052B13D89B0084
S2140082FC094AD3589F46094804F036FB084804F050
S21400830C83FB201C05F0E2FC05E0201C05F072FE49
S21400831C201C05F0DBFC10BD90240100C4060020D8
S21400832CB4060020F0B55F4656464D464446F0B4BB
S21400833CA9B0041C02F0E2F9061C246808A8002167
S21400834C802208F001FE6846A6491E2208F0F3FDBE
S21400835CA068A54908F01EFF00218846A24C0BE039
S21400836C43469A0008ABD05043460133DBB29846DE
S21400837C0020211C08F00EFF0028F1D100259B4F91
S21400838C26E1AB0008AA9858A100091900AA5118B2
S21400839C08F0E6FE002800D10EE1052C00D90BE112
S2140083ACA300FB589F468923F35C012B00D003E106
S2140083BC331C8933DB78002B00D0FDE008AB494634
S2140083CCC85808F09DFD002803D0002000F0DCFF04
S2140083DCF2E0002000F0E8FFEEE08923F35C012BCE
S2140083EC00D0E9E0331C8933DB78012B00D0E3E0C6
S2140083FC331C89339A79DB791B0213439B4608ABF3
S21400840C4A46D058824608F07BFD834500D1D3E01F
S21400841C504608F075FD80B2892189198A46887104
S21400842C000AC871724B1868002107F0EFFA524622
S21400843C9379D17909021943137A527A12021A43A4
S21400844C002000F06FFFB7E08923F35C012B00D00F
S21400845CB2E0331C8933DB78012B00D0ACE0331C44
S21400846C89331A7A5B7A1B0213439B4608AB484641
S21400847CC1588A46081C08F043FD834500D19BE092
S21400848C504608F03DFD80B2892292199246107231
S21400849C000A5072564B1868002107F0B7FA50467F
S2140084AC8379C17909021943037A427A12021A4374
S2140084BC002000F037FF7FE09323F35C012B7BD189
S2140084CC331C9333DB78002B76D108AB4946C8585F
S2140084DC08F016FD002803D0012000F055FF6BE0D5
S2140084EC012000F061FF67E09323F35C012B63D15E
S2140084FC331C9333DB78012B5ED1331C93339A7980
S21400850CDB791B0213439B4608AB4A46D05882467F
S21400851C08F0F6FC83454FD0504608F0F1FC80B2CC
S21400852C932189198A468871000AC871304A5068A6
S21400853C002107F06BFA50468379C179090219437A
S21400854C037A427A12021A43012000F0EBFE33E063
S21400855C9323F35C012B2FD1331C9333DB78012B45
S21400856C2AD1331C93331A7A5B7A1B0213439B462D
S21400857C08AB4946CA589246101C08F0C1FC834505
S21400858C1AD0504608F0BCFC80B293239B199A462E
S21400859C1872000A587216494868002107F036FA15
S2140085AC52469379D17909021943137A527A1202F8
S2140085BC1A43012000F0B6FE0134E4B203E00024B6
S2140085CC6B1C9B009946052C00D8DAE60235EDB2FA
S2140085DCA845F4D829B03CBC90469946A246AB4672
S2140085ECF0BDC0467C25010014260100A82401001D
S2140085FC20000020F0B55F4656464D464446F0B483
S21400860C99B0041C02F07AF8051C02F077F8804644
S21400861C02F074F8071C713702F070F87D30814652
S21400862C02F06CF8824600230B930C930D930E937A
S21400863C0F93109311931293CF4E311C203107A831
S21400864C102208F078FC311C303103A8102208F0F8
S21400865C72FCCA4B1B78002B00D1AAE16E464F3633
S21400866C201C0A21321C06F049F83378222B02D043
S21400867C172B00D09DE1022000F0D6FFC048002149
S21400868C8022D20008F060FC4346E0331B78002BB7
S21400869C39D085E07100891979180B78012B22D115
S2140086AC584600280BD1B30007A8C21848788B7818
S2140086BC1B0203430BA8B34908F0D4FC0FE0B3002D
S2140086CC07AAD3184A788978090211434246DF3242
S2140086DC127852B200910BA8AB4908F0C3FC5B466B
S2140086EC0133DBB29B46A6480BA908F0DDFC002341
S2140086FC0B930C930D930E930F931093119312935D
S21400870C0136F6B202E000239B460026032EC1D9A2
S21400871C00279B4E38E07900C919490049440B786C
S21400872C012B22D1584600280BD1BB0003A8C21837
S21400873C48788B781B0203430BA8924908F092FCEE
S21400874C0FE0BB0003AAD3184A78897809021143B4
S21400875C4246DF32127852B200910BA88A4908F0D2
S21400876C81FC5B460133DBB29B46301C0BA908F040
S21400877C9BFC00230B930C930D930E930F9310936B
S21400878C119312930137FFB2012FC4D90BA97F4B5B
S21400879C1A880A809B788B70794808F085FC93E0E1
S2140087AC012B00D090E00BAE7B2333807448311C39
S2140087BC08F07AFC00230B937360B360F3603361AC
S2140087CC7361B361F3619B46002637E0710089192B
S2140087DC79180B78012B22D1584600280BD1B30000
S2140087EC07A8C21848788B781B0203430BA8684965
S2140087FC08F038FC0FE0B30007AAD3184A7889783B
S21400880C090211434246DF32127852B200910BA88D
S21400881C604908F027FC5B460133DBB29B465848A0
S21400882C0BA908F041FC00230B930C930D930E93AD
S21400883C0F931093119312930136F6B2032EC5D9EB
S21400884C00274F4E38E07900C919490049440B7887
S21400885C012B22D15B46002B0BD1BB0003A8C21800
S21400886C48788B781B0203430BA8494908F0FAFB9F
S21400887C0FE0BB0003AAD3184A7889780902114383
S21400888C4246DF32127852B200910BA8414908F0EA
S21400889CE9FB5B460133DBB29B46301C0BA908F0A8
S2140088AC03FC00230B930C930D930E930F931093D2
S2140088BC119312930137FFB2012FC4D9364B0B9389
S2140088CC2F480BA908F0F0FB2D4808F018FC87B2CF
S2140088DC6B464F331B78222B23D1291C643102A8FC
S2140088EC042208F028FB0026254B984616E0404646
S2140088FC3118BA1B92B22B1C64339879DB791B02A5
S21400890C03430093201C02AB05F006FD002803DA97
S21400891C022000F099FE4CE03618B6B2BE42E6D104
S21400892C41E0172B3FD164352B7A0025032B37D12A
S21400893C14AA134B93600004000CD0600023137031
S21400894C5370937051463231144803F095FF00284B
S21400895C29D0022000F078FE2BE0A9197A1B92B2DF
S21400896C201C05F095FB002803DA022000F06CFEB4
S21400897C1FE02D18ADB214E07C2501003C01002050
S21400898CA80200201C260100242601004027010016
S21400899C2C260100342601007D0D0A00C40600209A
S2140089AC074EBD42D9D10022064B1A70022000F0A9
S2140089BC4BFE19B03CBC90469946A246AB46F0BD61
S2140089CCA80200203C010020F0B54F464646C0B435
S2140089DC87B0051C6C4617340A21221C05F08EFE47
S2140089EC2378222B02D00020172B70D105AC281C24
S2140089FC0921221C05F082FE23880020002B66D05D
S214008A0C022000F011FE6B4617331B78222B31D157
S214008A1C05AB1A88063B0093281C2F4904AB05F0BF
S214008A2C63FD041E04DC022000F00EFE201C4EE04B
S214008A3C294801F02BFE80B280460024264B99462E
S214008A4C6F460E3713E04B46E11843461A1B92B29C
S214008A5C3B880093281C04AB05F05EFC061E04DA6B
S214008A6C022000F0F1FD301C31E02418A4B244457D
S214008A7CE9D128E0172B26D105AB1A88281C1649F5
S214008A8C05F0BCFB041E04DC022000F0DDFD201CFF
S214008A9C1DE0114801F0FAFD87B200240E4B9846F3
S214008AAC0FE04346E1183A1B92B2281C05F0F0FA88
S214008ABC061E04DA022000F0C7FD301C07E024185E
S214008ACCA4B2BC42EDD1022000F0BEFD012007B0DE
S214008ADC0CBC90469946F0BDA802002070B596B026
S214008AEC051C01F00BFE041C68464B49403158220D
S214008AFC08F021FA494B1B78002B04D00023484A77
S214008B0C1360464A13706C23E35C052B00D981E096
S214008B1C9A0044498A589746032B2AD1AE04424AF7
S214008B2CB01807F0A7FAC30723D5404AB01801219E
S214008B3C07F0A4FA04236A461372231C9D3303938E
S214008B4C7F3B10930A3313930023D3763C23138373
S214008B5C012393763648694603F0CAFD4B23E35C43
S214008B6C002B06D03248211C4B310022314B03F02F
S214008B7C13FE6C23E35C032B08D16B46198B2C4835
S214008B8C03F086FD281CFFF735FD02E0281CFFF7D6
S214008B9C31FD294B1B78002B03D10122264B1A7072
S214008BAC38E0022B36D10022234B1A7006F090FECA
S214008BBC00282FD16C23E35C032B06D11C4803F052
S214008BCCD3FE1E4803F020FF24E0281C05F012FA02
S214008BDC281C05F07BF81DE0281CFFF7F5FE164B4D
S214008BEC1B78002B03D10122134B1A7012E0022BB8
S214008BFC10D10022104B1A7006F06AFE002809D11C
S214008C0C281C05F0F7F9281C05F060F802E0281C73
S214008C1C05F05CF816B070BD7C250100080100203C
S214008C2C40010020C0240100200001462800014617
S214008C3CC40600203183000020010020B40600206A
S214008C4C10B5041C01F05AFD031C64331B7A052B6B
S214008C5C0ED89B00074AD3589F46201C05F036F8C2
S214008C6C06E0201CFFF7C6FC02E0201CFFF7ACFE5B
S214008C7C10BDC046D824010030B583B0041C01F0EA
S214008C8C3DFD051C201C0A216A46073205F036FD00
S214008C9C2B1C64335B7A012B16D0002B02D0022BD4
S214008CAC1ED029E06B4607331B78222B03D1643584
S214008CBC02236B7226E0172B24D1643501236B72CA
S214008CCC012000F0B1FC1DE06B4607331B78172B18
S214008CDC18D0643500236B72012000F0B5FC11E04F
S214008CEC6B4607331B78222B0CD0643500236B7233
S214008CFC012000F0A9FC05E0643500236B7201200E
S214008D0C00F0A2FC6A46D379222B1AD89B000E4A96
S214008D1CD3589F46201CFFF72BFA12E0201CFFF7B7
S214008D2C7DFA0EE0201CFFF7BFFA0AE0201CFFF7C6
S214008D3CD5FE06E0201CFFF7D1FA02E0201CFFF758
S214008D4C7FFF03B030BDC046F024010000B585B0EF
S214008D5C019007F023FA074907F07AFA019B58436B
S214008D6C039002E0039B013B0393039B002BF9D17A
S214008D7C05B000BD1027000008B58420C0052021D2
S214008D8C06F0ACFA08BDC04608B58420C005202104
S214008D9C06F0D2FA08BDC04610B5041C07F00CF954
S214008DAC201C07F01FF9C0B210BDC04610B58EB01F
S214008DBC05A807F0C3F81D23059381235B42069391
S214008DCC41235B42079331235B42089307230993A5
S214008DDC05235B420B9310230D9307F0DFF90599DF
S214008DEC01310D9B594307F033FA011C0F4808F06C
S214008DFCB3F80F4C201C05A906F0C6FF201C012159
S214008E0C07F0B4F801A92023019301230B71022269
S214008E1C8A600B738424E405201C06F09DFB201C42
S214008E2C202106F05BFA0EB010BDC04640260100AD
S214008E3C00A000400122114B1A70002802D0012815
S214008E4C04D007E001220E4B1A7006E000220C4BF1
S214008E5C1A7002E00022094B1A70002902D0012970
S214008E6C04D007E00422074B1A7006E00822054BD4
S214008E7C1A7002E00022014B1A707047F1000020B5
S214008E8C41070020FC00002070B5032802D00130FA
S214008E9CC3B200E00023194A1178C9001943102206
S214008EAC1143CCB2164A12780020002A24D0154A58
S214008EBC1278934220D8A608A401E4B2FFF764FF08
S214008ECC0120FFF743FF104D281C311CFFF764FFF1
S214008EDC281C211CFFF760FF061C281C0021FFF72E
S214008EEC5BFF041C0120FFF731FFFFF745FF0F2047
S214008EFC064030020443A0B270BDC04641070020B5
S214008F0CF1000020FC00002000A00040F0B55F46F9
S214008F1C56464D464446F0B483B001F0EFFB713034
S214008F2C019000242B4D06E0201CFFF7ADFF6300DC
S214008F3C58530134E4B2032CF6D901239A46254B38
S214008F4C98463DE050460138514607F0CFF907F0F9
S214008F5C65FE214B18600024FE239B059B4629E0EA
S214008F6C65002E19019B9E194346E85A1A4B1F683A
S214008F7C07F054FE391C07F097FB81465846391CFF
S214008F8C07F0BCFC071C201CFFF77EFF07F046FE14
S214008F9C011C381C07F088FB011C484607F020FA19
S214008FAC07F006FA80B27070030AB3704346E852B4
S214008FBC0134E4B2032CD3D953460133DBB29A46C0
S214008FCC53460A2BBED903B03CBC90469946A246E3
S214008FDCAB46F0BDF400002000010020F8B54F466B
S214008FEC4646C0B4041C2A4A2A4B1A6001F086FB7B
S214008FFC061C713601F082FB65002D1975192B784D
S21400900C012B3AD16E23C35C002B09D1201CFFF731
S21400901C3BFF6870030AAB7064001F4BE05233E0F2
S21400902C1E4F6600F05B1B4B1B68984607F0F6FD60
S21400903C414607F039FB8146FE208005414607F085
S21400904C5DFC8046201CFFF71FFF07F0E7FD011CA8
S21400905C404607F029FB011C484607F0C1F907F00B
S21400906CA7F980B26870030AAB700B4BF0526A78A3
S21400907CAB781B021343F35306E000236B70AB7004
S21400908C6400054B0022E2520CBC90469946F8BD93
S21400909C3333333F00010020A8060020F4000020E4
S2140090AC00B585B04200094BD35A009300236A469C
S2140090BC137120230293064B1B5C13738000054B25
S2140090CCC058694606F048FA05B000BD6026010097
S2140090DC1C0000200C00002030B58BB0041C0D1CAE
S2140090EC8200224BD0586200214BD15A214B1A5D7C
S2140090FC06F050F9684606F079FC012D06D10223DD
S21400910C00930A2304931C4B059320E0022D06D1F2
S21400911C012300930A230493174B059317E00125AC
S21400912C01952F2303930523049301235B42059398
S21400913CA300124A98580721012206F033FD63005B
S21400914C0F4A9B5A1F2213409D400E4B1D60012355
S21400915C01930A4DA4006059694606F0C5FB605998
S21400916C012106F053FC0BB030BDC0460C000020AD
S21400917C6826010008000020FFFF00000000002009
S21400918C5C26010000E100E038B501F0B7FA051CDA
S21400919C7D3500240FE063001B195B00EB18D978B3
S2140091AC002903D1201CFFF77BFF02E0201CFFF7F1
S2140091BC93FF0134E4B2012CEDD938BD08B580001C
S2140091CC024BC05806F0BCFC08BDC0460000002090
S2140091DC08B58000024BC05806F080FC08BDC0469F
S2140091EC0000002008B58200054BD3584000054A05
S2140091FC815A181C05F0CAFF431E984108BDC0468C
S21400920C0C0000206026010038B5041C01F076FA2C
S21400921C7D3065002D196D0045192B78012B4ED12C
S21400922CEB78002B09D1201CFFF7DCFF80B26870AE
S21400923C030AAB70264B185549E0012B0AD1201CAB
S21400924CFFF7BCFF80B26870030AAB706400214B5A
S21400925CE0523CE0022B0AD1201CFFF7AFFF80B295
S21400926C6870030AAB7064001A4BE0522FE0E30000
S21400927C1B1B5B00184AD3185A8908339B881B049F
S21400928C134311D115490A5D0132D2B20A55022A8E
S21400929C1DD90021114A11559BB26B701A0AAA707F
S2140092AC64000C4AA35212E000210C4A11559BB2E2
S2140092BC6B701A0AAA706400064AA35207E00023D1
S2140092CC034A13556400034AA3526B70AB7038BD47
S2140092DCB0060020200700202407002004010020F0
S2140092EC00B585B042000B4BD35A009301236A4657
S2140092FC137103230293084B1B5C13738000074BFC
S21400930CC058694606F028F9054800F0A9FB05B0D8
S21400931C00BDC0465826010014000020280000207E
S21400932C1027000070B58AB0031C0E1C151C840098
S21400933C114AA0585900114A895A114AD25C06F0B3
S21400934C29F8684606F052FB022301932F23039359
S21400935C6423191C7143013904916B43C9180139F4
S21400936C0591084D6059694606F0BEFA6059012110
S21400937C06F04CFB0AB070BD2800002064260100E5
S21400938C180000202000002008B58200044BD3589B
S21400939C4000044A815A181C05F0A0FF08BDC046C0
S2140093AC280000205826010008B58200044BD3582C
S2140093BC4000044A815A181C05F0BEFF08BDC04682
S2140093CC280000205826010070B501F097F9061CFD
S2140093DC8936002427E0A5002D196D0075192B7809
S2140093EC012B1ED1EB78002B10D1201CFFF778FF39
S2140093FC6A78AB781B021343012B03D1201CFFF7B2
S21400940CC3FF0EE0201CFFF7CFFF0AE0AB79E9792B
S21400941C090219432B7A6A7A12021A43201CFFF7A8
S21400942C81FF0134E4B2012CD5D970BD08B5820099
S21400943C044BD3584000044A815A181C05F0FAFE17
S21400944C08BDC046280000205826010038B5051C6B
S21400945C01F054F98930AC006419640004192378BF
S21400946C012B19D1E378002B07D1281CFFF7DEFF60
S21400947C80B26070000AA0700EE0012B0CD1A179AE
S21400948CE27912020A43217A637A1B020B43D31841
S21400949C9BB263701B0AA37038BDC046F8B5041C9B
S2140094AC82003F4BD058012106F0ECFB01280BD173
S2140094BCA3003B4A9858012106F026FCE200121B3A
S2140094CC52000121374BD154A300354A985802213B
S2140094DC06F0D8FB012813D1A300314A9858022174
S2140094EC06F012FC2F49E300181B400000224254E1
S2140094FC0B185A705A809A80DA801A815A819A818F
S21400950CA300274A9858042106F0BCFB012845D135
S21400951CA300234A9858042106F0F6FBE200121B1F
S21400952C5200204BD35C012B13D11E4DE600131CAE
S21400953C00225A55331B5B00EB1801225A70201C74
S21400954CFFF746FE341B64002D196880000CA880BB
S21400955C24E0E3001B1B5B00124AD3185B78012B3C
S21400956C1CD1161CE7003D1B6D00551900236B70B3
S21400957C3B1B5B0001229A55201CFFF729FEE88056
S21400958C030C2B816A88AB881B041343C01A01306A
S21400959C642106F05DFE6881000CA881F8BDC0460B
S2140095AC000000202407002008B5011C72B612200B
S2140095BC0022002305F0DAFD62B608BD38B5051C9E
S2140095CC0B1C141C72B62220291C1A1C231C05F01A
S2140095DCCDFD62B6201C38BD10B5002302E0C45C7D
S2140095ECCC5401339342FAD3181C10BD00B585B089
S2140095FC42000A4BD35A009301236A4613710B227E
S21400960C02926A4613738000054BC058694605F0F3
S21400961CA3FF044800F024FA05B000BD6C26010038
S21400962C300000201027000008B58200044BD358E9
S21400963C4000044A815A181C05F07EFE08BDC04640
S21400964C300000206C26010008B58200044BD3586D
S21400965C4000044A815A181C05F040FE08BDC0465E
S21400966C300000206C2601008200044BD358596849
S21400967C4000034A825A4A405A6070473000002025
S21400968C6C26010000B585B080231B0200930123D5
S21400969C6A461371032202926A4613738820C00529
S2140096AC694605F059FF05B000BDC04608B58820D0
S2140096BCC0058021090205F011FE08BD08B58820FA
S2140096CCC0058021090205F037FE08BD8823DB059E
S2140096DC5968802212024A405A60704708B5012821
S2140096EC02D1FF20400201E0FE204002FFF774FF8B
S2140096FC08BDC04670B50E1C151C012802D1FF24EF
S21400970C640201E0FE246402201CFFF74DFF601C7F
S21400971CFF30FFF749FF201C311C2A1CFFF74EFFB9
S21400972C70BDC04610B500F0E9FF041C414805F0BA
S21400973CDDFC00287DD03F4805F0F8FC3E4B1A684F
S21400974C01321A6003F066F93C4B1B78002B14D1DF
S21400975C231CDD331A7801331B781B0213430CD001
S21400976C374A1168013111601268934205D80122FC
S21400977C324B1A700022324B1A60324B1B78002B7D
S21400978C03D0314B1A6801321A60231CDB331B786A
S21400979C221CDC32127812021A432B4B1B689A429C
S2140097AC04D80023274A1370274A1360224B1868E4
S2140097BC264906F091FD00293BD10020FFF754FF07
S2140097CC00221D4B1A60224B1A6801321A60231CA9
S2140097DC9D339B7F002B01D004F040FA231C9D3355
S2140097ECDB7F002B01D003F095FB194B18683B214F
S2140097FC06F072FD002909D10022154B1A609D3423
S21400980CE37F002B02D00122124B1A70124B1B78EE
S21400981C012B0ED1114B186801301860052106F08B
S21400982C5BFD002905D100220C4B1A6002220A4B64
S21400983C1A7010BD00100040100100203C010020E2
S21400984C380100200801002040010020E70300003A
S21400985C240100203C000020200100202C010020C8
S21400986CF0B583B0504805F041FC002800D199E0D3
S21400987C4D4805F05BFC4D4B1B78002B1DD04C4B1C
S21400988C186801301860F421FF3106F025FD002918
S21400989C13D1FFF71BFF0022454B1A60454A13688D
S2140098AC01331360052B08D9FFF708FF0023414A44
S2140098BC13603E4A13703E4A13603F4B1B78002BD6
S2140098CC1CD03B4B186801301860C72106F004FD0D
S2140098DC002913D1FFF7FAFE0022354B1A60374ADF
S2140098EC1368013313600E2B08D9FFF7E7FE00232D
S2140098FC324A1360304A13702D4A13600023012538
S21400990C2F481EE0191CDA00D21A52002D4C125D9C
S21400991C012A07D19E002C4FF759019701372A4C84
S21400992C375102E09E00284FF551002A04D18900D9
S21400993C0A5801320A5002E08900214A8D50013340
S21400994CDBB2012BDED90024204F012628E0251C93
S21400995CA3001D4A9858391C06F0BEFC00290AD1F3
S21400996CA300194A9E50E3001B1B5B00154AD31834
S21400997C00225A819A81AB00114A9858391C06F07D
S21400998CABFC00290AD1AB000D4A9E50EB005D1BC8
S21400999C6D000C4B5D1900236B81AB810134E4B276
S2140099AC012CD4D903B0F0BD0020004029020020C1
S2140099BC280100200C010020280200201C01002099
S2140099CC140100202407002030010020DC050000D4
S2140099DC10B582B00D4B0093002369464B714022A4
S2140099EC0A71CB7102238B71094C201C05F0D6FA38
S2140099FC201C012105F048FB80225201054B1A6001
S214009A0C201C012105F096FA02B010BD7FBB0000A9
S214009A1C0010004000E100E010B582B00D4B009342
S214009A2C002369464B7140220A71CB7102238B715D
S214009A3C094C201C05F0B2FA201C012105F024FB71
S214009A4C80229201054B1A60201C012105F072FA47
S214009A5C02B010BD7FBB00000020004000E100E01B
S214009A6C82B00190019B5A1E0192002BFAD102B0D3
S214009A7C7047C04610B582B0041C06F08FFB074931
S214009A8C06F0E6FB4443019402E0019B013B019384
S214009A9C019B002BF9D102B010BDC0461027000068
S214009AAC012802D101220E4B1A70042802D104227E
S214009ABC0B4B1A70052802D10522094B1A70062882
S214009ACC02D10622064B1A700F2802D10F22044B25
S214009ADC1A70102802D11022014B1A707047C0461B
S214009AEC40070020000208437047C046F0B55F46AA
S214009AFC56464D464446F0B483B080460D1C00F0E6
S214009B0CFDFD041CA87AE97AFFF7ECFFC3175B0F80
S214009B1C1B18DB100193DB00834202DA019901313A
S214009B2C01910021002313E05A00D2185200A2180B
S214009B3C78325279012A09D15A00D2185200A2184A
S214009B4C7832127A002A01D10131C9B20133DBB264
S214009B5C012BE9D900291AD1EA797F235B421343FA
S214009B6CEB7101232B720A2096E05A00D218520091
S214009B7CA2187832507A927A12020243BA4203DB67
S214009B8CB24201DC0131C9B20133DBB204E000237E
S214009B9C019A161C46444746012BE6D9B8460029BE
S214009BAC08D1EA797F235B421343EB7102232B72B5
S214009BBC0A2071E0019EF3B2DA1C6A712B72002245
S214009BCC914683218C465EE07D26A15D012921D13C
S214009BDC8121665C8227E15D090231434746D6192E
S214009BECB14217D18021615C002913D12E490E7821
S214009BFC002E07D029180E1C0F78012199400F4310
S214009C0C377033E029180E1C0F78012199408F43CA
S214009C1C37702BE06646A15D012921D18727E15DCF
S214009C2C8826A65D36020E434746D1198E4217D1BA
S214009C3C8621615C002913D11B4E7178002907D050
S214009C4C29180E1C0F78012199400F4337700DE030
S214009C5C29180E1C0F78012199408F43377005E0A8
S214009C6C29180E7801279F40BE430E700132D2B2DF
S214009C7C0133DBB201E000230930072BA4D94B4695
S214009C8C0133DBB29946484601998945F3DB00223D
S214009C9C064B1A70081C093003B03CBC904699461B
S214009CACA246AB46F0BDC046B006002040070020DA
S214009CBCF0B55F4656464D464446F0B485B0061C95
S214009CCC0D1C00F01BFD041C00236F27702084461F
S214009CDC0BE0E25D6046215C090211435A00C9188C
S214009CEC0832684611520133DBB2032BF1D9A87A3D
S214009CFCE97AFFF7F7FE0190002100230AE05A00EC
S214009D0CD218A21870325278012A01D10131C9B288
S214009D1C0133DBB2032BF2D9002313E05A00D2181E
S214009D2C5200A21878325279012A09D15A00D21858
S214009D3C5200A2187832127A002A01D00131C9B228
S214009D4C0133DBB2012BE9D9002914D1EA797C2343
S214009D5C5B421343EB7101232B720A20FAE05A0084
S214009D6C02AFD75BB74203DB674501DC0131C9B2F2
S214009D7C0133DBB203E00023019A92199446032BBD
S214009D8CEDD90023019FBF19B84614E05A00D2182B
S214009D9C5200A21878329146527A94464A46977ADE
S214009DAC3F0262461743B74203DB474501DC0131ED
S214009DBCC9B20133DBB2012BE8D9002908D1EA7904
S214009DCC7C235B421343EB7102232B720A20C1E007
S214009DDC40008446C3B2DA1C6A712B7200237121D0
S214009DEC7427BA46ADE0625C012A13D16846008936
S214009DFCF21890420ED15B4A12889346120A5F0004
S214009E0CB846092080444746EA55581D40005A4635
S214009E1C2A5495E05746E25D012A13D168464089DC
S214009E2CF21890420ED14F4A52889346120A5F009F
S214009E3CB846092080444746EA55581D40005A4605
S214009E4C2A547DE07722A25C012A13D16F46BF8983
S214009E5CF21897420ED1434880888346000A5A006F
S214009E6C90460927B8444246A8545F1D7F005846C2
S214009E7CE85565E07A22A25C012A14D16A46D2899A
S214009E8C9046F21890450ED1364FFF88BB463F0AD7
S214009E9C580080460922904440462F545A1D5200C2
S214009EAC5F46AF544CE07D22A25C012A1BD1812276
S214009EBCA25C8220275C3F021743F218974212D10D
S214009ECC8022A25C002A0ED0274800888346000A0F
S214009EDC5A0090460927B8444246A8545F1D7F0096
S214009EEC5846E8552CE08322A25C012A1BD1872217
S214009EFCA25C8827E05D00021043F218904212D153
S214009F0C8622A25C002A0ED0174A52889346120A62
S214009F1C5F00B846092080444746EA55581D400065
S214009F2C5A462A540CE05A0009325219904600221E
S214009F3C47463A70581D40008046A84447463A703B
S214009F4C01330198834200DA4DE70022074B1A7062
S214009F5C6046093005B03CBC90469946A246AB46D6
S214009F6CF0BDC046A80600202007002040070020B1
S214009F7CF8B5071C0E1C00F0C1FB051C00210023C5
S214009F8C13E09A00D2185200AA1888325278012A86
S214009F9C09D19A00D2185200AA1888321279002ACF
S214009FAC01D10131C9B20133DBB2012BE9D900234F
S214009FBC002917D1F2797B235B421343F3710123FB
S214009FCC33720A204EE09A00D2185200AA18883231
S214009FDC5079927912020243BA4201D10131C9B2C8
S214009FEC0133DBB2012BEED90024002932D1F279F1
S214009FFC7B235B421343F371022333720A2031E056
S21400A00CA3001B195B00EB1888335B78012B1FD160
S21400A01CA3001B195B00EB18883359799B791B023C
S21400A02C0B43BB4214D1A3001B195B00EB188833FF
S21400A03C1B79002B0CD1B07AF17AFFF753FD002870
S21400A04C03D0201CFFF7A0F902E0201CFFF7ACF9A8
S21400A05C0134E4B2012CD3D9062373710022024BCF
S21400A06C1A700C20F8BDC04640070020F8B55F46B5
S21400A07C56464D464446F0B481460E1C00F03EFB58
S21400A08C051CB07AF17AFFF72DFD071C0021002382
S21400A09C13E09A00D2185200AA1888325278012A75
S21400A0AC09D19A00D2185200AA1888321279002ABE
S21400A0BC01D10131C9B20133DBB2012BE9D900233E
S21400A0CC002917D1F27971235B421343F3710123F4
S21400A0DC33720A206EE09A00D2185200AA18883200
S21400A0EC50799279120202434A4501D10131C9B224
S21400A0FC0133DBB2012BEED9002908D1F27971239A
S21400A10C5B421343F371022333720A2052E0062398
S21400A11C73710024012080468922924693239B4625
S21400A12C41E0E3081A1C0D32B25CDB00E31A1A415C
S21400A13C131C4046034050462A5C012A17D18D2238
S21400A14CAA5C8E20285C000210438C46CC446045EA
S21400A15C0DD18C22AA5C002A09D1002B03D000203A
S21400A16CFFF712F91DE00020FFF71EF919E058461C
S21400A17C2A5C012A15D19722A85C9822AA5C1202A6
S21400A18C024349448A420CD19622AA5C002A08D182
S21400A19C002B03D04046FFF7F7F802E04046FFF7E7
S21400A1AC03F90134E4B2211EB942BADB0022044B97
S21400A1BC1A700C203CBC90469946A246AB46F8BD9D
S21400A1CC40070020F0B55F4656464D464446F0B470
S21400A1DC87B0071C8B4600F091FA041C00229446AC
S21400A1ECB84617E048798D792D020543F0184000E3
S21400A1FCED1810306F46C5530133DBB206E06346EC
S21400A20C910089184900611888315600012BE9D94C
S21400A21C0132D2B2012AF2D947460020002313E0BD
S21400A22C9A00D2185200A21888325278012A09D104
S21400A23C9A00D2185200A21888321279012A01D13B
S21400A24C0130C0B20133DBB2012BE9D900229446AF
S21400A25C00281BD15E46F2797A235B421343F371D6
S21400A26C012333720A209DE0E918490010316E462E
S21400A27C895BB94201D10130C0B20133DBB201E0D7
S21400A28C63465500012BEFD90132D2B2012AF7D919
S21400A29C00287BD15F46FA797A235B421343FB7125
S21400A2AC02233B720A207DE042465300E3188833B3
S21400A2BC5B78012B37D173005B195B0010336A4651
S21400A2CC9B5A53452FD1039A1379012B2BD15B46FE
S21400A2DC987AD97AFFF706FC002D15D10A237B4312
S21400A2ECE3188833D9791B7A1B020B4383421AD0A6
S21400A2FC0A237B43E3188833FF220240DA71000AF4
S21400A30C1872012202920EE04B46903359789B78D5
S21400A31C1B020B43834206D04B4690335870000A00
S21400A32C9870012302930135EDB20AE00025371C24
S21400A33CB3009B19984643465B001B199946883315
S21400A34C0393012DB0D9029F012F1CD1B500194AD9
S21400A35CAA580192101C002105F058FBAB195B00A3
S21400A36CE3188833DA79197A09021143AB195B00C2
S21400A37CE318903358789A7812020243301CFEF792
S21400A38CD1FF002702970136F6B202E000260296AD
S21400A39CBA46012ECAD906235F467B710022064BAD
S21400A3AC1A700C2007B03CBC90469946A246AB46A9
S21400A3BCF0BDC0462000002040070020F0B55F46E8
S21400A3CC56464D464446F0B487B083460E1C00F005
S21400A3DC95F9051C002290461CE048798C792402DD
S21400A3EC04439946E144484640008246E418201C43
S21400A3FC04AC574638530133DBB207E043469100B2
S21400A40C89184900691888315400A446012BE4D9F0
S21400A41C0132D2B2012AF1D9B07AF17AFFF762FB97
S21400A42C80460020002313E09A00D2185200AA1887
S21400A43C88325278012A09D19A00D2185200AA18EA
S21400A44C88321279012A01D10130C0B20133DBB255
S21400A45C012BE9D9002200281FD1F27970235B4228
S21400A46C1343F371012333720A2004E15746F9189B
S21400A47C490010316C46095B594503DB614501DC2C
S21400A48C0130C0B20133DBB202E04B465700BA468D
S21400A49C012BEBD90132D2B203E000218946DC460F
S21400A4ACC444012AF1D90024002800D0D9E0F2795E
S21400A4BC70235B421343F371022333720A20DAE0F3
S21400A4CC63000D33F05CE31D5B00F15CFFF70AFBE9
S21400A4DC021C8923EB5C012B2CD16F463F8ADA4693
S21400A4ECCA44574526D18C21695C012922D18F2379
S21400A4FCE95C9023EB5C1B020B43834200D1AEE07D
S21400A50C8F229246A854000A9027E8555D4B18688F
S21400A51C002105F07BFA5246AB5CE95D0902194353
S21400A52C9123EB5C9222AA5C12021A430020FEF7DF
S21400A53CF9FE94E0012B2ED16B46598ADC46CC44AE
S21400A54C614528D18C23EB5C012B24D19123E95C4B
S21400A55C9223EB5C1B020B43934200D17FE09121CC
S21400A56C8A466854000A92231F1CE8544548006823
S21400A57C0390002105F04AFA8F23EB5C9022A95C2D
S21400A58C090219435246AB5CEA5D12021A430020DC
S21400A59CFEF7C8FE63E09323EB5C012B2FD16F46CE
S21400A5ACBF8ADA46CA44574529D19621695C0129E7
S21400A5BC25D19923E95C9A23EB5C1B020B4393424F
S21400A5CC4DD099229246A854000A9A27B946E855C7
S21400A5DC2C4A52680292101C002105F017FA5746B6
S21400A5ECEB5D4846295C090219439B23EB5C9C22D5
S21400A5FCAA5C12021A430120FEF794FE2FE0012BF0
S21400A60C2DD16B46D98AD944494528D19623EB5C83
S21400A61C012B24D19B23E95C9C23EB5C1B020B4394
S21400A62C93421CD09B27BA46E855000A9C229146BA
S21400A63CA854144F7F680197381C002105F0E6F9E2
S21400A64C9923EB5C9A22A95C0902194350462B5CB1
S21400A65C4F46EA5D12021A430120FEF763FE0134F0
S21400A66CE4B2A146444500DA2AE7062373710022B9
S21400A67C054B1A700C2007B03CBC90469946A24677
S21400A68CAB46F0BD200000204007002010B5041C8F
S21400A69C8078E178FFF726FA031C0020002B27D1E0
S21400A6ACE079FFF7FDF9207A617AFFF71BFA114B78
S21400A6BC1A78102A1BD893000F4AD3589F46211C91
S21400A6CCFFF714FA14E0211CFFF7F2FA10E0211C35
S21400A6DCFFF74EFC0CE0211CFFF774FD08E0211C74
S21400A6ECFFF7C4FC04E0211CFFF768FE00E0002026
S21400A6FC10BDC04640070020742601000048704775
S21400A70C44010020F0B557464E464546E0B46E4C24
S21400A71CE12323800423A3700025E570257101270F
S21400A72C6771A571E571C0208146A073A82290467A
S21400A73C131CE27325746420824660744A46A27425
S21400A74CE37425756775FF23A375E3752376657625
S21400A75C0823A376E376237763775C4E201C1E30A3
S21400A76C311C0A2206F0E7FB231C2833321C03CAD2
S21400A77C03C312881A80201C32300C36311C192266
S21400A78C06F0D9FB201C4B30311C192206F0D3FBEB
S21400A79C4B465246A35465234046E0546623E55484
S21400A7AC02226723E2544A4B6822A3526A22A3521F
S21400A7BC6C23E7546D23E5546E23E55400226F2377
S21400A7CCE2547023E25400233F480124002108E0A1
S21400A7DC5A00D2188218703254709170D1700133AE
S21400A7ECDBB2032BF4D900233748012600250024BE
S21400A7FC12E05900CA185200821878325671D58069
S21400A80C1472CA18520082187832191C0A31517206
S21400A81C090A91720133DBB2012BEAD900232A4DC7
S21400A82C012188460021002294463227642618E02F
S21400A83C9800C2185200AA188832444654705180A8
S21400A84C644614715C0014345471240A9471D771E4
S21400A85C1172C2185200AA189032567091700133B9
S21400A86CDBB2012BE4D9184C184E201C9D30311C41
S21400A87C2831142206F05FFB201CB130311C0A2252
S21400A88C06F059FB0025BB23E554BC23E554201CDD
S21400A89CBD30311C40311E2206F04DFB18235B42A6
S21400A8ACDB22A3540321DC22A154DD22A354DE2395
S21400A8BC0322E2542C22DF23E254E023E5541CBC92
S21400A8CC90469946A246F0BD44010020B8260100E9
S21400A8DC8813000010B50D4C0120211CE122FEF758
S21400A8ECFDFE2288013A92B2094B9A4206D9FFF72E
S21400A8FC09FF01200549E122FEF7FCFE034B01226D
S21400A90C5A7100229A71DA7110BDC04644010020BB
S21400A91CFDFF000070B5064C6D25665D0023635583
S21400A92C0120211CE122FEF7E5FE665570BDC046EF
S21400A93C4401002008B506F0FEFA08BD08B506F07E
S21400A94CFAFA08BD70B58AB004AC0120211C04F0DC
S21400A95CA1FA21786278A378E67825796079009652
S21400A96C01950290124806F0F7FAA179E279237A5B
S21400A97C607A00900F4806F0EFFAA17BE27B237C0E
S21400A98C607C00900C4806F0E7FAA17AE27A237B0A
S21400A99C607B0090094806F0DFFAA17CE27C237D00
S21400A9AC607D0090064806F0D7FA0AB070BDC04627
S21400A9BC18270100442701005C27010074270100BA
S21400A9CC8C27010010B5FFF799FE041C017A0C4881
S21400A9DC05F054FB617A0B4805F050FBA17A0A4847
S21400A9EC05F04CFBE17A094805F048FB217B08484A
S21400A9FC05F044FB617B074805F040FB10BDC046E4
S21400AA0C0360004602600046016000460060004697
S21400AA1C076000460660004610B586B0FFF76EFE6F
S21400AA2C041C011C083168460622FFF783FF211C14
S21400AA3C0E31684606300422FFF77CFF211C1231CB
S21400AA4C68460E300422FFF775FF211C1631684647
S21400AA5C0A300422FFF76EFF211C1A3168461230AA
S21400AA6C0422FFF767FFBB23E35C002B03D0022313
S21400AA7C6A46937502E001236A4693750020694680
S21400AA8C04F008FA06B010BDBFF34F8F024A034B12
S21400AA9CDA60BFF34F8FFEE70400FA0500ED00E026
S21400AAAC30B5002305E0CC182578454025700133D9
S21400AABC9BB29342F7D330BD30B5002305E0CC18DB
S21400AACC25784540257001339BB29342F7D330BDB1
S21400AADCF0B54F464646C0B4FDB0061C8946141C5D
S21400AAECFFF70CFE80466D46EF35FF35301C0B210C
S21400AAFC2A1C03F003FE6279A7793F0217432A88C3
S21400AB0C97425AD16B460A330093301C3EA9062254
S21400AB1C03AB03F0E9FC63785AB2002A08DA7F200C
S21400AB2C18406B46EF33FF331A883EA9FFF7C4FF75
S21400AB3C414608313EA8062206F0EEF900283CD124
S21400AB4C19235B4263710023A3715523237141467D
S21400AB5C083104A8062206F0EEF96846163041467F
S21400AB6CE12206F0E8F963785AB2002A05DA7F206B
S21400AB7C184004A9E722FFF793FF40A8211C0722E0
S21400AB8C06F0D9F968460830FF3004A9E72206F02B
S21400AB9CD2F9A378002B04D14846FF21042206F0F4
S21400ABACD3F949460A794B791B0213430093301CA0
S21400ABBC40A9EE224B4603F0AFFB7DB00CBC904692
S21400ABCC9946F0BDF0B557464E464546E0B4A4B09F
S21400ABDC061C8946141CFFF791FD80466D468E3583
S21400ABEC301C0B212A1C03F089FD6279A7793F02E1
S21400ABFC17432A88974200D0FEE0E3785F33DAB238
S21400AC0C042A00D9F8E093007E4AD3589F466B4638
S21400AC1C3E330093301C02A9072210AB03F064FCF1
S21400AC2C63785AB2002A07DA7F2018406B468E33B8
S21400AC3C1A8802A9FFF740FF4146023102A80322F8
S21400AC4C06F06AF9002800D193E0D5E06B463E3357
S21400AC5C0093301C02A90C2210AB03F045FC637861
S21400AC6C5AB2002A07DA7F2018406B468E331A88B1
S21400AC7C02A9FFF721FF02AB1A784046037A9A42E4
S21400AC8C00D9B9E002AA5178427A914200D9B3E0D1
S21400AC9C02A988784546A97A884200D9ACE002A871
S21400ACACC5784746F87A854200D9A5E002AD2D79DD
S21400ACBCAC463D7BAC4500D99EE002AF7F79BC46E6
S21400ACCC47467F7BBA46BC4500D995E002AFBF79B4
S21400ACDCBB4200D990E002ABDB799A4200D98BE0FC
S21400ACEC02AB1B7A994200D986E002AB5B7A98429B
S21400ACFC00D981E002AB9B7A9D427DD802ABDB7A11
S21400AD0C9A4536D978E06B463E330093301C02A940
S21400AD1C212210AB03F0E8FB63785AB2002A07DA5C
S21400AD2C7F2018406B468E331A8802A9FFF7C4FEA4
S21400AD3C02A806F0E4F9021C02A841469D3106F072
S21400AD4CEBF8002815D057E06B463E330093301CCA
S21400AD5C02A9342210AB03F0C7FB63785AB2002A60
S21400AD6C07DA7F2018406B468E331A8802A9FFF745
S21400AD7CA3FE0C2363710023A37155232371414654
S21400AD8C023111A8032206F0D6F841460531684672
S21400AD9C4730032206F0CFF84146083168464A3061
S21400ADAC062206F0C8F863785AB2002A05DA7F2025
S21400ADBC184011A90C22FFF773FE14A8211C0722B9
S21400ADCC06F0B9F86846573011A90C2206F0B3F80D
S21400ADDCA378002B04D14846FF21042206F0B4F8D1
S21400ADEC4846027943791B0213430093301C14A97E
S21400ADFC13224B4603F090FA24B01CBC904699469E
S21400AE0CA246F0BDA8270100F0B54F464646C0B492
S21400AE1C91B0061C8946141CFFF770FC80466D46E4
S21400AE2C3E35301C0B212A1C03F068FC6279A7798E
S21400AE3C3F0217432A8897425BD16B460A3300932E
S21400AE4C301C06A9172203AB03F04EFB63785AB2EC
S21400AE5C002A06DA7F2018406B46DA8F06A9FFF721
S21400AE6C2BFE4146083106A8062206F055F80028A7
S21400AE7C3FD168461F304146B13106F02EF9002806
S21400AE8C37D101221D4B1A70062363710023A37160
S21400AE9C552323714146083104A8062206F04BF8C8
S21400AEAC63785AB2002A05DA7F20184004A90622D5
S21400AEBCFFF7F6FD0CA8211C072206F03CF86846A6
S21400AECC373004A9062206F036F8A378002B04D1F6
S21400AEDC4846FF21042206F037F849460A794B7992
S21400AEEC1B0213430093301C0CA90D224B4603F097
S21400AEFC13FA11B00CBC90469946F0BD28020020FF
S21400AF0CF0B54F464646C0B4484CA544061C894688
S21400AF1C141CFFF7F3FB8046454D6D44301C0B218B
S21400AF2C2A1C03F0EBFB6279A7793F0217432A88A9
S21400AF3C974274D16B460A330093301C3EA9F82214
S21400AF4C03AB03F0D1FA63785AB2002A07DA7F20F3
S21400AF5C1840374B6B441A883EA9FFF7ADFD4146A7
S21400AF6C08313EA8062205F0D7FF002857D16846C0
S21400AF7CFF304146B13106F0B0F800284FD14046BC
S21400AF8C69461031FF31E122FFF7D8FC0123414618
S21400AF9C4B7100258D71CD71FFF7BCFC19235B42FC
S21400AFAC6371A571552323714146083104A8062206
S21400AFBC05F0C1FF684616304146E12205F0BBFF9E
S21400AFCC63785AB2AA4205DA7F20184004A9E72211
S21400AFDCFFF766FD7CA8211C072205F0ACFF68462F
S21400AFECF830FF3004A9E72205F0A5FFA378002B64
S21400AFFC04D14846FF21042205F0A6FF4B461A79D9
S21400B00C5B791B0213430093301C7CA9EE224B4643
S21400B01C03F082F96420FEF72DFDFFF735FDB9230A
S21400B02C9B009D440CBC90469946F0BD1CFDFFFF52
S21400B03CDE020000F0B54F464646C0B491B0061C82
S21400B04C8946141CFFF75AFB80466D463E35301C6D
S21400B05C0B212A1C03F052FB6279A7793F02174397
S21400B06C2A8897425CD16B460A330093301C06A99B
S21400B07C172203AB03F038FA63785AB2002A06DAC2
S21400B08C7F2018406B46DA8F06A9FFF715FD414660
S21400B09C083106A8062205F03FFF002840D1684676
S21400B0AC1F304146B13106F018F8002838D1062278
S21400B0BC62710023A371552323714146083104A8FD
S21400B0CC05F039FF63785AB2002A05DA7F2018405B
S21400B0DC04A90622FFF7E4FC0CA8211C072205F0A5
S21400B0EC2AFF6846373004A9062205F024FFA37809
S21400B0FC002B04D14846FF21042205F025FF4946C3
S21400B10C0A794B791B0213430093301C0CA90D22B1
S21400B11C4B4603F001F96420FEF7ACFCFFF7B4FCD9
S21400B12C11B00CBC90469946F0BDC046F0B55746DB
S21400B13C4E464546E0B4B8B0061C8946141CFFF7CC
S21400B14CDDFA8246FFF7DAFA80466D46C635301CC5
S21400B15C0B212A1C03F0D2FA6379A7793F021F430E
S21400B16C2A88974200D098E06B460E330093301C2A
S21400B17C1DA94F2204AB03F0B7F9E378D12B00D00E
S21400B18C8BE063785AB2002A07DA7F2018406B46A9
S21400B19CC6331A881DA9FFF78FFC414608311DA837
S21400B1AC062205F0B9FE002877D168467B3041466A
S21400B1BCB13105F092FF00286FD157460837162597
S21400B1CC32A8391C2A1C05F0B6FEFFF783FB381C88
S21400B1DC32A92A1C05F0AFFEFFF79CFB05A8211C24
S21400B1EC072205F0A8FE062568461B3049462A1C91
S21400B1FC05F0A1FE6846213069468B31042205F025
S21400B20C9AFE6846253069468F31022205F093FE79
S21400B21C6846273069469131322205F08CFE0020B4
S21400B22C05A94522FEF766FA65710023A37155231E
S21400B23C23714146083117A82A1C05F07CFE63785A
S21400B24C5AB2002A05DA7F20184017A92A1CFFF7E5
S21400B25C27FC19A8211C072205F06DFE68466B30EA
S21400B26C17A9062205F067FEA378002B04D14846E2
S21400B27CFF21042205F068FE49460A794B791B0229
S21400B28C13430093301C19A90D224B4603F044F8C7
S21400B29C6420FEF7EFFBFFF7F7FB38B01CBC9046BC
S21400B2AC9946A246F0BDC046F0B54F464646C0B4D9
S21400B2BC91B0061C8946141CFFF720FA80466D4692
S21400B2CC3E35301C0B212A1C03F018FA6279A7793C
S21400B2DC3F0217432A88974260D16B460A33009385
S21400B2EC301C06A9172203AB03F0FEF863785AB29B
S21400B2FC002A06DA7F2018406B46DA8F06A9FFF77D
S21400B30CDBFB4146083106A8062205F005FE0028A0
S21400B31C44D168461F304146B13105F0DEFE0028A8
S21400B32C3CD1FFF7EFF9FFF7F5FA0622627100231E
S21400B33CA371552323714146083104A805F0FBFD83
S21400B34C63785AB2002A05DA7F20184004A9062230
S21400B35CFFF7A6FB0CA8211C072205F0ECFD68469F
S21400B36C373004A9062205F0E6FDA378002B04D19D
S21400B37C4846FF21042205F0E7FD49460A794B7939
S21400B38C1B0213430093301C0CA90D224B4602F0F3
S21400B39CC3FF6420FEF76EFBFFF776FB11B00CBC08
S21400B3AC90469946F0BDC046F0B557464E464546C3
S21400B3BCE0B492B0061C8946141CFFF79FF9804631
S21400B3CC6D464635301C0B212A1C03F097F9627922
S21400B3DCA7793F0217432A8897426ED16B461233E1
S21400B3EC0093301C08A9172205AB03F07DF8637890
S21400B3FC5AB2002A07DA7F2018406B4646331A8862
S21400B40C08A9FFF759FB4146083108A8062205F0A3
S21400B41C83FD002851D1684627304146B13105F0EE
S21400B42C5CFE002849D1002527498A460EE0AF006D
S21400B43C5346FB580393181C002104F0E7FA5146B8
S21400B44C7858012104F0E2FA0135EDB2012DEED95F
S21400B45C062363710023A3715523237141460831DB
S21400B46C06A8062205F067FD63785AB2002A05DAAC
S21400B47C7F20184006A90622FFF712FB0EA8211CF7
S21400B48C072205F058FD68463F3006A9062205F04F
S21400B49C52FDA378002B04D14846FF21042205F068
S21400B4AC53FD4B461A795B791B0213430093301CF1
S21400B4BC0EA90D224B4602F02FFF12B01CBC904674
S21400B4CC9946A246F0BDC0460000002030B589B0B3
S21400B4DC051C6C461F340A21221C03F00FF9237836
S21400B4EC002B63D0222B67D107AC281C0921221C09
S21400B4FC03F004F92388062B5ED903AC06AB009345
S21400B50C281C211C072205AB02F0EEFF2378A52B86
S21400B51C52D103AB1B79AA2B4ED103ABDB780F228F
S21400B52C9343B02B18D006D8202B39D0A02B0DD097
S21400B53C102B41D12EE0D02B1AD002D8C02B11D014
S21400B54C3AE0E02B1AD0F02B1ED035E0281C05A9CB
S21400B55C03AAFFF737FB2FE0281C05A903AAFFF761
S21400B56CB7FA29E0281C05A903AAFFF7C9FC23E0B3
S21400B57C281C05A903AAFFF7D9FD1DE0281C05A960
S21400B58C03AAFFF757FD17E0281C05A903AAFFF727
S21400B59C8BFE11E0281C05A903AAFFF705FF0BE09C
S21400B5AC281C05A903AAFFF72FFC05E0281C02217E
S21400B5BC024A002302F0C4FB09B030BD9619000005
S21400B5CC10B586B0FFF79AF8041C6846063002F0F1
S21400B5DC4DFB68460E3002F055FB68460A3002F00A
S21400B5EC5DFB6846123002F065FB211C083168468C
S21400B5FC0622FFF79FF9201C0E30694606310422FE
S21400B60CFFF79CF9201C123069460E310422FFF716
S21400B61C95F9201C163069460A310422FFF78EF97C
S21400B62C201C1A30694612310422FFF787F9BB2317
S21400B63CE35C002B03D002236A46937502E00123D9
S21400B64C6A4693750020694603F024FC06B010BDCC
S21400B65C7047C046F0B557464E464546E0B484B0F3
S21400B66CFFF74CF8071C04F0DFFD04F097FDFA21F9
S21400B67C890004F0EDFD0138944B98420DD8944B9C
S21400B68C5860944A106A0002000AC0210906014359
S21400B69C116200229A6007221A6004F07FFD8E4920
S21400B6AC04F0D6FD8D4B1860E120400204F0B0FC8F
S21400B6BC012004F0B9FC0020FDF798FF0120FDF7EF
S21400B6CC95FF0220FDF792FF0020FDF7BDFF01203D
S21400B6DCFDF7BAFF0220FDF7B7FFFDF7D3FFFDF726
S21400B6ECE5FF01227E4B1A70FFF7F4F8FEF770F9AF
S21400B6FCFEF792F901AC00230193A3800820211CCD
S21400B70C03F034FA774805F0A3FC7748211C05F0C3
S21400B71C23FC764805F09CFC04F046FD011C74489E
S21400B72C05F01AFC04F03AFD011C724805F014FCF6
S21400B73C7148E12105F010FC8620C0058021090225
S21400B74C8022D20104F094F8012801D16B4900E064
S21400B75C6B496C4805F000FC04F0BAF8012801D1DE
S21400B76C694900E069496A4805F0F6FBFFF72AF9D3
S21400B77C0320684902F0B4F96749081C674A01F0CF
S21400B78C8FFCBB23FB5C002B14D0654805F060FCDB
S21400B79C002402F0BDF804280ED0002801D1013494
S21400B7ACE4B2032C02D9FFF737F905E00220FFF7C5
S21400B7BC8DFEEEE7FFF730F9FFF7C4F80420554985
S21400B7CC01F03AFBBC23FB5C002B1FD003A8391CF2
S21400B7DC1A31042205F0AFFB00243E1CBD363D1C7E
S21400B7EC643503A8311C2A1C01F036FB01280DD049
S21400B7FC0134E4B2032C09D80220FFF767FEBB2302
S21400B80CFB5C002BEDD002F083F8EAE7FDF7CEFAEE
S21400B81C00200021FDF70EFB6E23FB5C012B01D1F3
S21400B82CFDF774FBFDF7B0FCFDF7CEFD00260025FA
S21400B83C0024032290463B4B99469A46201CFDF763
S21400B84CCDFB0134E4B200234246A2425B415B428C
S21400B85C1C40281CFDF7D8FC0135EDB20023012254
S21400B86CAA425B415B421D40301CFDF7EFFD0136E2
S21400B87CF6B200230122B2425B415B421E4000201E
S21400B88CFDF7FAF90220FFF721FEBB23FB5C012B28
S21400B89C01D102F03DF8BC23FB5C012BCED14A460D
S21400B8AC1378012BCAD103A8391C1A31042205F0CF
S21400B8BC42FB3A1C643203A8391CBD3101F0CCFAA9
S21400B8CC0128BBD1002352461370B7E7FFFFFF00D9
S21400B8DC10E000E000ED00E010270000002000461D
S21400B8EC29020020D4270100042801001428010096
S21400B8FC44280100602801007C280100BC270100B8
S21400B90CC4270100A4280100CC270100D027010081
S21400B91CBC28010044070020CDB500005DB6000031
S21400B92CD02801003C000020044B1B68002B03D0E1
S21400B93C024B1A68013A1A607047C0462C02002067
S21400B94C08B5031C0A1C0248191C05F005FBFEE78B
S21400B95CE428010010B5041C04F082FB201C10BD6A
S21400B96C70B50E1C151C002403E0305DFFF7F2FFCB
S21400B97C0134A542F9D8281C70BDC0467047C04695
S21400B98C08B5024805F064FBFEE7C0461429010022
S21400B99C7047C0467047C04608B5FFF7C5FF08BDE0
S21400B9AC7047C0467047C0467047C0467047C04692
S21400B9BC7047C0467047C0467047C0467047C04682
S21400B9CC7047C0467047C04608B5FDF7ABFE08BDCD
S21400B9DC08B5FDF745FF08BD7047C0467047C04622
S21400B9EC08B50020FDF75AFD08BDC04608B5012075
S21400B9FCFDF754FD08BDC0467047C0467047C046AC
S21400BA0C7047C0467047C0467047C0467047C04631
S21400BA1C7047C0467047C04608B500F005F8C046EB
S21400BA2C08B504F001FC08BDBFF34F8F024A034B68
S21400BA3CDA60BFF34F8FFEE70400FA0500ED00E076
S21400BA4C08B50D4B1B68002B02D10C4A0A4B1A602A
S21400BA5C094B1B680330032290431818084A90427F
S21400BA6C06D905F053FA0C2303600120404202E08D
S21400BA7C014A1060181C08BD300200206C1700200C
S21400BA8C0037002001230360014B0B607047C04653
S21400BA9C4000002008B505F039FA58230360012051
S21400BAAC404208BD08B505F031FA58230360012062
S21400BABC404208BD08B505F029FA5823036000205B
S21400BACC08BDC04608B505F021FA582303600120CE
S21400BADC404208BD08B505F019FA5823036001204A
S21400BAEC404208BD70B5041C037A032B03D0042B0C
S21400BAFC03D0002502E00C2500E00A25E068216949
S21400BB0C626900F05BFA02304519E37E002B0DD01B
S21400BB1C606AA16AE26A00F051FA861C206B616BBF
S21400BB2CA26B00F04BFA36180236AD19236C002BBC
S21400BB3C02D1A36C002B06D0206C616CA26C00F0BA
S21400BB4C3DFA02302D18E36C002B02D1636D002BEE
S21400BB5C06D0E06C216D626D00F030FA02302D18C4
S21400BB6C281C70BDF0B583B0061C0F1C141C01906D
S21400BB7C101CFFF7B7FF051C00F08AF9B84277DCFB
S21400BB8C01A8102100F0B4F9019F381C291C00F004
S21400BB9C3DF93F180197237A042B08D101A83649A2
S21400BBAC00F0BEF901A8042100F0A2F907E001A8F4
S21400BBBC324900F0B5F901A8032100F099F9A57EE9
S21400BBCC01221540E37E591E8B41DBB21A409200CF
S21400BBDC6D001543002B0BD03D23E35C03221A406B
S21400BBECD2003C23E35C01210B405B0115431D4353
S21400BBFC236C002B02D1A36C002B01D080231D4399
S21400BC0CE36C002B02D1636D002B01D040231D4347
S21400BC1C69B201A800F06CF9218B01A800F06EF94E
S21400BC2C01A8E1682269636900F08EF9E37E002BB7
S21400BC3C0BD001A8616AA26AE36A00F085F901A834
S21400BC4C216B626BA36B00F07FF92B0605D501A860
S21400BC5C216C626CA36C00F077F96B0605D501A815
S21400BC6CE16C226D636D00F06FF9019B981B01E08F
S21400BC7C0220404203B0F0BD3029010038290100F3
S21400BC8C70B582B0051C0C1C019201A800F02AF9B4
S21400BC9C03061B0F0020022B14D1019E301C694694
S21400BCAC00F00AF936180196009B012B0ADD01A854
S21400BCBC00F018F90006C00F287001A800F012F961
S21400BCCC2070012002B070BD30B583B0041C01900A
S21400BCDC01290EDD0F210A40110149B201A800F01E
S21400BCEC07F9019D281C002100F090F82818001B6D
S21400BCFC01E00220404203B030BDC04608B50E221B
S21400BD0CFFF7E2FF08BDC04608B50C22FFF7DCFFC4
S21400BD1C08BDC046F0B557464E464546E0B482B020
S21400BD2C81460F1C90469A460D9A0192002300936A
S21400BD3C01A800F0D7F8C4B226090025032E2DD191
S21400BD4C2307DB0F4A46137063079B0F3B60E40721
S21400BD5CE40F43461C70019C201C694600F0ACF8AE
S21400BD6C051C24180194009AA4180A9801A9221CF0
S21400BD7C00F008F9002811D0019AA31A0ED43B68DB
S21400BD8C002B04DD01A800F0A3F853461880019B95
S21400BD9CE41A0C9A14600B9A13600125281C02B046
S21400BDAC1CBC90469946A246F0BDC04670B582B003
S21400BDBC041C0D1C161C019301A800F093F8C3B2CA
S21400BDCC1A07D20F2A701B092370019C201C694687
S21400BDDC00F072F824180194009B012B04DD01A8D6
S21400BDEC00F076F83080012002B070BD30B500232C
S21400BDFC054C05E02268551C25601278027001334C
S21400BE0C8B42F7DB081C30BD38020020F0B5051C51
S21400BE1C00227F2680277F4200E0021CCB175B0E99
S21400BE2CC918341C0C40E31ADBB2C911002901DD19
S21400BE3C3B43DBB2501CAB540029EEDCF0BDC046D5
S21400BE4CF0B54F464646C0B483B080460F1C002360
S21400BE5C0B60002401256E4607367F218946013487
S21400BE6C042C0FDC301C0121C04701280AD1337882
S21400BE7C4A461A406A4339688A183A60ED015BB242
S21400BE8C002BECDB201C03B00CBC90469946F0BD96
S21400BE9C031C421C02307F2A08DD0549D81C8A4246
S21400BEAC04DD581D03498A4200DC181D7047C04645
S21400BEBCFF3F0000FEFF1F0008B5034B1860034849
S21400BECCFFF7BEFF08BDC04638020020F9BD0000D3
S21400BEDC021C036818780002597840180233136065
S21400BEEC7047C04603681A780133036050B2704737
S21400BEFC03681970036801330360704710B5CA17DE
S21400BF0C120E51180B120468237003685C1C046034
S21400BF1CFF2421408A1A5A7003680133036010BD4F
S21400BF2C70B5041C0E1C081C05F0E9F8051C201C3A
S21400BF3C291CFFF7E3FF2068311C2A1C04F0FBFFCA
S21400BF4C23685D19256070BD30B585B0051C019160
S21400BF5C0393141E0BDD111CFFF7D0FF2868039902
S21400BF6C221C04F0E8FF2B681C192C6008E00199D1
S21400BF7C002902D0FFF7D4FF02E00021FFF7BEFF36
S21400BF8C05B030BD70B5051C0C1C161C0A68B31A1F
S21400BF9C012B0FDD081CFFF79BFF031C6860226853
S21400BFAC11180020B14206D8AA602268D318236064
S21400BFBC012000E0002000232B6070BD00B585B08A
S21400BFCC0291002802D005F09AF800E0029805B01D
S21400BFDC00BDC04670B50E1C0468002C04D0201C96
S21400BFEC05F08DF8051C01E084684568301C05F0EA
S21400BFFC86F80023854206D1201C311C2A1C05F02D
S21400C00C85F843424341181C70BDC04610B584B039
S21400C01C041C081C111C1A1CFFF7D0FF0230069BD0
S21400C02CC018002C00DD023004B010BDF0B55F4621
S21400C03C56464D46E0B484B0061C8B4692461D1CF4
S21400C04C0CAB1C780DAB1B8899460390129A009289
S21400C05C281C0E990F9A109BFFF7D8FF071CFFF7AA
S21400C06C17FF58452DDC012350461840C00003220C
S21400C07C2A4052003021014311431A1C2240994396
S21400C08C114303A8FFF734FF039C201C391CFFF751
S21400C09CBDFE2018039003A80E990F9A109BFFF76D
S21400C0AC53FF002D03DD03A84946FFF727FF03982F
S21400C0BC1199129A04F03FFF039B129A9C18A01B2E
S21400C0CC01E00220404204B01CBC91469A46A346AE
S21400C0DCF0BDC04670B582B0041C06A80688019454
S21400C0EC03291DDD0F21114001200340DB0009014F
S21400C0FC063A5042424152001943114349B201A834
S21400C10CFFF7F6FE019D281C0221FFF77FFE2D1877
S21400C11C019501A8311CFFF7F1FE019B181B01E0ED
S21400C12C0220404202B070BDF8B5061C0F1C02255A
S21400C13C00240BE063001B199B00FB181868596859
S21400C14C9A68FFF73BFFC31CED180134B442F1DBD1
S21400C15C281CF8BDF0B557464E464546E0B482B0AE
S21400C16C80460F1C924699460A9D0B9E0190281CF1
S21400C17C311CFFF7D9FF041CFFF78AFEB8422FDCF0
S21400C18C012152461140C90080231943022319434A
S21400C19C49B201A8FFF7ACFE019F381C211CFFF723
S21400C1AC35FE3F18019701A84946FFF7A7FE002465
S21400C1BC0C9B5FB20EE063001B199B00F31801A8E2
S21400C1CC19685A689B68FFF7BFFE01A8391CFFF771
S21400C1DC8FFE0134AC42EEDB019A4346D01A01E0E6
S21400C1EC0220404202B01CBC90469946A246F0BDC6
S21400C1FCF0B5474680B482B0041C0E1C151C1F1CE0
S21400C20C089B019301A8FFF76DFE03061B0F002089
S21400C21C092B26D1019B9846181C6946FFF74CFE45
S21400C22C43461A180192009BD2189046012B18DD33
S21400C23C01A8FFF74DFE208000232B600AE02C6837
S21400C24CB4420CDC631C2B60A4003C1901A8FFF75D
S21400C25C49FE2060019B4345F1D3012001E00120FB
S21400C26C404202B004BC9046F0BDC046416002603D
S21400C27C7047C046031C0068034A904201D0013048
S21400C28C00E0012018607047FFFF0000F0B557462D
S21400C29C4E464546E0B482B081460F1C90460023BD
S21400C2AC0B60002401256E4607367F218A46013432
S21400C2BC042C14DC4B46186D41688C46311C01224C
S21400C2CC4346E04701280AD1337852461A406A435F
S21400C2DC39688A183A60ED015BB2002BE7DB201C4C
S21400C2EC02B01CBC90469946A246F0BD70B58B6851
S21400C2FC496859184E1E1EE01C782F2C01D12F2A87
S21400C30C1ED12B2A05D0232A03D055B264B2A542DF
S21400C31C16D12B2A0AD15A1C01E001335A1C8A4228
S21400C32C07D2127852B22F2AF7D102E0232A00D174
S21400C33C331C013001330278002A01D08B42DBD348
S21400C34C00208B4201D15042504140B270BDC046D5
S21400C35CF0B557464E464546E0B4071C0E1C9046B4
S21400C36C002410E03D6DAB6899463B691B199A4654
S21400C37C404600F075FB031C281C5146321CC8476F
S21400C38C002807DB2418B44204DA404600F04EFBC3
S21400C39C0028E7D0B44206D1381C5430B96900F0F6
S21400C3AC55FB002001E0012040421CBC90469946FB
S21400C3BCA246F0BDF0B54F464646C0B483B0041C4A
S21400C3CC0D1C00230193066D776843699846081C7C
S21400C3DC00F046FB031C301C41460122B8470128DE
S21400C3EC25D1281C00F03CFB021C201C01A9FFF7E1
S21400C3FC4DFF606901300199FFF708FD0130019E81
S21400C40C002E10DD276D7B68984663691B189946CD
S21400C41C281C00F025FB031C381C4946321CC04760
S21400C42C019B984206D163691878000904E0012044
S21400C43C404201E00120404203B00CBC90469946B5
S21400C44CF0BDC04638B501650021002504E00C1D82
S21400C45CE4000419656001310429F8DD42600361CB
S21400C46C049B8360059B4361069BC36000230362A9
S21400C47C0377C36401230360543000F0D3FA38BD4D
S21400C48CF0B54F464646C0B483B0051C0E1C90460D
S21400C49C01277F420024A14626E0231DDB00EB1873
S21400C4AC596800291FD0301CFFF794FD002808D1CE
S21400C4BC231DDB00EB185868311CFFF717FF00280C
S21400C4CC11D0231DDB00EB189B68002B0BD06846A5
S21400C4DC311C4246FFF7CAFE231DDB00EB189B6897
S21400C4EC684698474F460134042CD6DD7B1C0BD18E
S21400C4FCEB6C002B08D06846311C4246FFF7B6FEA4
S21400C50CEB6C684698470027381C03B00CBC90466A
S21400C51C9946F0BD10B582B0041C0020A369002B10
S21400C52C27D0201C543000F081FA00281CD0237F22
S21400C53C002B1CD1684600F075FA6846FA21890073
S21400C54C00F07CFA2069A168FFF7DEFB011E08DD0F
S21400C55C201C6A46FFF7FCFE00280AD1012323772D
S21400C56C07E00120404204E00120404201E00120A7
S21400C57C404202B010BDC046F0B58FB0051C0F1C73
S21400C58CFFF718FF0404240C052C4DD00D2C72D08C
S21400C59C0026032C73D107AB00930CAB01930DABA9
S21400C5AC02936B690393EB68049368462A3006A9DA
S21400C5BC6A4629320BABFFF7ADFB0026012861D18A
S21400C5CC0AAE069B3370281C07A9321CFFF758FFCF
S21400C5DC3378002B26D0012B0AD10AAB9B8800930C
S21400C5EC2869A96804220023FFF774FD011C0CE0DF
S21400C5FC0021022B09D10AAB9B8800932869A968F5
S21400C60C05220023FFF766FD011C002905DD281C0A
S21400C61C3A1CFFF79DFE061C01E001267642731CB1
S21400C62C2DD12FE000262AE0EB68009307A806A978
S21400C63C0AAA6B69FFF7BAFB012811D10AAB1B8853
S21400C64C00932869A96806220023FFF743FD011E04
S21400C65C09DD281C3A1CFFF77BFE061E06D107E0F8
S21400C66C0126764204E00126764201E00126764257
S21400C67C731C04D106E000232B770026FFE7281C4A
S21400C68CFFF748FF002E00D0341C201C0FB0F0BD66
S21400C69C30B583B0041C0D1C684600F0C3F9684620
S21400C6AC291C00F0CBF9201C6946FFF765FF01300A
S21400C6BC06D0684600F0BAF90028F4D0002001E055
S21400C6CC0120404203B030BDF8B5071C0E1C151CEB
S21400C6DC01246442281C00F0A9F9002806D1381C55
S21400C6EC291CFFF749FF041EB442F3D1201CF8BDE9
S21400C6FC30B59BB0041C0D1C02A82649582204F029
S21400C70C1AFC236A002B37D118A800F08BF918A84E
S21400C71C616800F093F9002D00D102AD298BA16160
S21400C72C201C543000F092F92069A1682A1CFFF7EF
S21400C73C19FA011E23DD201C18AAFFF709FE002893
S21400C74C22D1201C022118AAFFF7BEFF022819D1FD
S21400C75C69460631FF230B706846073000230370CA
S21400C76C6269E368FFF78CFA012802D16B46987968
S21400C77C0AE00120404207E00120404204E001208C
S21400C78C404201E001204042002801D101232362EF
S21400C79C1BB030BD40290100F0B54F464646C0B42C
S21400C7AC8DB0041C0E1C151C1F1C00200890099034
S21400C7BC0791236A002B51D00AA800F033F90AA877
S21400C7CC616800F03BF923699946A3689846201CDB
S21400C7DCFFF750FD83B20122009207AA0192029540
S21400C7EC484641460022FFF7B5FC011E39DD201CE9
S21400C7FC0AAAFFF7ADFD051E38D1201C09210AAA8E
S21400C80CFFF762FF09282FD10023059301235B4213
S21400C81C069363690093E36801936846123001211E
S21400C82C05AA06ABFFF7E4FC291C012800D10699E3
S21400C83C002280290ED10FE0131DDB00E3185B6885
S21400C84C002B06D10432D200A4186660A760291CFF
S21400C85C02E00132042AEFDD0D1C07E001256D42D3
S21400C86C04E001256D4201E001256D42281C0DB047
S21400C87C0CBC90469946F0BDF0B5474680B48EB0D9
S21400C88C051C141C00230A930B930991006A0028BC
S21400C89C59D00CA800F0C6F80CA8696800F0CEF8C1
S21400C8AC2378013B012B03D8281CFFF7E3FCA08060
S21400C8BC23786178A2880091019209A902AAC1C9BD
S21400C8CCC1C2A1680591E26806922869A96800228F
S21400C8DCFFF7ACFB011E39DD281C0CAAFFF738FD50
S21400C8EC061E3BD12378012B15D1281C04210CAA3B
S21400C8FCFFF7EAFE04282CD1EB6800936B696846B8
S21400C90C213008A96A462232FFF750FA012825D0B2
S21400C91C0126764222E0022B20D1281C07210CAAE5
S21400C92CFFF7D2FE072817D1EF6800976B696846A9
S21400C93C213008A96A462232FFF738FA01280DD0B2
S21400C94C012676420AE00126764207E00126764268
S21400C95C04E00126764201E001267642301C0EB039
S21400C96C04BC9046F0BDC04610B582B0041C6846A8
S21400C97C00F058F86846616800F060F82069A16815
S21400C98CFFF7BCF9011E04DD201C6A46FFF7E0FC2D
S21400C99C01E0012040420023236202B010BDC046D5
S21400C9AC70B5041C0E1C151C02689004094BC018AC
S21400C9BC03F060FB17280CD120688304064A9B18EA
S21400C9CC1B689BB2002B04D0311C2A1C01F016FCF1
S21400C9DCFFE770BD300001462402014670B5041C0A
S21400C9EC0E1C151C03689804064BC01803F042FB7B
S21400C9FC172805D12068311C2A1C01F049FBFFE7DB
S21400CA0C70BDC0463000014608B5006801F0F2FA69
S21400CA1C08BDC046024B1A6801321A607047C04601
S21400CA2C48170020002343607047C0464068024BFE
S21400CA3C1B68C01AC00F704748170020024B1B68B3
S21400CA4CC91841607047C04648170020FA239B005F
S21400CA5C5943024B1B68C9184160704748170020A1
S21400CA6C4068034B1B68C01AC343DB17184070475B
S21400CA7C481700200160034B4360034B8360034B55
S21400CA8CC3607047ADC90000E9C9000015CA0000B4
S21400CA9C10B50C1C131C00680121221C01F050F967
S21400CAAC10BDC04608B5006801F012FA08BDC046B5
S21400CABC03781B024078C01880B270470B0A0370CC
S21400CACC417002307047C046F0B55F4656464D463C
S21400CADC4446F0B485B003900020804600263F24E0
S21400CAECA1462E25AA464F1C02970C780194754237
S21400CAFC7541AC466044271C4D46AF43C02F0DD144
S21400CB0C64460019019D4F463D402D024978691830
S21400CB1C039C61184D1C02950C780126002C18D02D
S21400CB2C1B1B013B1BB2002B1CDB002E00D100197B
S21400CB3C029904E00C7814702C1C01310132651E2D
S21400CB4CADB2002CF6D1574617700124A044013222
S21400CB5CC9E74546002D02D12E231370013200235F
S21400CB6C137001E00120404205B03CBC904699464B
S21400CB7CA246AB46F0BDC04610B594B00C1C01AA3C
S21400CB8C4B23FFF7A1FF431C02D02018043000E013
S21400CB9C002014B010BDC046F0B595B0061C0C1C99
S21400CBAC171C01AA4B23FFF78FFF431C48D02418F1
S21400CBBC201CFFF77DFF251C0A350F283ED8830066
S21400CBCC254AD3589F46A37A3B70E37A7B70237B27
S21400CBDCBB70251C0E35637BFB702FE0301C291CAC
S21400CBEC01AA4B23FFF770FF431C2BD02D1825E012
S21400CBFC221C0B32A37AD3185D1C1B78ED181DE093
S21400CC0C0C34301C211C01AA4B23FFF75DFF431C80
S21400CC1C1AD0251812E0301C291C01AA4B23FFF74A
S21400CC2C53FF431C12D02D18301C291C01AA4B2371
S21400CC3CFFF74AFF431C0BD02D181435281C08E0B0
S21400CC4C002006E0002004E0002002E0002000E0C7
S21400CC5C002015B0F0BDC04698290100F8B5041C9C
S21400CC6C0E1C171C0021122204F06EF9301CFFF764
S21400CC7C1FFF2080B01CFFF71BFF030401D5012308
S21400CC8CA37043041B0FE370430501D501232371E6
S21400CC9C830501D501236371C30501D50123A37157
S21400CCAC030601D50123E3710F2318402072301DB3
S21400CCBCFFF7FEFE6081B01DFFF7FAFEA081301C68
S21400CCCC0830FFF7F5FEE081301C0A30FFF7F0FE67
S21400CCDC2082311C0C31002506E0301CFFF74CFF7F
S21400CCEC011E23D00135ADB26389AB42F5D80025C1
S21400CCFC07E0301C3A1CFFF74FFF011E18D0013519
S21400CD0CADB2A389AB42F4D8002301E001339BB249
S21400CD1CE2899A42FAD8002301E001339BB2228AB8
S21400CD2C9A42FAD8207A4342584102E0FF2000E0AB
S21400CD3CFF2040B2F8BDC046F0B557464E464546B5
S21400CD4CE0B494B0051C0C1C92462D4A1388013393
S21400CD5C99B211805046FFF7B1FEED0280214900D2
S21400CD6C294389B2FFF7AAFE0121FFF7A7FE00218F
S21400CD7CFFF7A4FE0021FFF7A1FE0021FFF79EFEA1
S21400CD8C071C01A8211C04F0B2F901A804F0B7F99D
S21400CD9C80B2814601AD281C2E2104F092F9061EA5
S21400CDAC02D0441BA4B200E04C467B1C98463C7058
S21400CDBC002C15D0181C291C221C04F0BDF9434667
S21400CDCC1F19002E04D17B1C984600233B7007E0ED
S21400CDDC631CED184B461C1B013CA4B2A146DAE7BB
S21400CDEC40460121FFF76AFE0121FFF767FE534616
S21400CDFCC01A00B214B01CBC90469946A246F0BDB0
S21400CE0C581700200A4B1B680120022B0ED9002253
S21400CE1C074B1A60074B1B78012B03D9054B1A706E
S21400CE2CFF2003E00133034A1370002040B2704722
S21400CE3C501700203C020020034B1870034B19605F
S21400CE4C034A044B1A8070474C17002054170020D6
S21400CE5C2211000058170020F0B5474680B48AB05F
S21400CE6C071C0E1C9046284D287802210022002311
S21400CE7C00F066FF254C0020311C226880235B00E6
S21400CE8CFFF75AFF82B228782168352300933B1CA3
S21400CE9C01F042FA1C4E307881041D4BC9180C6800
S21400CEACA4B2002C19D080235B009C4200D91C1C19
S21400CEBC164E31686B460E330093221C04AB01F001
S21400CECC13FB316805A84246FFF7C8FE041C0E4B40
S21400CEDC187800F0FBFE201C10E0FFF793FF0028EC
S21400CEEC0BDBD8D1084B1878084B19683523009300
S21400CEFC221C3B1C01F010FACDE7002040B20AB011
S21400CF0C04BC9046F0BDC0464C17002054170020B9
S21400CF1C24020146024B1A6801321A607047C0465A
S21400CF2C5017002010B51A4C21781A4803F0A6F8B2
S21400CF3C6178194803F0A2F8A178184803F09EF817
S21400CF4CE178174803F09AF8164C2178164803F047
S21400CF5C95F86178154803F091F8A178144803F019
S21400CF6C8DF8E178134803F089F8134C21781348B0
S21400CF7C03F084F86178124803F080F8A178114821
S21400CF8C03F07CF8E178104803F078F810BDC04642
S21400CF9C50020020136000461260004611600046E6
S21400CFAC10600046400200200F6000460E600046EF
S21400CFBC0D6000460C6000464C0200200B600046DC
S21400CFCC0A600046096000460860004610B5124C20
S21400CFDC201C802103F052F8201C03F04BF8FFF7BE
S21400CFECA1FF0E4C21780E4803F048F861780D48E6
S21400CFFC03F044F8A1780C4803F040F8E1780B48AD
S21400D00C03F03CF821790A4803F038F861790948AE
S21400D01C03F034F810BDC04600230046540200202E
S21400D02C0360004602600046016000460060004651
S21400D03C076000460660004610B5114C201C802187
S21400D04C03F01CF8201C03F015F80E4C21780E4843
S21400D05C03F014F861780D4803F010F8A1780C482A
S21400D06C03F00CF8E1780B4803F008F821790A482D
S21400D07C03F004F86179094803F000F810BDC046C7
S21400D08C002300465402002003600046026000465F
S21400D09C01600046006000460760004606600046D9
S21400D0AC10B50B4C0B4B1C600B4C0C4B1C600C4CFF
S21400D0BC0C4B1C60002801D0064B1860002901D0D0
S21400D0CC064B1960002A01D0064B1A6010BDC046EC
S21400D0DC31CF000050000020D9CF00004C000020BB
S21400D0EC45D000005400002010B5324A01231168C8
S21400D0FC0B7011684B70062311688B700020002390
S21400D10C1168C87011682C4A1268140E0C71140C35
S21400D11C4C71140A8C71CA71088180228A720022A2
S21400D12CCA720B734B738B73CB730B744B748B74FD
S21400D13CCB740B754B758B75CB750B764B768B76DC
S21400D14CCB761E4B1A780A775A784A779A788A776B
S21400D15CDA78CA771879202288545A792123CA5447
S21400D16C0623002003E0CA1810770133DBB20F2B1E
S21400D17CF9D90023002004E0CA18283210710133B4
S21400D18CDBB23F2BF8D90023002004E0CA18683223
S21400D19C10710133DBB25AB2002AF7DA6323EC22A1
S21400D1AC8B548220ED2288545320EE228854EF2292
S21400D1BC8B5410BD641700205C170020540200200E
S21400D1CCF0B5474680B484B0FFF78EFF524B196813
S21400D1DC3522F023CA540123F1228B54F2228B54AD
S21400D1EC3D20F32288540720F4228854F5228B54D1
S21400D1FC4A4B1878F62288545878F7228854987830
S21400D20CF8228854D8788046F92288541A7994469D
S21400D21CFA22604688545F79FB23CF540C22FC23F9
S21400D22CCA540022FD23CA54122200233C4D2E1C45
S21400D23C07E0501CF45C8A18E832147101339BB278
S21400D24C82B2E85C0028F4D1551CADB28A18E832DC
S21400D25C40461071681C80B24D19E83562462A713A
S21400D26C421C92B20818E8300771D41A0C19E43430
S21400D27C03332371531C9BB28A18E8323720107183
S21400D28C581C80B2CB18E83306221A71431C9BB28A
S21400D29C0818E83001240471581C80B2CB18E83307
S21400D2AC03241C71431C9BB20818E83002715A1CEC
S21400D2BC92B2CB18E8330F201871531C9BB28A1805
S21400D2CCE8323A2010715A1C92B2CB18E8333B2045
S21400D2DC1871531C9BB28A18E832FF201071382044
S21400D2ECFF30002404E0CA18E832147101339BB2F4
S21400D2FC8342F8D903ABFF221A705A709A70DA7010
S21400D30C084A1078432200928922920001F004F811
S21400D31C04B004BC9046F0BD6417002054020020F4
S21400D32C5C00002068170020F0B585B0FFF7DCFE27
S21400D33C7F4B1B78033B012B18D87E4B1B680022B7
S21400D34C9A72DA727C4A11781973517859739178FB
S21400D35C9973D278DA73794A117803AB19705178CD
S21400D36C597091789970D278DA7005E003ABFF2289
S21400D37C1A705A709A70DA706E4B19683522F02350
S21400D38CCA540123F1228B540320F22288543D20E8
S21400D39CF32288540720F4228854F5228B54684BC9
S21400D3AC1878F62288545878F72288549878F822F9
S21400D3BC8854D8788446F92288541F79FA228F54D8
S21400D3CC5E79FB23CE5403ABDA781023FF2A2DD1DB
S21400D3DC3222FC23CA540422FD23CA54564B1C7812
S21400D3ECFE200C545C78FF200C549C788020400067
S21400D3FC0C54D8780223FF33C854362081235B00A4
S21400D40CC8540423FF33CA544C4B1878822252005B
S21400D41C885458780622FF32885498788322520013
S21400D42C8854DA780823FF33CA541C23CA18E83207
S21400D43C0C2010719A1CCB18E933002018710023AD
S21400D44C404D05E0541C8A18E83210710133A2B224
S21400D45CE85C0028F6D1541CA4B28A18E832604660
S21400D46C1071601C80B20C19E8342771421C92B201
S21400D47C0818E8300671D01A0818E4300333037124
S21400D48C531C9BB28A18E832372010715A1C92B281
S21400D49CCB18E83308201871531C9BB28A18E83254
S21400D4AC012010715A1C92B2CB18E8330320187165
S21400D4BC531C9BB28A18E832062010715A1C92B282
S21400D4CCCB18E8330F201871531C9BB28A18E8321D
S21400D4DC3A2010715A1C92B2CB18E8333B201871C4
S21400D4EC531C9BB28A18E8321F2010715A1C92B239
S21400D4FCCB18E83321201871531C8A18E832FF2009
S21400D50C10719BB23820FF30002403E0CA18E832B2
S21400D51C147101338342F9DD0B4B187843230093C7
S21400D52C8922920003AB00F0F7FE05B0F0BDC046B2
S21400D53C3D020020641700205002002060170020D7
S21400D54C540200205C0000206817002030B585B01F
S21400D55CFFF7CAFD394B196800238B72CB72352244
S21400D56CF023CA540123F1228B540422F2200A54CD
S21400D57C3D24F3200C540724F4200C54F5200B54B3
S21400D58C2F4B1C78F6200C545C78F7200C549C78A7
S21400D59CF8200C54DC78F9200C541C79FA200C5426
S21400D5AC5879FB23C8543220FC23C854FD23CA5494
S21400D5BC244B1C78FE200C545C78FF200C549D7871
S21400D5CC802464000D55DC780223FF33CC543624BB
S21400D5DC81235B00CC540423FF33CA541A4B1C78AB
S21400D5EC822252008C545C780622FF328C549C7833
S21400D5FC832252008C54DA780823FF33CA548423CF
S21400D60C5B00C8541D233820FF30002403E0CA18E2
S21400D61CE832147101338342F9DD03ABFF221A7032
S21400D62C5A709A70DA70094A10784322009289224E
S21400D63C920000F071FE05B030BDC04664170020A5
S21400D64C54020020500200206017002068170020AB
S21400D65CF0B54F464646C0B487B05B4B187883048B
S21400D66C5A4A9B181A6892B20023002A00D1A5E0E9
S21400D67C574B19686D460E35009504AB00F034FF19
S21400D68C2B88432B00D098E0514B1A68147F514BD3
S21400D69C197800238C4200D090E0547F4D4B59787B
S21400D6AC00238C4200D089E0947F4A4B9978002363
S21400D6BC8C4200D082E0D47F464BD97800238C4233
S21400D6CC7CD12023D45C434B197900238C4275D132
S21400D6DC2123D45C3F4B597900238C426ED180B207
S21400D6EC111CF03112181C1C3B4F3C4E3C4B9C46FC
S21400D6FC3C4D60E00B78062B30D006D8012B14D0AE
S21400D70C002B0DD0032B1AD050E0352B0AD002D8A4
S21400D71C332B2FD04AE0362B3ED0FF2B4AD045E099
S21400D72C013148E08C78033145E08B782B70CB7850
S21400D73C6B700B79AB704B79EB7006313BE048782D
S21400D74C81468B7828480370CB7843700879264B33
S21400D75C98704879D870494402312CE048788B7818
S21400D76C3B70CB787B700B79BB704B79FB700918D0
S21400D77C023120E08B78604603601B029846CB781B
S21400D78C43441B0298460B7943441B0298464B793C
S21400D79C4344036006310EE08B783370CB7873709D
S21400D7AC0B79B3704B79F370063104E08B1C497817
S21400D7BC591800E0111C91429CD3E3B258B207B042
S21400D7CC0CBC90469946F0BD681700202402014612
S21400D7DC64170020540200205C0200206017002012
S21400D7EC58000020400200204C02002070B582B089
S21400D7FC134C201C02F03EFC061C201C032102F0DD
S21400D80C3DFC104B1878104B009310491122104B0E
S21400D81C00F082FD051C201C311C02F02FFC01239D
S21400D82C0D3509D0FFF792FE0A4B19681A1C1368BF
S21400D83C5B1A012BFBD9002358B202B070BDC04650
S21400D84C446000466817002088130000EC2901008D
S21400D85C50020020440200200023044A13600521D5
S21400D86C034A1160034A13707047C04644020020F6
S21400D87C480000206002002010B5214B1B785BB2DC
S21400D88C012B23DC1F4B1A681F4B1B6801249A4282
S21400D89C33D21E4B1B78022B06D0042B07D0012B41
S21400D8AC07D1FFF78DFC04E0FFF73EFD01E0FFF724
S21400D8BC3BFD154B00221A601A680532114B1A6094
