S011000057697A494F2D4170702E73726563F3
S214008000004000206581000031B8000035B800004F
S214008010000000000000000000000000000000005B
S21400802000000000000000000000000045B800004E
S214008030000000000000000049B800004DB8000035
S21400804055B8000059B800005DB8000061B80000DF
S21400805065B80000000000000000000069B80000DD
S2140080606DB8000071B8000075B8000079B800005F
S2140080707DB8000085B800008DB8000091B80000FB
S21400808095B80000A1B80000ADB80000B1B8000077
S214008090B5B80000B9B80000BDB80000C1B800000F
S2140080A0C5B80000C9B8000070B582B0224B234A9C
S2140080B0002101E0196004339342FBD3204B214A90
S2140080C0214903E010681860043304328B42F9D368
S2140080D003F000FC01A8694603F02EFC1B4B1C4D68
S2140080E0ED1AAD1000241E1C03E0A3009B59984710
S2140080F00134A542F9DC174B174DED1AAD100024DC
S2140081001E1C03E0A3009B5998470134A542F9DCE6
S2140081100198009903F008FA061C104B104CE41A5C
S214008120A4101D1C03E0013CA3005B599847002CDB
S214008130F9DC301C03F0CAFBF00000205C170020BE
S21400814000000020AC2D0100F00000207C81000023
S2140081507C8100007C8100007C8100007C81000026
S2140081607C810000A0E7C046FEE7C046FEE7C046AA
S210008170FEE7C046FEE7C046FEE7C0463D
S21400817C10B586B002F06AFA041C6846063005F0A4
S21400818CC9FC68460E3005F0D1FC68460A3005F08E
S21400819CD9FC6846123005F0E1FC211C0831684613
S2140081AC062202F06FFB201C0E30694606310422B4
S2140081BC02F06CFB201C123069460E31042202F0D1
S2140081CC65FB201C163069460A31042202F05EFB61
S2140081DC201C1A3069461231042202F057FBBB23CE
S2140081ECE35C002B03D002236A46937502E001235E
S2140081FC6A4693750020694606F0A0FD06B010BDD1
S21400820C7047C04670B584B0051C02F01FFA041CFB
S21400821C031C64331B7A052B3CD89B001E4AD35890
S21400822C9F461E4B1B78002B06D101221B4B1A7047
S21400823C1B48291C04F072FB194E356080231B0169
S21400824C0093184A019202931748311CFA229200A6
S21400825C164B04F04BF86434237961790902194300
S21400826C301C012204F068FB14E064342379627934
S21400827C12021A43281C0121012305F0B5FC09E063
S21400828C64342379627912021A43281C02210123D2
S21400829C05F0AAFC04B070BD30220100F0000020EE
S2140082ACA4060020340F0020B4060020340700205B
S2140082BC70B582B0061C02F0C9F9051C041C6434A7
S2140082CC01A8211C042208F01EFD237A052B2CD8AD
S2140082DC9B00174AD3589F46164B1B78002B24D16D
S2140082EC6435AB79EA7912021A43134801A904F0F3
S2140082FC2DFB01220F4B1A7017E00E4B1B78002B30
S21400830C13D16435AB79EA7912021A43301C01A9F1
S21400831C05F032FD0122074B1A7006E0301C05F002
S21400832CF1FC02E0301C05F025FC02B070BDC04626
S21400833C4822010008010020A406002010B5041CE9
S21400834C02F084F9031C64331B7A022B0CD002D87F
S21400835C002B05D00BE0032B02D0052B04D006E037
S21400836C201C05F007FC02E0201C05F003FC10BDE9
S21400837C10B5041C02F06AF9031C64331B7A052B37
S21400838C18D89B000C4AD3589F460C4804F040FA69
S21400839C011E02D00A4808F0C7FC0A4804F088FA06
S2140083AC201C05F0E7FB05E0201C05F077FD201CE3
S2140083BC05F0E0FB10BDC04660220100B4060020AC
S2140083CC3C240100A4060020F0B55F4656464D46F8
S2140083DC4446F0B4BFB0041C02F038F9061C2468FE
S2140083EC1EA80021802208F097FC6846AC4978222B
S2140083FC08F089FCAB48A168E26808F095FCA06818
S21400840CA94908F0AFFD041C00208046A74FA64DD6
S21400841C10E0381C211C08F087FC41468A001EAB75
S21400842CD45043460133DBB298460020291C08F092
S21400843C99FD041C002CECD100259D4F26E1AB00C9
S21400844C1EAA9858A100091900AA511808F070FD28
S21400845C002800D10EE1052C00D90BE1A300FB5837
S21400846C9F468923F35C012B00D003E1331C893330
S21400847CDB78002B00D0FDE01EAB4946C85808F050
S21400848C27FC002803D0002000F0E0FFF2E00020DC
S21400849C00F0ECFFEEE08923F35C012B00D0E9E062
S2140084AC331C8933DB78012B00D0E3E0331C893393
S2140084BC9A79DB791B0213439B461EAB4A46D0586F
S2140084CC824608F005FC834500D1D3E0504608F000
S2140084DCFFFB80B2892189198A468871000AC87107
S2140084EC744B1868002107F07BF952469379D179C2
S2140084FC09021943137A527A12021A43002000F02A
S21400850C73FFB7E08923F35C012B00D0B2E0331C79
S21400851C8933DB78012B00D0ACE0331C89331A7A14
S21400852C5B7A1B0213439B461EAB4846C1588A46D1
S21400853C081C08F0CDFB834500D19BE0504608F0A4
S21400854CC7FB80B28922921992461072000A5072AA
S21400855C584B1868002107F043F950468379C179C7
S21400856C09021943037A427A12021A43002000F0D9
S21400857C3BFF7FE09323F35C012B7BD1331C9333BF
S21400858CDB78002B76D11EAB4946C85808F0A0FB0A
S21400859C002803D0012000F059FF6BE0012000F00A
S2140085AC65FF67E09323F35C012B63D1331C933395
S2140085BCDB78012B5ED1331C93339A79DB791B0263
S2140085CC13439B461EAB4A46D058824608F080FBA7
S2140085DC83454FD0504608F07BFB80B29321891917
S2140085EC8A468871000AC871324A5068002107F022
S2140085FCF7F850468379C17909021943037A427A0F
S21400860C12021A43012000F0EFFE33E09323F35CD2
S21400861C012B2FD1331C9333DB78012B2AD1331C3F
S21400862C93331A7A5B7A1B0213439B461EAB49465E
S21400863CCA589246101C08F04BFB83451AD050467D
S21400864C08F046FB80B293239B199A461872000AD0
S21400865C587218494868002107F0C2F852469379B8
S21400866CD17909021943137A527A12021A4301205D
S21400867C00F0BAFE0134E4B203E000246B1C9B004D
S21400868C9946172C00D8DAE60235EDB2A845F4D890
S21400869C3FB03CBC90469946A246AB46F0BDC046A1
S2140086AC4C2301006824010098240100A02401003A
S2140086BC7822010020000020F0B55F4656464D4655
S2140086CC4446F0B499B0041C01F0C0FF814601F09A
S2140086DCBDFF071C01F0BAFF061C713601F0B6FF91
S2140086EC7D30804601F0B2FF824600230B930C933C
S2140086FC0D930E930F9310931193129307A8D549CD
S21400870C7831102208F0FFFA03A8D349083110225A
S21400871C08F0F9FAD14B1B78002B00D193E16D468B
S21400872C4F35201C0A212A1C05F03CFF2B78222BE7
S21400873C02D0172B00D086E1022000F0D7FFC848E5
S21400874C00218022D20008F0E7FA3B1CE0331B78AD
S21400875C002B39D085E06900491971180B78012B6C
S21400876C22D1584600280BD1AB0007A8C21848786F
S21400877C8B781B0203430BA8BA4908F05BFB0FE08F
S21400878CAB0007AAD3184A788978090211433A1C19
S21400879CDF32127852B200910BA8B34908F04AFBAC
S2140087AC5B460133DBB29B46AD480BA908F064FB75
S2140087BC00230B930C930D930E930F93109311931E
S2140087CC12930135EDB202E000239B460025032DE3
S2140087DCC1D90026A24D38E07100891949004144E0
S2140087EC0B78012B22D1584600280BD1B30003A8D6
S2140087FCC21848788B781B0203430BA8994908F0DB
S21400880C19FB0FE0B30003AAD3184A78897809023B
S21400881C11433A1CDF32127852B200910BA89249DF
S21400882C08F008FB5B460133DBB29B46281C0BA901
S21400883C08F022FB00230B930C930D930E930F93CF
S21400884C1093119312930136F6B2012EC4D90BA9CC
S21400885C864B1A880A809B788B70814808F00CFB34
S21400886C93E0012B00D090E00BAD7B232B807C4853
S21400887C291C08F001FB00230B936B60AB60EB60CC
S21400888C2B616B61AB61EB619B46002537E06900A1
S21400889C491971180B78012B22D1584600280BD198
S2140088ACAB0007A8C21848788B781B0203430BA8AA
S2140088BC6F4908F0BFFA0FE0AB0007AAD3184A7846
S2140088CC8978090211433A1CDF32127852B20091B1
S2140088DC0BA8684908F0AEFA5B460133DBB29B4640
S2140088EC5F480BA908F0C8FA00230B930C930D9362
S2140088FC0E930F931093119312930135EDB2032D33
S21400890CC5D90026564D38E07100891949004144F6
S21400891C0B78012B22D15B46002B0BD1B30003A89E
S21400892CC21848788B781B0203430BA8504908F0F2
S21400893C81FA0FE0B30003AAD3184A7889780902A3
S21400894C11433A1CDF32127852B200910BA84949F7
S21400895C08F070FA5B460133DBB29B46281C0BA969
S21400896C08F08AFA00230B930C930D930E930F9337
S21400897C1093119312930136F6B2012EC4D93E4BC6
S21400898C0B9337480BA908F077FA6B464F331B78D6
S21400899C222B1FD14E46643602A8311C042208F046
S2140089ACB2F92F4D281C08F092FA82B2B179F379FD
S2140089BC1B020B430093201C291C02AB05F000FC89
S2140089CC041C281C08F083FA844236D0022000F0DF
S2140089DC9DFE38E0172B30D14B4664331B7A032BA5
S2140089EC18D114AC1E48169008F071FAE0600023FB
S2140089FC23706370A370514632312048221C03F05A
S214008A0C8FFE011E19D01E4808F08EF9022000F0C9
S214008A1C7DFE18E0124D281C08F059FA82B2201C74
S214008A2C291C05F089FA041C281C08F050FA84420C
S214008A3C03D0022000F06AFE05E00022074B1A70F5
S214008A4C022000F063FE19B03CBC90469946A24644
S214008A5CAB46F0BD4C230100CC2301002C010020BA
S214008A6C98020020CC240100D424010058260100D2
S214008A7CDC240100E42401007D0D0A00B40600206D
S214008A8CF024010030B587B0051C6C4617340A215B
S214008A9C221C05F087FD2378222B02D00020172BF2
S214008AAC5BD105AC281C0921221C05F07BFD238814
S214008ABC0020002B51D0022000F018FE6B46173316
S214008ACC1B78222B25D105AB1A88063B0093281C55
S214008ADC234904AB05F05CFC041E04DC022000F009
S214008AEC15FE201C39E01E4801F004F882B2002A5C
S214008AFC2FD06B460E331B880093281C184904ABEA
S214008B0C05F05EFB041E24DC022000F0FFFD201C9A
S214008B1C23E0172B1DD105AB1A88281C104905F02D
S214008B2CC1FA041E04DC022000F0F0FD201C14E048
S214008B3C0B4800F0DFFF82B2002A0AD0281C084936
S214008B4C05F0FAF9041E04DC022000F0DFFD201C00
S214008B5C03E0022000F0DAFD012007B030BDC0466D
S214008B6C9802002070B596B0051C01F06FFD041C31
S214008B7C684658491831582208F0C5F8564B1B78E9
S214008B8C002B04D00023554A1360534A13706C23F1
S214008B9CE35C052B00D99BE09A0051498A5897460E
S214008BAC032B34D1AE044F4AB01807F04BF9C30769
S214008BBC2DD54D4AB018012107F048F904236A4612
S214008BCC1372231C9D3303937F3B10930A3313932A
S214008BDC0023D3763C2313830123937643486946BC
S214008BEC03F0DAFC011E02D0414808F09DF84B2336
S214008BFCE35C002B0BD03D48211C4B3100223D4B37
S214008C0C03F01EFD011E02D03B4808F08DF86C23C5
S214008C1CE35C032B0DD16B46198B344803F08CFCAC
S214008C2C011E02D0354808F07FF8281CFFF744FDDB
S214008C3C02E0281CFFF740FD314B1B78002B03D1BC
S214008C4C01222F4B1A7043E0022B41D100222C4BF1
S214008C5C1A7006F091FD00283AD12A4808F0E0F880
S214008C6C6C23E35C032B0BD1204803F0D1FD011ED3
S214008C7C02D0254808F058F8244803F019FE27E0DF
S214008C8C281C05F00BF9281C04F074FF20E0281CA7
S214008C9CFFF7F8FE1A4B1B78002B03D10122184B5A
S214008CAC1A7015E0022B13D10022154B1A7006F021
S214008CBC63FD00280CD1134808F0B2F8281C05F008
S214008CCCEDF8281C04F056FF02E0281C04F052FFB6
S214008CDC16B070BDCC230100080100203401002022
S214008CEC902201002000014628000146B406002010
S214008CFC18250100D58300004025010068250100D9
S214008D0C200100208C2501003C240100A406002034
S214008D1C10B5041C01F09AFC031C64331B7A052B5B
S214008D2C0ED89B00074AD3589F46201C04F022FFFF
S214008D3C06E0201CFFF7C0FC02E0201CFFF7A2FE9A
S214008D4C10BDC046A822010030B583B0041C01F04B
S214008D5C7DFC051C201C0A216A46073205F022FC05
S214008D6C2B1C64335B7A012B16D0002B02D0022B03
S214008D7C1ED029E06B4607331B78222B03D16435B3
S214008D8C02236B7226E0172B24D1643501236B72F9
S214008D9C012000F0ABFC1DE06B4607331B78172B4D
S214008DAC18D0643500236B72012000F0AFFC11E084
S214008DBC6B4607331B78222B0CD0643500236B7262
S214008DCC012000F0A3FC05E0643500236B72012043
S214008DDC00F09CFC6A46D379222B1AD89B000E4ACC
S214008DECD3589F46201CFFF70DFA12E0201CFFF705
S214008DFC5FFA0EE0201CFFF7A1FA0AE0201CFFF732
S214008E0CB1FE06E0201CFFF7B3FA02E0201CFFF7C9
S214008E1C7FFF03B030BDC046C022010000B585B050
S214008E2C019007F0A3F8074907F0FAF8019B58439E
S214008E3C039002E0039B013B0393039B002BF9D1A9
S214008E4C05B000BD1027000008B58420C005202101
S214008E5C06F098F908BDC04608B58420C005202148
S214008E6C06F0BEF908BDC04610B5041C06F08CFF13
S214008E7C201C06F09FFFC0B210BDC04610B58EB0C9
S214008E8C05A806F043FF1D23059381235B4206933A
S214008E9C41235B42079331235B42089307230993D4
S214008EAC05235B420B9310230D9307F05FF805998F
S214008EBC01310D9B594307F0B3F8011C0F4807F01E
S214008ECC33FF0F4C201C05A906F046FE201C012182
S214008EDC06F034FF01A92023019301230B71022213
S214008EEC8A600B738424E405201C06F089FA201C87
S214008EFC202106F047F90EB010BDC0469C25010097
S214008F0C00A000400122114B1A70002802D0012844
S214008F1C04D007E001220E4B1A7006E000220C4B20
S214008F2C1A7002E00022094B1A70002902D001299F
S214008F3C04D007E00422074B1A7006E00822054B03
S214008F4C1A7002E00022014B1A707047F1000020E4
S214008F5C31070020FC00002070B5031C184A11785D
S214008F6CC900014310221143CCB2164A12780020D5
S214008F7C002A24D0144A1278934220D8A608A401BA
S214008F8CE4B2FFF769FF0120FFF748FF0F4D281CDE
S214008F9C311CFFF769FF281C211CFFF765FF061C18
S214008FAC281C0021FFF760FF041C0120FFF736FF8A
S214008FBCFFF74AFF0F20064030020443A0B270BDF4
S214008FCC31070020F1000020FC00002000A000402B
S214008FDCF0B55F4656464D464446F0B483B001F0B5
S214008FEC35FB7130019000242B4D06E0201CFFF75A
S214008FFCB3FF630058530134E4B2032CF6D90123B3
S21400900C9A46254B98463DE050460138514607F0A7
S21400901C55F807F0EBFC214B18600024FE239B054B
S21400902C9B4629E065002E19019B9E194346E85A7B
S21400903C1A4B1F6807F0DAFC391C07F01DFA81463C
S21400904C5846391C07F042FB071C201CFFF784FF10
S21400905C07F0CCFC011C381C07F00EFA011C484625
S21400906C07F0A6F807F08CF880B27070030AB3709D
S21400907C4346E8520134E4B2032CD3D953460133A9
S21400908CDBB29A4653460A2BBED903B03CBC90467C
S21400909C9946A246AB46F0BDF40000200001002025
S2140090ACF8B54F464646C0B4041C2A4A2A4B1A60EA
S2140090BC01F0CCFA061C713601F0C8FA65002D19C1
S2140090CC75192B78012B3AD16E23C35C002B09D172
S2140090DC201CFFF741FF6870030AAB7064001F4B3F
S2140090ECE05233E01E4F6600F05B1B4B1B68984645
S2140090FC07F07CFC414607F0BFF98146FE20800550
S21400910C414607F0E3FA8046201CFFF725FF07F0E0
S21400911C6DFC011C404607F0AFF9011C484607F0F1
S21400912C47F807F02DF880B26870030AAB700B4B4B
S21400913CF0526A78AB781B021343F35306E0002315
S21400914C6B70AB706400054B0022E2520CBC904670
S21400915C9946F8BD3333333F0001002098060020B3
S21400916CF400002000B585B04200094BD35A00939A
S21400917C00236A46137120230293064B1B5C137361
S21400918C8000054BC058694606F03AF905B000BD9C
S21400919CBC2501001C0000200C00002030B58BB054
S2140091AC041C0D1C8200224BD0586200214BD15A55
S2140091BC214B1A5D06F042F8684606F0FFFA012DC0
S2140091CC06D1022300930A2304931C4B059320E03C
S2140091DC022D06D1012300930A230493174B059303
S2140091EC17E0012501952F230393052304930123F0
S2140091FC5B420593A300124A98580721012206F0F9
S21400920CBBFB63000F4A9B5A1F2213409D400E4B1C
S21400921C1D60012301930A4DA4006059694606F0AF
S21400922CB7FA6059012106F0DBFA0BB030BDC04628
S21400923C0C000020C425010008000020FFFF0000E1
S21400924C00000020B825010000E100E038B501F070
S21400925CFDF9051C7D3500240FE063001B195B002F
S21400926CEB18D978002903D1201CFFF77BFF02E00E
S21400927C201CFFF793FF0134E4B2012CEDD938BD66
S21400928C08B58000024BC05806F044FB08BDC0462B
S21400929C0000002008B58000024BC05806F008FB02
S2140092AC08BDC0460000002008B58200054BD35808
S2140092BC4000054A815A181C05F0BCFE431E984116
S2140092CC08BDC0460C000020BC25010038B5041CA7
S2140092DC01F0BCF97D3065002D196D0045192B7811
S2140092EC012B4ED1EB78002B09D1201CFFF7DCFFAD
S2140092FC80B26870030AAB70264B185549E0012BF8
S21400930C0AD1201CFFF7BCFF80B26870030AAB7052
S21400931C6400214BE0523CE0022B0AD1201CFFF7E4
S21400932CAFFF80B26870030AAB7064001A4BE05251
S21400933C2FE0E3001B1B5B00184AD3185A8908332E
S21400934C9B881B04134311D115490A5D0132D2B216
S21400935C0A55022A1DD90021114A11559BB26B7071
S21400936C1A0AAA7064000C4AA35212E000210C4A96
S21400937C11559BB26B701A0AAA706400064AA35267
S21400938C07E00023034A13556400034AA3526B708C
S21400939CAB7038BDA0060020100700201407002074
S2140093AC0401002000B585B042000B4BD35A009345
S2140093BC01236A46137103230293084B1B5C137339
S2140093CC8000074BC058694606F01AF8054800F0AE
S2140093DC4BFB05B000BDC046B425010014000020B0
S2140093EC280000201027000070B58AB0031C0E1C45
S2140093FC151C8400114AA0585900114A895A114A62
S21400940CD25C05F01BFF684606F0D8F902230193E0
S21400941C2F2303936423191C7143013904916B4366
S21400942CC91801390591084D6059694606F0B0F91E
S21400943C6059012106F0D4F90AB070BD280000204E
S21400944CC0250100180000202000002008B582006E
S21400945C044BD3584000044A815A181C05F092FE5F
S21400946C08BDC04628000020B425010008B58200BF
S21400947C044BD3584000044A815A181C05F0B0FE21
S21400948C08BDC04628000020B425010070B501F0C8
S21400949CDDF8061C8936002427E0A5002D196D0082
S2140094AC75192B78012B1ED1EB78002B10D1201CB4
S2140094BCFFF778FF6A78AB781B021343012B03D1B6
S2140094CC201CFFF7C3FF0EE0201CFFF7CFFF0AE0BF
S2140094DCAB79E979090219432B7A6A7A12021A4394
S2140094EC201CFFF781FF0134E4B2012CD5D970BDE6
S2140094FC08B58200044BD3584000044A815A181C05
S21400950C05F0ECFD08BDC04628000020B42501007F
S21400951C38B5051C01F09AF88930AC006419640063
S21400952C04192378012B19D1E378002B07D1281CBA
S21400953CFFF7DEFF80B26070000AA0700EE0012B11
S21400954C0CD1A179E27912020A43217A637A1B02C2
S21400955C0B43D3189BB263701B0AA37038BDC0466E
S21400956CF8B5041C82003F4BD058012106F072FA65
S21400957C01280BD1A3003B4A9858012106F0ACFAFF
S21400958CE200121B52000121374BD154A300354A7E
S21400959C9858022106F05EFA012813D1A300314A2E
S2140095AC9858022106F098FA2F49E300181B400041
S2140095BC002242540B185A705A809A80DA801A810C
S2140095CC5A819A81A300274A9858042106F042FA39
S2140095DC012845D1A300234A9858042106F07CFAAA
S2140095ECE200121B5200204BD35C012B13D11E4DF4
S2140095FCE600131C00225A55331B5B00EB180122A5
S21400960C5A70201CFFF746FE341B64002D19688028
S21400961C000CA88024E0E3001B1B5B00124AD31846
S21400962C5B78012B1CD1161CE7003D1B6D005519F1
S21400963C00236B703B1B5B0001229A55201CFFF726
S21400964C29FEE880030C2B816A88AB881B04134325
S21400965CC01A0130642106F0E3FC6881000CA88176
S21400966CF8BDC046000000201407002008B5011CF9
S21400967C72B612200022002305F0CCFC62B608BDA0
S21400968C38B5051C0B1C141C72B62220291C1A1C7F
S21400969C231C05F0BFFC62B6201C38BD10B5002399
S2140096AC02E0C45CCC5401339342FAD3181C10BDB0
S2140096BC00B585B042000A4BD35A009301236A4684
S2140096CC13710B2202926A4613738000054BC05826
S2140096DC694605F095FE044800F0C6F905B000BDD5
S2140096ECC8250100300000201027000008B58200B5
S2140096FC044BD3584000044A815A181C05F070FDE0
S21400970C08BDC04630000020C825010008B5820000
S21400971C044BD3584000044A815A181C05F032FDFD
S21400972C08BDC04630000020C82501008200044B4E
S21400973CD35859684000034A825A4A405A607047C8
S21400974C30000020C825010000B585B080231B0220
S21400975C009301236A461371092202926A46137318
S21400976C8820C005694605F04BFE05B000BDC04616
S21400977C08B58820C0058021090205F031FD08BD1A
S21400978C08B5012802D1FF20400201E0FE2040026D
S21400979CFFF784FF08BDC04670B50E1C151C0128CB
S2140097AC02D1FF24640201E0FE246402201CFFF7B1
S2140097BC5DFF601CFF30FFF759FF201C311C2A1C74
S2140097CCFFF75EFF70BDC04610B500F03FFF041CEF
S2140097DC414805F0DFFB00287DD03F4805F0FAFB3A
S2140097EC3E4B1A6801321A6003F068F83C4B1B7843
S2140097FC002B14D1231CDD331A7801331B781B0283
S21400980C13430CD0374A1168013111601268934229
S21400981C05D80122324B1A700022324B1A60324B9A
S21400982C1B78002B03D0314B1A6801321A60231CAC
S21400983CDB331B78221CDC32127812021A432B4BB9
S21400984C1B689A4204D80023274A1370274A1360D1
S21400985C224B1868264906F027FC00293BD100202D
S21400986CFFF764FF00221D4B1A60224B1A68013268
S21400987C1A60231C9D339B7F002B01D004F042F909
S21400988C231C9D33DB7F002B01D003F097FA194B7A
S21400989C18683B2106F008FC002909D10022154B5C
S2140098AC1A609D34E37F002B02D00122124B1A70F3
S2140098BC124B1B78012B0ED1114B18680130186017
S2140098CC052106F0F1FB002905D100220C4B1A608D
S2140098DC02220A4B1A7010BD001000402401002012
S2140098EC2C01002028010020080100203401002053
S2140098FCE7030000300100203C000020200100207F
S21400990C14010020F0B583B02E4805F043FB002868
S21400991C56D02C4805F05EFB002301252A481EE095
S21400992C191CDA00D21A5200284C125D012A07D1F3
S21400993C9E00274FF75901970137254C375102E007
S21400994C9E00234FF551002A04D189000A58013293
S21400995C0A5002E089001C4A8D500133DBB2012B01
S21400996CDED900241B4F012628E0251CA300184A2C
S21400997C9858391C06F098FB00290AD1A300144A03
S21400998C9E50E3001B1B5B00104AD31800225A8122
S21400999C9A81AB000C4A9858391C06F085FB0029B6
S2140099AC0AD1AB00084A9E50EB005D1B6D00074BBE
S2140099BC5D1900236B81AB810134E4B2012CD4D940
S2140099CC03B0F0BD00200040180100201407002052
S2140099DC0C010020DC05000010B582B00D4B009386
S2140099EC002369464B7140220A71CB7102238B719E
S2140099FC094C201C05F026FA201C012105F098FACB
S214009A0C80225201054B1A60201C012105F0E6F954
S214009A1C02B010BD7FBB00000010004000E100E06B
S214009A2C10B582B00D4B0093002369464B71402253
S214009A3C0A71CB7102238B71094C201C05F002FABB
S214009A4C201C012105F074FA80229201054B1A6045
S214009A5C201C012105F0C2F902B010BD7FBB00002E
S214009A6C0020004000E100E082B00190019B5A1EED
S214009A7C0192002BFAD102B07047C04610B582B0E6
S214009A8C041C06F073FA074906F0CAFA444301941C
S214009A9C02E0019B013B0193019B002BF9D102B024
S214009AAC10BDC04610270000012802D101220E4B23
S214009ABC1A70042802D104220B4B1A70052802D106
S214009ACC0522094B1A70062802D10622064B1A707C
S214009ADC0F2802D10F22044B1A70102802D1102224
S214009AEC014B1A707047C04630070020000208432E
S214009AFC7047C046F0B55F4656464D464446F0B4F1
S214009B0C8BB0051C00F0A2FD041C00236F277026EA
S214009B1C09E0E25DA05D000210435900C01808AAD7
S214009B2C88520133DBB2032BF3D900229446A846A5
S214009B3C17E048798E7936020643F8184000F61876
S214009B4C18306D4646530133DBB206E0634691008F
S214009B5C89184900611888315700012BE9D9013260
S214009B6CD2B2012AF2D94546A878E978FFF7BEFFAB
S214009B7C0023002801D000F05FFDE879FFF794FF82
S214009B8CCE4B1A78062A00D0D1E0287A697AFFF7ED
S214009B9CADFF83460021002313E09A00D218520032
S214009BACA21888325278012A09D19A00D21852008B
S214009BBCA21888321279012A01D10131C9B20133B7
S214009BCCDBB2012BE9D900291CD1EA797A235B4256
S214009BDC1343EB7101232B720A2300F02DFDF018B2
S214009BEC400018306F46C05BA04201D10131C9B2AB
S214009BFC0133DBB201E043465600012BEFD90132AC
S214009C0CD2B203E000229046A4465C46012AF2D962
S214009C1CA346644600297BD1EA797A235B42134338
S214009C2CEB7102232B720A2300F006FD41464B0013
S214009C3CE31888335B78012B37D17B009B195B00CC
S214009C4C18336A469B5A5B452FD105980379012B2E
S214009C5C2BD15146887AC97AFFF748FF002E15D1CA
S214009C6C0A226A43A2188832D179127A12020A435F
S214009C7C82421AD00A236B43E3188833FF22024031
S214009C8CDA71000A1872012204920EE04A469032EB
S214009C9C5178927812020A43824206D04B46903391
S214009CAC5870000A9870012304930136F6B20AE045
S214009CBC00263D1CBB00DB19984643465B001B196F
S214009CCC994688330593012EB0D9049D012D1CD1DD
S214009CDCBD007B4EAE590396301C002105F080FD6E
S214009CECEB195B00E3188833DA79197A0902114309
S214009CFCEB195B00E318903358789A7812020243FB
S214009D0C381CFFF771FB002504950137FFB203E002
S214009D1C002604960027AA46012FC9D955460623C5
S214009D2C6B710022654B1A700C2300F085FC102A10
S214009D3C00D035E1287A697AFFF7D8FE071CA87A96
S214009D4CE97AFFF7D3FE81460021002313E09A0040
S214009D5CD2185200A21888325278012A09D19A00D9
S214009D6CD2185200A21888321279012A01D1013178
S214009D7CC9B20133DBB2012BE9D900291ED1EA792D
S214009D8C70235B421343EB7101232B720A2300F002
S214009D9C53FCF218520018326C46125BBA4203DBC4
S214009DAC424501DC0131C9B20133DBB201E0634646
S214009DBC4600012BEDD90130C0B204E000208446E9
S214009DCCB846C844A2460128F1D95446002900D00A
S214009DDCD9E0EA7970235B421343EB7102232B72B2
S214009DEC0A2300F029FC73000D33E85CF31D5B00BE
S214009DFCE95CFFF77BFE021C8923E35C012B2CD16C
S214009E0C6946098BBA46C244514526D18C21615C01
S214009E1C012922D18F23E15C9023E35C1B020B43C8
S214009E2C834200D1ACE08F229246A054000A9027C1
S214009E3CE055234B1868002105F0D2FC5046235CF5
S214009E4CE15D090219439123E35C9222A25C1202A3
S214009E5C1A430020FFF7C8FA92E0012B32D16B466A
S214009E6C598BBC46C44461452CD18C23E35C012B36
S214009E7C28D19123E15C9223E35C1B020B439342B3
S214009E8C00D17DE09127BA46E055000A9227E055AE
S214009E9C0B4A12680292101C002105F0A1FC8F23BD
S214009EACE35C9022A15C090219435046235CE25DF8
S214009EBC12021A430020FFF797FA61E030070020E1
S214009ECC200000209323E35C012B2CD16946898B60
S214009EDCBA46C244514526D19621615C012922D14D
S214009EEC9923E15C9A23E35C1B020B43934247D015
S214009EFC99229246A054000A9A27E055C748406813
S214009F0C0190002105F06CFC5146635CE15D090292
S214009F1C19439B23E35C9C22A25C12021A43012089
S214009F2CFFF762FA2CE0012B2AD16946CB8B47440B
S214009F3CBB4225D19623E35C012B21D19B23E15C0C
S214009F4C9C23E35C1B020B43934219D09B22924644
S214009F5CA054000A9C27E055B048406800900021A9
S214009F6C05F03EFC9923E35C9A22A15C0902194396
S214009F7C5246A35CE25D12021A430120FFF734FA44
S214009F8C0136F6B201E00026B846371E4F4500DA19
S214009F9C29E706236B710022A14B1A700C234BE3A6
S214009FAC052A7BD1287A697AFFF7A0FD061C0021CA
S214009FBC002313E09A00D2185200A2188832527866
S214009FCC012A09D19A00D2185200A21888321279A6
S214009FDC002A01D10131C9B20133DBB2012BE9D918
S214009FEC002918D1EA797B235B421343EB710123DA
S214009FFC2B720A2320E39A00D2185200A218883239
S21400A00C5079927912020243B24201D10131C9B29F
S21400A01C0133DBB200E00023012BECD9002933D14D
S21400A02CEA797B235B421343EB7102232B720A23E0
S21400A03C02E3BB00DB195B00E31888335B78012B6B
S21400A04C1FD1BB00DB195B00E318883359799B7969
S21400A05C1B020B43B34214D1BB00DB195B00E318A5
S21400A06C88331B79002B0CD1A87AE97AFFF73EFDD2
S21400A07C002803D0381CFFF7E9F902E0381CFFF77C
S21400A08CF5F90137FFB200E00027012FD1D90623DE
S21400A09C6B710022624B1A700C23CDE20F2A00D093
S21400A0ACA0E0287A697AFFF721FD8046A87AE97A3B
S21400A0BCFFF71CFD071C0021002313E09A00D218A2
S21400A0CC5200A21888325278012A09D19A00D21866
S21400A0DC5200A21888321279002A01D10131C9B275
S21400A0EC0133DBB2012BE9D9002918D1EA797123A7
S21400A0FC5B421343EB7101232B720A239CE29A00FA
S21400A10CD2185200A2188832507992791202024361
S21400A11CB24201D10131C9B20133DBB201E00023F6
S21400A12C4646012BEBD9B046002908D1EA797123B3
S21400A13C5B421343EB7102232B720A237CE2062349
S21400A14C6B710026012399468920824693218B4603
S21400A15C40E0F308191C0D31695CDB00F31A194159
S21400A16C484608405146635C012B17D18D23E35CAF
S21400A17C8E21615C090219439446C44461450DD195
S21400A18C8C23E35C002B09D1002803D00020FFF7BA
S21400A19C5DF91DE00020FFF769F919E05B46E15C0C
S21400A1AC012915D19723E15C9823E35C1B020B4332
S21400A1BC424493420CD19623E35C002B08D1002832
S21400A1CC03D04846FFF742F902E04846FFF74EF93F
S21400A1DC0136F6B2321EBA42BBDB0022104B1A70A6
S21400A1EC0C2329E2012A00D0D2E0287A697AFFF7FC
S21400A1FC7DFC8046A87AE97AFFF778FCC3175B0FDC
S21400A20C1B18DB109946DB00834201DA0126B144A9
S21400A21C00200023474646464E4414E0200000200B
S21400A22C300700205A00D2185200A2187832517A01
S21400A23C927A12020A43BA4203DBB24201DC0130C4
S21400A24CC0B20133DBB2012BECD9B84600281DD1C5
S21400A25CEA797F235B421343EB7102232B720A23AA
S21400A26CEAE15A00D2185200A21878325279012A22
S21400A27C09D15A00D2185200A2187832127A002A43
S21400A28C01D10131C9B20133DBB201E00021002358
S21400A29C012BE6D9002908D1EA797F235B421343C8
S21400A2ACEB7101232B720A23C6E14846C3B2DA1CB3
S21400A2BC6A712B7200220021059183239C465EE076
S21400A2CC7D26A15D012921D18121665C8227E15D75
S21400A2DC090231434746D619B14217D18021615C39
S21400A2EC002913D1C5490E78002E07D029180F1C4B
S21400A2FC0E78012199400E433E7033E029180F1C4E
S21400A30C0E78012199408E433E702BE06646A15D87
S21400A31C012921D18727E15D8826A65D36020E43EA
S21400A32C4746D1198E4217D18621615C002913D17C
S21400A33CB24E7178002907D029180F1C097801260F
S21400A34C9E40314339700DE029180F1C0978012600
S21400A35C9E40B143397005E029180F7801269E40BF
S21400A36CB7430F700132D2B20133DBB201E00023E7
S21400A37C0930072BA4D9059B0133DBB2059305984E
S21400A38C4845F4DB00229E4B1A704B46093353E1CA
S21400A39C0023042A00D04FE1287A697AFFF7A6FB3F
S21400A3AC061CA87AE97AFFF7A1FB031C0027BC461B
S21400A3BC0022311888460CE0510008AFC95BB14248
S21400A3CC05DB414503DC61460131C9B28C460132DE
S21400A3DCD2B2032AF0D90022F718B84612E0510080
S21400A3EC89184900611878314F7A897A09023943FD
S21400A3FCB14205DB414503DC61460131C9B28C46EE
S21400A40C0132D2B2012AEAD96146002914D1EA797E
S21400A41C7C235B421343EB7102232B720A230BE162
S21400A42C51008918611870314978012901D101371A
S21400A43CFFB20132D2B201E000270022032AEFD984
S21400A44C002213E0510089184900611878314979C7
S21400A45C012909D151008918490061187831097A07
S21400A46C002901D00137FFB20132D2B2012AE9D954
S21400A47C002F08D1EA797C235B421343EB7101234E
S21400A48C2B720A23D8E040008146C2B2D11C6971F7
S21400A49C2A720022712774208246C5E0E15D0129EC
S21400A4AC16D108A909888C46B1188C4510D1554987
S21400A4BC09888B46090A88465000844609218C4434
S21400A4CC414660462954501D400059462954AAE07E
S21400A4DC5046215C012916D108A949888C46B1182A
S21400A4EC8C4510D1474949888B46090A8846500046
S21400A4FC844609218C44414660462954501D400030
S21400A50C594629548FE07721615C012916D108A998
S21400A51C89888C46B1188C4510D13A488088834679
S21400A52C000A804651008C46092084444046614609
S21400A53C6854511D49005846685474E07A21615C91
S21400A54C012916D108A9C9888C46B1188C4510D19A
S21400A55C2C49C9888B46090A88465000844609212E
S21400A56C8C44414660462954501D40005946295497
S21400A57C59E07D21615C01291DD18121615C82201D
S21400A58C205C00020843B118884214D18021615C1B
S21400A59C002910D01C4909888B46090A88465000A9
S21400A5AC844609218C44414660462954501D40007F
S21400A5BC5946295437E08321615C012926D187212D
S21400A5CC615C8820205C00020843B11888421DD1CB
S21400A5DC8621615C002919D00B4949888B46090AEB
S21400A5EC88465000844609218C44414660462954CE
S21400A5FC501D40005946295415E0C046A0060020C0
S21400A60C3007002098060020100700205100093162
S21400A61C49198C46002160460170501D4000844646
S21400A62CAC446046017001329A4200DA36E70022EA
S21400A63C054B1A704B460933181C0BB03CBC9046A5
S21400A64C9946A246AB46F0BD30070020004870473E
S21400A65C38010020F0B557464E464546E0B46E4CE1
S21400A66CE12323800423A3700025E57025710923BC
S21400A67C6371A3710823E371C0208046011CA0738C
S21400A68CA827E7732574642292466274A174E77453
S21400A69C2575012189466175FF22A275E275227621
S21400A6AC6576A376E376237763775C4E201C1E30A4
S21400A6BC311C0A2206F027FB231C2833321C03CA43
S21400A6CC03C312881A80201C32300C36311C192217
S21400A6DC06F019FB201C4B30311C192206F013FB1C
S21400A6EC43465246A3546523E7546623E554022298
S21400A6FC6723E2544A4B6822A3526A22A3526C2365
S21400A70C4846E0546D23E5546E23E55400226F232F
S21400A71CE2547023E25400233F480124002108E051
S21400A72C5A00D2188218703254709170D17001335E
S21400A73CDBB2032BF4D9002337480126002500246E
S21400A74C12E05900CA185200821878325671D58019
S21400A75C1472CA18520082187832191C0A315172B7
S21400A76C090A91720133DBB2012BEAD900232A4D78
S21400A77C012188460021002294463227642618E0E0
S21400A78C9800C2185200AA18883244465470518059
S21400A79C644614715C0014345471240A9471D77195
S21400A7AC1172C2185200AA1890325670917001336A
S21400A7BCDBB2012BE4D9184C184E201C9D30311CF2
S21400A7CC2831142206F09FFA201CB130311C0A22C4
S21400A7DC06F099FA0025BB23E554BC23E554201C4F
S21400A7ECBD30311C40311E2206F08DFA18235B4218
S21400A7FCDB22A3540321DC22A154DD22A354DE2346
S21400A80C0322E2542C22DF23E254E023E5541CBC42
S21400A81C90469946A246F0BD38010020D02501008E
S21400A82C8813000010B50D4C0120211CE122FEF708
S21400A83CA7FF2288013A92B2094B9A4206D9FFF733
S21400A84C09FF01200549E122FEF7A6FF034B09226A
S21400A85C5A719A710822DA7110BDC0463801002070
S21400A86CFDFF000070B5064C6D25665D0023635534
S21400A87C0120211CE122FEF78FFF665570BDC046F5
S21400A88C3801002008B506F03EFA08BD08B506F0FB
S21400A89C3AFA08BD70B58AB004AC0120211C04F04D
S21400A8AC4DFA21786278A378E67825796079009657
S21400A8BC01950290124806F037FAA179E279237ACC
S21400A8CC607A00900F4806F02FFAA17BE27B237C7F
S21400A8DC607C00900C4806F027FAA17AE27A237B7B
S21400A8EC607B0090094806F01FFAA17CE27C237D71
S21400A8FC607D0090064806F017FA0AB070BDC04698
S21400A90C302601005C260100742601008C2601000E
S21400A91CA426010010B5FFF799FE041C017A0C481A
S21400A92C05F094FA617A0B4805F090FAA17A0A4879
S21400A93C05F08CFAE17A094805F088FA217B08487C
S21400A94C05F084FA617B074805F080FA10BDC04616
S21400A95C0360004602600046016000460060004648
S21400A96C076000460660004610B586B0FFF76EFE20
S21400A97C041C011C083168460622FFF783FF211CC5
S21400A98C0E31684606300422FFF77CFF211C12317C
S21400A99C68460E300422FFF775FF211C16316846F8
S21400A9AC0A300422FFF76EFF211C1A31684612305B
S21400A9BC0422FFF767FFBB23E35C002B03D00223C4
S21400A9CC6A46937502E001236A4693750020694631
S21400A9DC04F0B4F906B010BDBFF34F8F024A034B18
S21400A9ECDA60BFF34F8FFEE70400FA0500ED00E0D7
S21400A9FC30B5002305E0CC1825784540257001338A
S21400AA0C9BB29342F7D330BD30B5002305E0CC188B
S21400AA1C25784540257001339BB29342F7D330BD61
S21400AA2CF0B54F464646C0B4FDB0061C8946141C0D
S21400AA3CFFF70CFE80466D46EF35FF35301C0B21BC
S21400AA4C2A1C03F0AFFD6279A7793F0217432A88C8
S21400AA5C97425AD16B460A330093301C3EA9062205
S21400AA6C03AB03F095FC63785AB2002A08DA7F2011
S21400AA7C18406B46EF33FF331A883EA9FFF7C4FF26
S21400AA8C414608313EA8062206F02EF900283CD195
S21400AA9C19235B4263710023A3715523237141462E
S21400AAAC083104A8062206F02EF9684616304146F0
S21400AABCE12206F028F963785AB2002A05DA7F20DC
S21400AACC184004A9E722FFF793FF40A8211C072291
S21400AADC06F019F968460830FF3004A9E72206F09C
S21400AAEC12F9A378002B04D14846FF21042206F065
S21400AAFC13F949460A794B791B0213430093301C11
S21400AB0C40A9EE224B4603F05BFB7DB00CBC904696
S21400AB1C9946F0BDF0B557464E464546E0B4A4B04F
S21400AB2C061C8946141CFFF791FD80466D468E3533
S21400AB3C301C0B212A1C03F035FD6279A7793F02E5
S21400AB4C17432A88974200D0FEE0E3785F33DAB2E8
S21400AB5C042A00D9F8E093007E4AD3589F466B46E9
S21400AB6C3E330093301C02A9072210AB03F010FCF6
S21400AB7C63785AB2002A07DA7F2018406B468E3369
S21400AB8C1A8802A9FFF740FF4146023102A80322A9
S21400AB9C06F0AAF8002800D193E0D5E06B463E33C9
S21400ABAC0093301C02A90C2210AB03F0F1FB637867
S21400ABBC5AB2002A07DA7F2018406B468E331A8862
S21400ABCC02A9FFF721FF02AB1A784046037A9A4295
S21400ABDC00D9B9E002AA5178427A914200D9B3E082
S21400ABEC02A988784546A97A884200D9ACE002A822
S21400ABFCC5784746F87A854200D9A5E002AD2D798E
S21400AC0CAC463D7BAC4500D99EE002AF7F79BC4696
S21400AC1C47467F7BBA46BC4500D995E002AFBF7964
S21400AC2CBB4200D990E002ABDB799A4200D98BE0AC
S21400AC3C02AB1B7A994200D986E002AB5B7A98424B
S21400AC4C00D981E002AB9B7A9D427DD802ABDB7AC1
S21400AC5C9A4536D978E06B463E330093301C02A9F1
S21400AC6C212210AB03F094FB63785AB2002A07DA61
S21400AC7C7F2018406B468E331A8802A9FFF7C4FE55
S21400AC8C02A806F024F9021C02A841469D3106F0E3
S21400AC9C2BF8002815D057E06B463E330093301C3B
S21400ACAC02A9342210AB03F073FB63785AB2002A65
S21400ACBC07DA7F2018406B468E331A8802A9FFF7F6
S21400ACCCA3FE0C2363710023A37155232371414605
S21400ACDC023111A8032206F016F8414605316846E3
S21400ACEC4730032206F00FF84146083168464A30D2
S21400ACFC062206F008F863785AB2002A05DA7F2096
S21400AD0C184011A90C22FFF773FE14A8211C072269
S21400AD1C05F0F9FF6846573011A90C2205F0F3FF31
S21400AD2CA378002B04D14846FF21042205F0F4FF3B
S21400AD3C4846027943791B0213430093301C14A92E
S21400AD4C13224B4603F03CFA24B01CBC90469946A2
S21400AD5CA246F0BDC0260100F0B54F464646C0B42C
S21400AD6C494CA544061C8946141CFFF76FFC80460C
S21400AD7C464D6D44301C0B212A1C03F013FC6279E3
S21400AD8CA7793F0217432A88974275D16B460A3338
S21400AD9C0093301C3EA9F82203AB03F0F9FA637853
S21400ADAC5AB2002A07DA7F201840384B6B441A88B0
S21400ADBC3EA9FFF729FE414608313EA8062205F0BB
S21400ADCC93FF002858D16846FF304146B13106F053
S21400ADDC6CF8002850D1404669461031FF31E1220C
S21400ADECFFF754FD092341464B718B710823CB7139
S21400ADFCFFF738FD19235B4263710023A3715523BB
S21400AE0C23714146083104A8062205F07CFF6846EB
S21400AE1C16304146E12205F076FF63785AB2002AD6
S21400AE2C05DA7F20184004A9E722FFF7E1FD7CA88D
S21400AE3C211C072205F067FF6846F830FF3004A98E
S21400AE4CE72205F060FFA378002B04D14846FF21CB
S21400AE5C042205F061FF4B461A795B791B021343FB
S21400AE6C0093301C7CA9EE224B4603F0A9F9642013
S21400AE7CFEF704FEFFF7B0FDB9239B009D440CBC07
S21400AE8C90469946F0BDC0461CFDFFFFDE02000052
S21400AE9CF0B54F464646C0B491B0061C8946141C05
S21400AEACFFF7D4FB80466D463E35301C0B212A1C22
S21400AEBC03F078FB6279A7793F0217432A889742FA
S21400AECC5CD16B460A330093301C06A9172203ABE1
S21400AEDC03F05EFA63785AB2002A06DA7F2018402E
S21400AEEC6B46DA8F06A9FFF78FFD4146083106A898
S21400AEFC062205F0F9FE002840D168461F30414670
S21400AF0CB13105F0D2FF002838D106226271002339
S21400AF1CA371552323714146083104A805F0F3FEAE
S21400AF2C63785AB2002A05DA7F20184004A9062254
S21400AF3CFFF75EFD0CA8211C072205F0E4FE684610
S21400AF4C373004A9062205F0DEFEA378002B04D1C8
S21400AF5C4846FF21042205F0DFFE49460A794B7964
S21400AF6C1B0213430093301C0CA90D224B4603F016
S21400AF7C27F96420FEF782FDFFF72EFD11B00CBCFE
S21400AF8C90469946F0BDC046F0B557464E464546E7
S21400AF9CE0B4B8B0061C8946141CFFF757FB824673
S21400AFACFFF754FB80466D46C635301C0B212A1C19
S21400AFBC03F0F8FA6379A7793F021F432A88974271
S21400AFCC00D098E06B460E330093301C1DA94F2220
S21400AFDC04AB03F0DDF9E378D12B00D08BE063787B
S21400AFEC5AB2002A07DA7F2018406B46C6331A88F6
S21400AFFC1DA9FFF709FD414608311DA8062205F0DC
S21400B00C73FE002877D168467B304146B13105F097
S21400B01C4CFF00286FD157460837162532A8391C26
S21400B02C2A1C05F070FEFFF7FDFB381C32A92A1C03
S21400B03C05F069FEFFF716FC05A8211C072205F093
S21400B04C62FE062568461B3049462A1C05F05BFE48
S21400B05C6846213069468B31042205F054FE68465A
S21400B06C253069468F31022205F04DFE68462730A2
S21400B07C69469131322205F046FE002005A945228C
S21400B08CFEF78AFB65710023A37155232371414695
S21400B09C083117A82A1C05F036FE63785AB2002A27
S21400B0AC05DA7F20184017A92A1CFFF7A1FC19A85F
S21400B0BC211C072205F027FE68466B3017A90622CE
S21400B0CC05F021FEA378002B04D14846FF2104226C
S21400B0DC05F022FE49460A794B791B02134300936E
S21400B0EC301C19A90D224B4603F06AF86420FEF7B3
S21400B0FCC5FCFFF771FC38B01CBC90469946A246BE
S21400B10CF0BDC046F0B54F464646C0B491B0061CDE
S21400B11C8946141CFFF79AFA80466D463E35301C5D
S21400B12C0B212A1C03F03EFA6279A7793F021743DB
S21400B13C2A88974260D16B460A330093301C06A9C6
S21400B14C172203AB03F024F963785AB2002A06DA06
S21400B15C7F2018406B46DA8F06A9FFF755FC414650
S21400B16C083106A8062205F0BFFD002844D1684623
S21400B17C1F304146B13105F098FE00283CD1FFF750
S21400B18C69FAFFF76FFB062262710023A371552341
S21400B19C23714146083104A805F0B5FD63785AB210
S21400B1AC002A05DA7F20184004A90622FFF720FCA7
S21400B1BC0CA8211C072205F0A6FD6846373004A90A
S21400B1CC062205F0A0FDA378002B04D14846FF21EB
S21400B1DC042205F0A1FD49460A794B791B0213435C
S21400B1EC0093301C0CA90D224B4602F0E9FF64209C
S21400B1FCFEF744FCFFF7F0FB11B00CBC90469946EA
S21400B20CF0BDC046F0B54F464646C0B491B0061CDD
S21400B21C8946141CFFF71AFA80466D463E35301CDC
S21400B22C0B212A1C03F0BEF96279A7793F0217435B
S21400B23C2A8897425BD16B460A330093301C06A9CA
S21400B24C172203AB03F0A4F863785AB2002A06DA86
S21400B25C7F2018406B46DA8F06A9FFF7D5FB4146D0
S21400B26C083106A8062205F03FFD00283FD16846A7
S21400B27C1F304146B13105F018FE002837D11E4864
S21400B28C05F0CEFD062363710023A37155232371AD
S21400B29C4146083104A8062205F035FD63785AB2FB
S21400B2AC002A05DA7F20184004A90622FFF7A0FB27
S21400B2BC0CA8211C072205F026FD6846373004A989
S21400B2CC062205F020FDA378002B04D14846FF216A
S21400B2DC042205F021FD49460A794B791B021343DB
S21400B2EC0093301C0CA90D224B4602F069FF11B0DE
S21400B2FC0CBC90469946F0BDD4260100F0B55746D6
S21400B30C4E464546E0B492B0061C8946141CFFF720
S21400B31C9DF980466D464635301C0B212A1C03F0E1
S21400B32C41F96279A7793F0217432A88974271D16F
S21400B33C6B4612330093301C08A9172205AB03F09A
S21400B34C27F863785AB2002A07DA7F2018406B4633
S21400B35C46331A8808A9FFF757FB4146083108A858
S21400B36C062205F0C1FC002854D168462730414619
S21400B37CB13105F09AFD00284CD1294805F050FD56
S21400B38C002528498A460EE0AF005346FB58039327
S21400B39C181C002104F024FA51467858012104F0B8
S21400B3AC1FFA0135EDB2012DEED906236371002389
S21400B3BCA371552323714146083106A8062205F0D1
S21400B3CCA2FC63785AB2002A05DA7F20184006A938
S21400B3DC0622FFF70DFB0EA8211C072205F093FC96
S21400B3EC68463F3006A9062205F08DFCA378002B94
S21400B3FC04D14846FF21042205F08EFC4B461A79F0
S21400B40C5B791B0213430093301C0EA90D224B468E
S21400B41C02F0D6FE12B01CBC90469946A246F0BD71
S21400B42CE42601000000002030B589B0051C6C46EF
S21400B43C1F340A21221C03F0B5F82378002B63D0A6
S21400B44C222B67D107AC281C0921221C03F0AAF872
S21400B45C2388062B5ED903AC06AB0093281C211C54
S21400B46C072205AB02F094FF2378A52B52D103AB31
S21400B47C1B79AA2B4ED103ABDB780F229343B02B50
S21400B48C18D006D8202B39D0A02B0DD0102B41D19C
S21400B49C2EE0D02B1AD002D8C02B11D03AE0E02BDD
S21400B4AC1AD0F02B1ED035E0281C05A903AAFFF7EE
S21400B4BC31FB2FE0281C05A903AAFFF7B1FA29E0F7
S21400B4CC281C05A903AAFFF747FC23E0281C05A99E
S21400B4DC03AAFFF759FD1DE0281C05A903AAFFF7D0
S21400B4ECD7FC17E0281C05A903AAFFF70BFE11E0F2
S21400B4FC281C05A903AAFFF701FF0BE0281C05A9C9
S21400B50C03AAFFF77FFE05E0281C0221024A00234F
S21400B51C02F06AFB09B030BD96190000F0B557462C
S21400B52C4E464546E0B484B0FFF790F8071C04F08E
S21400B53C63FD04F01BFDFA21890004F071FD01384F
S21400B54C8F4B98420DD88F4B58608F4A106A00026A
S21400B55C000AC02109060143116200229A600722E4
S21400B56C1A6004F003FD894904F05AFD884B1860F4
S21400B57CE120400204F034FC012004F03DFC0020E5
S21400B58CFEF796F80120FEF793F80220FEF790F8E7
S21400B59C0020FEF7BBF80120FEF7B8F80220FEF7F5
S21400B5ACB5F8FEF7D1F8FEF7E3F8FFF73BF9FEF730
S21400B5BC13FAFEF735FA01AC00230193A38008209A
S21400B5CC211C03F027FA734805F02AFC7248211C4C
S21400B5DC05F0AAFB714805F023FC04F0CDFC011C19
S21400B5EC6F4805F0A1FB04F0C1FC011C6D4805F08A
S21400B5FC9BFB6D48E12105F097FB8620C00580215A
S21400B60C09028022D20104F087F8002801D067498D
S21400B61C00E06749674805F087FBFFF77BF90320D6
S21400B62C654902F0B1F96549081C654A01F08CFCC5
S21400B63CBB23FB5C002B14D0624805F0F1FB002406
S21400B64C02F0BAF804280ED0002801D10134E4B276
S21400B65C032C02D9FFF788F905E00220FFF7E4FE79
S21400B66CEEE7FFF781F9FFF715F90420524901F0D0
S21400B67C37FBBC23FB5C002B1FD003A8391C1A31EC
S21400B68C042205F040FB00243E1CBD363D1C6435F0
S21400B69C03A8311C2A1C01F033FB01280DD0013401
S21400B6ACE4B2032C09D80220FFF7BEFEBB23FB5CDA
S21400B6BC002BEDD002F080F8EAE7FDF7DFFB002068
S21400B6CC0021FDF71FFC6E23FB5C012B01D1FDF75F
S21400B6DC7FFCFDF7BBFDFDF7D9FE3B4805F0A0FB54
S21400B6EC00260025002403229046384B99469A469D
S21400B6FC201CFDF7D5FC0134E4B200234246A242DE
S21400B70C5B415B421C40281CFDF7E0FD0135EDB2A9
S21400B71C00230122AA425B415B421D40301CFDF710
S21400B72CF7FE0136F6B200230122B2425B415B42C1
S21400B73C1E400020FDF708FB0220FFF775FEBB231A
S21400B74CFB5C012B01D102F037F8BC23FB5C012B10
S21400B75CCED14A461378012BCAD103A8391C1A310C
S21400B76C042205F0D0FA3A1C643203A8391CBD3109
S21400B77C01F0C6FA0128BBD1002352461370B7E776
S21400B78CFFFFFF0010E000E000ED00E010270000D7
S21400B79C002000460427010034270100442701003E
S21400B7AC7427010090270100AC270100F426010045
S21400B7BCFC260100D4270100340700207D81000000
S21400B7CC0D820000EC270100002801003C00002040
S21400B7DC044B1B68002B03D0024B1A68013A1A6004
S21400B7EC7047C0461C02002008B5031C0A1C024801
S21400B7FC191C05F099FAFEE71428010010B5041C74
S21400B80C04F016FB201C10BD70B50E1C151C002475
S21400B81C03E0305DFFF7F2FF0134A542F9D8281C8F
S21400B82C70BDC0467047C04608B5024805F0F8FA29
S21400B83C08BDC046442801007047C0467047C04645
S21400B84C08B5FFF7C5FF08BD7047C0467047C04631
S21400B85C7047C0467047C0467047C0467047C046E3
S21400B86C7047C0467047C0467047C0467047C046D3
S21400B87C08B5FDF7A9FF08BD08B5FEF743F808BDE7
S21400B88C7047C0467047C04608B50020FDF768FEF6
S21400B89C08BDC04608B50120FDF762FE08BDC046CF
S21400B8AC7047C0467047C0467047C0467047C04693
S21400B8BC7047C0467047C0467047C0467047C04683
S21400B8CC08B500F005F8C04608B504F095FB08BDB1
S21400B8DCBFF34F8F024A034BDA60BFF34F8FFEE77E
S21400B8EC0400FA0500ED00E008B50D4B1B68002BB4
S21400B8FC02D10C4A0A4B1A60094B1B680330032210
S21400B90C90431818084A904206D905F0E7F90C231C
S21400B91C03600120404202E0014A1060181C08BD7A
S21400B92C200200205C170020003700200123036053
S21400B93C014B0B607047C0464000002008B505F070
S21400B94CCDF9582303600120404208BD08B505F028
S21400B95CC5F9582303600120404208BD08B505F020
S21400B96CBDF958230360002008BDC04608B505F095
S21400B97CB5F9582303600120404208BD08B505F010
S21400B98CADF9582303600120404208BD70B5041C75
S21400B99C037A032B03D0042B03D0002502E00C25DE
S21400B9AC00E00A25E0682169626900F05BFA023063
S21400B9BC4519E37E002B0DD0606AA16AE26A00F09E
S21400B9CC51FA861C206B616BA26B00F04BFA361892
S21400B9DC0236AD19236C002B02D1A36C002B06D0BB
S21400B9EC206C616CA26C00F03DFA02302D18E36CF2
S21400B9FC002B02D1636D002B06D0E06C216D626DBE
S21400BA0C00F030FA02302D18281C70BDF0B583B04B
S21400BA1C061C0F1C141C0190101CFFF7B7FF051C0E
S21400BA2C00F08AF9B84277DC01A8102100F0B4F9CE
S21400BA3C019F381C291C00F03DF93F180197237A0A
S21400BA4C042B08D101A8364900F0BEF901A8042140
S21400BA5C00F0A2F907E001A8324900F0B5F901A8F8
S21400BA6C032100F099F9A57E01221540E37E591EAC
S21400BA7C8B41DBB21A4092006D001543002B0BD0A5
S21400BA8C3D23E35C03221A40D2003C23E35C0121F5
S21400BA9C0B405B0115431D43236C002B02D1A36C9A
S21400BAAC002B01D080231D43E36C002B02D1636D69
S21400BABC002B01D040231D4369B201A800F06CF99D
S21400BACC218B01A800F06EF901A8E1682269636970
S21400BADC00F08EF9E37E002B0BD001A8616AA26AF7
S21400BAECE36A00F085F901A8216B626BA36B00F08A
S21400BAFC7FF92B0605D501A8216C626CA36C00F0AF
S21400BB0C77F96B0605D501A8E16C226D636D00F024
S21400BB1C6FF9019B981B01E00220404203B0F0BD78
S21400BB2C502801005828010070B582B0051C0C1C6A
S21400BB3C019201A800F02AF903061B0F0020022B25
S21400BB4C14D1019E301C694600F00AF9361801968D
S21400BB5C009B012B0ADD01A800F018F90006C00FA7
S21400BB6C287001A800F012F92070012002B070BDF8
S21400BB7C30B583B0041C019001290EDD0F210A405C
S21400BB8C110149B201A800F007F9019D281C0021FB
S21400BB9C00F090F82818001B01E00220404203B089
S21400BBAC30BDC04608B50E22FFF7E2FF08BDC04602
S21400BBBC08B50C22FFF7DCFF08BDC046F0B55746AB
S21400BBCC4E464546E0B482B081460F1C90469A46D7
S21400BBDC0D9A01920023009301A800F0D7F8C4B286
S21400BBEC26090025032E2DD12307DB0F4A4613709A
S21400BBFC63079B0F3B60E407E40F43461C70019CF5
S21400BC0C201C694600F0ACF8051C24180194009A18
S21400BC1CA4180A9801A9221C00F008F9002811D0D3
S21400BC2C019AA31A0ED43B68002B04DD01A800F081
S21400BC3CA3F853461880019BE41A0C9A14600B9ACE
S21400BC4C13600125281C02B01CBC90469946A246DF
S21400BC5CF0BDC04670B582B0041C0D1C161C0193BA
S21400BC6C01A800F093F8C3B21A07D20F2A701B096A
S21400BC7C2370019C201C694600F072F8241801946D
S21400BC8C009B012B04DD01A800F076F83080012023
S21400BC9C02B070BD30B50023054C05E02268551C7B
S21400BCAC25601278027001338B42F7DB081C30BD1E
S21400BCBC28020020F0B5051C00227F2680277F4234
S21400BCCC00E0021CCB175B0EC918341C0C40E31AA0
S21400BCDCDBB2C911002901DD3B43DBB2501CAB546F
S21400BCEC0029EEDCF0BDC046F0B54F464646C0B463
S21400BCFC83B080460F1C00230B60002401256E4683
S21400BD0C07367F2189460134042C0FDC301C0121B8
S21400BD1CC04701280AD133784A461A406A43396824
S21400BD2C8A183A60ED015BB2002BECDB201C03B0EA
S21400BD3C0CBC90469946F0BD031C421C02307F2A70
S21400BD4C08DD0549D81C8A4204DD581D03498A4281
S21400BD5C00DC181D7047C046FF3F0000FEFF1F00AA
S21400BD6C08B5034B18600348FFF7BEFF08BDC04676
S21400BD7C28020020A1BC0000021C036818780002F0
S21400BD8C59784018023313607047C04603681A7817
S21400BD9C0133036050B270470368197003680133AF
S21400BDAC0360704710B5CA17120E51180B120468B0
S21400BDBC237003685C1C0460FF2421408A1A5A70A6
S21400BDCC03680133036010BD70B5041C0E1C081C00
S21400BDDC05F07DF8051C201C291CFFF7E3FF2068E6
S21400BDEC311C2A1C04F08FFF23685D19256070BD7A
S21400BDFC30B585B0051C01910393141E0BDD111C88
S21400BE0CFFF7D0FF28680399221C04F07CFF2B68F0
S21400BE1C1C192C6008E00199002902D0FFF7D4FF0A
S21400BE2C02E00021FFF7BEFF05B030BD70B5051C63
S21400BE3C0C1C161C0A68B31A012B0FDD081CFFF726
S21400BE4C9BFF031C6860226811180020B14206D8BC
S21400BE5CAA602268D3182360012000E0002000238B
S21400BE6C2B6070BD00B585B00291002802D005F09D
S21400BE7C2EF800E0029805B000BDC04670B50E1C4A
S21400BE8C0468002C04D0201C05F021F8051C01E0E9
S21400BE9C84684568301C05F01AF80023854206D1E4
S21400BEAC201C311C2A1C05F019F843424341181C6F
S21400BEBC70BDC04610B584B0041C081C111C1A1C9E
S21400BECCFFF7D0FF0230069BC018002C00DD0230B6
S21400BEDC04B010BDF0B55F4656464D46E0B484B08F
S21400BEEC061C8B4692461D1C0CAB1C780DAB1B8897
S21400BEFC99460390129A0092281C0E990F9A109B42
S21400BF0CFFF7D8FF071CFFF717FF58452DDC01235A
S21400BF1C50461840C00003222A40520030210143EC
S21400BF2C11431A1C22409943114303A8FFF734FF10
S21400BF3C039C201C391CFFF7BDFE2018039003A899
S21400BF4C0E990F9A109BFFF753FF002D03DD03A8E5
S21400BF5C4946FFF727FF03981199129A04F0D3FE6F
S21400BF6C039B129A9C18A01B01E00220404204B0CE
S21400BF7C1CBC91469A46A346F0BDC04670B582B02E
S21400BF8C041C06A80688019403291DDD0F21114008
S21400BF9C01200340DB000901063A504242415200A0
S21400BFAC1943114349B201A8FFF7F6FE019D281C60
S21400BFBC0221FFF77FFE2D18019501A8311CFFF713
S21400BFCCF1FE019B181B01E00220404202B070BD3E
S21400BFDCF8B5061C0F1C022500240BE063001B1989
S21400BFEC9B00FB18186859689A68FFF73BFFC31C40
S21400BFFCED180134B442F1DB281CF8BDF0B55746F9
S21400C00C4E464546E0B482B080460F1C9246994692
S21400C01C0A9D0B9E0190281C311CFFF7D9FF041CAF
S21400C02CFFF78AFEB8422FDC012152461140C900A8
S21400C03C802319430223194349B201A8FFF7ACFE2B
S21400C04C019F381C211CFFF735FE3F18019701A8ED
S21400C05C4946FFF7A7FE00240C9B5FB20EE0630078
S21400C06C1B199B00F31801A819685A689B68FFF700
S21400C07CBFFE01A8391CFFF78FFE0134AC42EEDB85
S21400C08C019A4346D01A01E00220404202B01CBC82
S21400C09C90469946A246F0BDF0B5474680B482B0AD
S21400C0AC041C0E1C151C1F1C089B019301A8FFF7F3
S21400C0BC6DFE03061B0F0020092B26D1019B98460C
S21400C0CC181C6946FFF74CFE43461A180192009B53
S21400C0DCD2189046012B18DD01A8FFF74DFE2080E4
S21400C0EC00232B600AE02C68B4420CDC631C2B602B
S21400C0FCA4003C1901A8FFF749FE2060019B4345AC
S21400C10CF1D3012001E00120404202B004BC90466D
S21400C11CF0BDC046416002607047C046031C006814
S21400C12C034A904201D0013000E0012018607047AD
S21400C13CFFFF0000F0B557464E464546E0B482B0C9
S21400C14C81460F1C904600230B60002401256E468A
S21400C15C07367F218A460134042C14DC4B46186DB6
S21400C16C41688C46311C01224346E04701280AD11F
S21400C17C337852461A406A4339688A183A60ED0199
S21400C18C5BB2002BE7DB201C02B01CBC9046994629
S21400C19CA246F0BD70B58B68496859184E1E1EE055
S21400C1AC1C782F2C01D12F2A1ED12B2A05D0232AFE
S21400C1BC03D055B264B2A54216D12B2A0AD15A1C0A
S21400C1CC01E001335A1C8A4207D2127852B22F2A47
S21400C1DCF7D102E0232A00D1331C01300133027858
S21400C1EC002A01D08B42DBD300208B4201D1504277
S21400C1FC504140B270BDC046F0B557464E46454617
S21400C20CE0B4071C0E1C9046002410E03D6DAB6895
S21400C21C99463B691B199A46404600F075FB031C71
S21400C22C281C5146321CC847002807DB2418B44289
S21400C23C04DA404600F04EFB0028E7D0B44206D1A4
S21400C24C381C5430B96900F055FB002001E0012081
S21400C25C40421CBC90469946A246F0BDF0B54F46EF
S21400C26C4646C0B483B0041C0D1C00230193066D17
S21400C27C776843699846081C00F046FB031C301C84
S21400C28C41460122B847012825D1281C00F03CFB6A
S21400C29C021C201C01A9FFF74DFF606901300199B3
S21400C2ACFFF708FD0130019E002E10DD276D7B6820
S21400C2BC984663691B189946281C00F025FB031C3E
S21400C2CC381C4946321CC047019B984206D163690C
S21400C2DC1878000904E00120404201E001204042A9
S21400C2EC03B00CBC90469946F0BDC04638B5016507
S21400C2FC0021002504E00C1DE400041965600131E2
S21400C30C0429F8DD42600361049B8360059B43614E
S21400C31C069BC360002303620377C3640123036098
S21400C32C543000F0D3FA38BDF0B54F464646C0B48C
S21400C33C83B0051C0E1C904601277F420024A146A4
S21400C34C26E0231DDB00EB18596800291FD0301C93
S21400C35CFFF794FD002808D1231DDB00EB18586866
S21400C36C311CFFF717FF002811D0231DDB00EB183C
S21400C37C9B68002B0BD06846311C4246FFF7CAFE62
S21400C38C231DDB00EB189B68684698474F46013424
S21400C39C042CD6DD7B1C0BD1EB6C002B08D068462E
S21400C3AC311C4246FFF7B6FEEB6C684698470027F2
S21400C3BC381C03B00CBC90469946F0BD10B582B044
S21400C3CC041C0020A369002B27D0201C543000F03E
S21400C3DC81FA00281CD0237F002B1CD1684600F065
S21400C3EC75FA6846FA21890000F07CFA2069A16883
S21400C3FCFFF7DEFB011E08DD201C6A46FFF7FCFE7D
S21400C40C00280AD10123237707E00120404204E0EC
S21400C41C0120404201E00120404202B010BDC0465F
S21400C42CF0B58FB0051C0F1CFFF718FF0404240C86
S21400C43C052C4DD00D2C72D00026032C73D107ABD7
S21400C44C00930CAB01930DAB02936B690393EB68F3
S21400C45C049368462A3006A96A4629320BABFFF7C6
S21400C46CADFB0026012861D10AAE069B3370281C52
S21400C47C07A9321CFFF758FF3378002B26D0012B68
S21400C48C0AD10AAB9B8800932869A968042200236A
S21400C49CFFF774FD011C0CE00021022B09D10AAB3E
S21400C4AC9B8800932869A96805220023FFF766FD80
S21400C4BC011C002905DD281C3A1CFFF79DFE061CF6
S21400C4CC01E001267642731C2DD12FE000262AE0CF
S21400C4DCEB68009307A806A90AAA6B69FFF7BAFBD4
S21400C4EC012811D10AAB1B8800932869A96806227B
S21400C4FC0023FFF743FD011E09DD281C3A1CFFF73D
S21400C50C7BFE061E06D107E00126764204E00126D5
S21400C51C764201E001267642731C04D106E0002325
S21400C52C2B770026FFE7281CFFF748FF002E00D0CD
S21400C53C341C201C0FB0F0BD30B583B0041C0D1C91
S21400C54C684600F0C3F96846291C00F0CBF9201C9D
S21400C55C6946FFF765FF013006D0684600F0BAF969
S21400C56C0028F4D0002001E00120404203B030BD8A
S21400C57CF8B5071C0E1C151C01246442281C00F080
S21400C58CA9F9002806D1381C291CFFF749FF041E00
S21400C59CB442F3D1201CF8BD30B59BB0041C0D1C66
S21400C5AC02A82649582204F0AEFB236A002B37D18A
S21400C5BC18A800F08BF918A8616800F093F9002D04
S21400C5CC00D102AD298BA161201C543000F092F9E9
S21400C5DC2069A1682A1CFFF719FA011E23DD201C0E
S21400C5EC18AAFFF709FE002822D1201C022118AA3F
S21400C5FCFFF7BEFF022819D169460631FF230B70E0
S21400C60C68460730002303706269E368FFF78CFA0C
S21400C61C012802D16B4698790AE00120404207E0D7
S21400C62C0120404204E00120404201E0012040424B
S21400C63C002801D1012323621BB030BD6028010005
S21400C64CF0B54F464646C0B48DB0041C0E1C151CE7
S21400C65C1F1C0020089009900791236A002B51D0CC
S21400C66C0AA800F033F90AA8616800F03BF92369C0
S21400C67C9946A3689846201CFFF750FD83B201220A
S21400C68C009207AA01920295484641460022FFF7FF
S21400C69CB5FC011E39DD201C0AAAFFF7ADFD051EF0
S21400C6AC38D1201C09210AAAFFF762FF09282FD1CE
S21400C6BC0023059301235B42069363690093E368AA
S21400C6CC019368461230012105AA06ABFFF7E4FC7D
S21400C6DC291C012800D10699002280290ED10FE0D2
S21400C6EC131DDB00E3185B68002B06D10432D20066
S21400C6FCA4186660A760291C02E00132042AEFDD4C
S21400C70C0D1C07E001256D4204E001256D4201E099
S21400C71C01256D42281C0DB00CBC90469946F0BD08
S21400C72CF0B5474680B48EB0051C141C00230A9343
S21400C73C0B930991006A002859D00CA800F0C6F893
S21400C74C0CA8696800F0CEF82378013B012B03D8BF
S21400C75C281CFFF7E3FCA08023786178A288009160
S21400C76C019209A902AAC1C9C1C2A1680591E268D1
S21400C77C06922869A9680022FFF7ACFB011E39DD7A
S21400C78C281C0CAAFFF738FD061E3BD12378012B7C
S21400C79C15D1281C04210CAAFFF7EAFE04282CD17C
S21400C7ACEB6800936B696846213008A96A4622320A
S21400C7BCFFF750FA012825D00126764222E0022BFC
S21400C7CC20D1281C07210CAAFFF7D2FE072817D168
S21400C7DCEF6800976B696846213008A96A462232D2
S21400C7ECFFF738FA01280DD0012676420AE001261A
S21400C7FC764207E00126764204E00126764201E006
S21400C80C01267642301C0EB004BC9046F0BDC046E5
S21400C81C10B582B0041C684600F058F8684661688B
S21400C82C00F060F82069A168FFF7BCF9011E04DD72
S21400C83C201C6A46FFF7E0FC01E001204042002382
S21400C84C236202B010BDC04670B5041C0E1C151C2D
S21400C85C02689004094BC01803F0F4FA17280CD1A0
S21400C86C20688304064A9B181B689BB2002B04D0D6
S21400C87C311C2A1C01F016FCFFE770BD3000014687
S21400C88C2402014670B5041C0E1C151C0368980483
S21400C89C064BC01803F0D6FA172805D12068311CB1
S21400C8AC2A1C01F049FBFFE770BDC046300001466C
S21400C8BC08B5006801F0F2FA08BDC046024B1A68CB
S21400C8CC01321A607047C0463817002000234360B8
S21400C8DC7047C0464068024B1B68C01AC00F7047B2
S21400C8EC38170020024B1B68C91841607047C046B9
S21400C8FC38170020FA239B005943024B1B68C918B3
S21400C90C41607047381700204068034B1B68C01AFC
S21400C91CC343DB1718407047381700200160034BE1
S21400C92C4360034B8360034BC360704755C80000DD
S21400C93C91C80000BDC8000010B50C1C131C006884
S21400C94C0121221C01F050F910BDC04608B5006844
S21400C95C01F012FA08BDC04603781B024078C018D6
S21400C96C80B270470B0A0370417002307047C046A5
S21400C97CF0B55F4656464D464446F0B485B0039037
S21400C98C0020804600263F24A1462E25AA464F1C92
S21400C99C02970C78019475427541AC466044271C8E
S21400C9AC4D46AF43C02F0DD164460019019D4F462E
S21400C9BC3D402D0249786918039C61184D1C029560
S21400C9CC0C780126002C18D01B1B013B1BB2002B2D
S21400C9DC1CDB002E00D10019029904E00C781470B0
S21400C9EC2C1C01310132651EADB2002CF6D1574617
S21400C9FC17700124A0440132C9E74546002D02D128
S21400CA0C2E23137001320023137001E001204042E4
S21400CA1C05B03CBC90469946A246AB46F0BDC04617
S21400CA2C10B594B00C1C01AA4B23FFF7A1FF431CB6
S21400CA3C02D02018043000E0002014B010BDC04610
S21400CA4CF0B595B0061C0C1C171C01AA4B23FFF75F
S21400CA5C8FFF431C48D02418201CFFF77DFF251C95
S21400CA6C0A350F283ED88300254AD3589F46A37A0A
S21400CA7C3B70E37A7B70237BBB70251C0E35637B87
S21400CA8CFB702FE0301C291C01AA4B23FFF770FF0C
S21400CA9C431C2BD02D1825E0221C0B32A37AD3185E
S21400CAAC5D1C1B78ED181DE00C34301C211C01AAF3
S21400CABC4B23FFF75DFF431C1AD0251812E0301CE1
S21400CACC291C01AA4B23FFF753FF431C12D02D1829
S21400CADC301C291C01AA4B23FFF74AFF431C0BD022
S21400CAEC2D181435281C08E0002006E0002004E071
S21400CAFC002002E0002000E0002015B0F0BDC0468B
S21400CB0CB8280100F8B5041C0E1C171C00211222B4
S21400CB1C04F002F9301CFFF71FFF2080B01CFFF753
S21400CB2C1BFF030401D50123A37043041B0FE37002
S21400CB3C430501D501232371830501D501236371B8
S21400CB4CC30501D50123A371030601D50123E371A7
S21400CB5C0F2318402072301DFFF7FEFE6081B01DBB
S21400CB6CFFF7FAFEA081301C0830FFF7F5FEE081D7
S21400CB7C301C0A30FFF7F0FE2082311C0C310025E9
S21400CB8C06E0301CFFF74CFF011E23D00135ADB27A
S21400CB9C6389AB42F5D8002507E0301C3A1CFFF73A
S21400CBAC4FFF011E18D00135ADB2A389AB42F4D8A5
S21400CBBC002301E001339BB2E2899A42FAD80023A3
S21400CBCC01E001339BB2228A9A42FAD8207A434279
S21400CBDC584102E0FF2000E0FF2040B2F8BDC046FE
S21400CBECF0B557464E464546E0B494B0051C0C1CB2
S21400CBFC92462D4A1388013399B211805046FFF79E
S21400CC0CB1FEED0280214900294389B2FFF7AAFE46
S21400CC1C0121FFF7A7FE0021FFF7A4FE0021FFF776
S21400CC2CA1FE0021FFF79EFE071C01A8211C04F0A4
S21400CC3C46F901A804F04BF980B2814601AD281CD8
S21400CC4C2E2104F026F9061E02D0441BA4B200E0E6
S21400CC5C4C467B1C98463C70002C15D0181C291C86
S21400CC6C221C04F051F943461F19002E04D17B1CDC
S21400CC7C984600233B7007E0631CED184B461C1BC4
S21400CC8C013CA4B2A146DAE740460121FFF76AFE52
S21400CC9C0121FFF767FE5346C01A00B214B01CBC45
S21400CCAC90469946A246F0BD481700200A4B1B68D2
S21400CCBC0120022B0ED90022074B1A60074B1B785B
S21400CCCC012B03D9054B1A70FF2003E00133034AEE
S21400CCDC1370002040B27047401700202C02002032
S21400CCEC034B1870034B1960034A044B1A807047A9
S21400CCFC3C17002044170020221100004817002083
S21400CD0CF0B5474680B48AB0071C0E1C9046284DDA
S21400CD1C287802210022002300F066FF254C002014
S21400CD2C311C226880235B00FFF75AFF82B22878FA
S21400CD3C2168352300933B1C01F042FA1C4E3078D8
S21400CD4C81041D4BC9180C68A4B2002C19D0802382
S21400CD5C5B009C4200D91C1C164E31686B460E3389
S21400CD6C0093221C04AB01F013FB316805A8424665
S21400CD7CFFF7C8FE041C0E4B187800F0FBFE201CB8
S21400CD8C10E0FFF793FF00280BDBD8D1084B187880
S21400CD9C084B196835230093221C3B1C01F010FA33
S21400CDACCDE7002040B20AB004BC9046F0BDC046A9
S21400CDBC3C1700204417002024020146024B1A6838
S21400CDCC01321A607047C0464017002010B51A4C46
S21400CDDC21781A4803F03AF86178194803F036F8C7
S21400CDECA178184803F032F8E178174803F02EF8CB
S21400CDFC164C2178164803F029F86178154803F08C
S21400CE0C25F8A178144803F021F8E178134803F0CC
S21400CE1C1DF8134C2178134803F018F86178124863
S21400CE2C03F014F8A178114803F010F8E1781048D4
S21400CE3C03F00CF810BDC0464002002013600046FC
S21400CE4C126000461160004610600046300200205A
S21400CE5C0F6000460E6000460D6000460C600046F3
S21400CE6C3C0200200B6000460A6000460960004643
S21400CE7C0860004610B5124C201C802102F0E6FF1C
S21400CE8C201C02F0DFFFFFF7A1FF0E4C21780E48A6
S21400CE9C02F0DCFF61780D4802F0D8FFA1780C4850
S21400CEAC02F0D4FFE1780B4802F0D0FF21790A4853
S21400CEBC02F0CCFF6179094802F0C8FF10BDC046ED
S21400CECC0023004644020020036000460260004631
S21400CEDC016000460060004607600046066000469B
S21400CEEC10B5114C201C802102F0B0FF201C02F063
S21400CEFCA9FF0E4C21780E4802F0A8FF61780D4869
S21400CF0C02F0A4FFA1780C4802F0A0FFE1780B48D1
S21400CF1C02F09CFF21790A4802F098FF61790948D3
S21400CF2C02F094FF10BDC0460023004644020020C9
S21400CF3C0360004602600046016000460060004642
S21400CF4C076000460660004610B50B4C0B4B1C6089
S21400CF5C0B4C0C4B1C600C4C0C4B1C60002801D072
S21400CF6C064B1860002901D0064B1960002A01D028
S21400CF7C064B1A6010BDC046D9CD000050000020EC
S21400CF8C81CE00004C000020EDCE000054000020A6
S21400CF9C10B5324A012311680B7011684B700623CA
S21400CFAC11688B70002000231168C87011682C4A19
S21400CFBC1268140E0C71140C4C71140A8C71CA7114
S21400CFCC088180228A720022CA720B734B738B7391
S21400CFDCCB730B744B748B74CB740B754B758B7546
S21400CFECCB750B764B768B76CB761E4B1A780A77F0
S21400CFFC5A784A779A788A77DA78CA771879202214
S21400D00C88545A792123CA540623002003E0CA18F0
S21400D01C10770133DBB20F2BF9D90023002004E084
S21400D02CCA18283210710133DBB23F2BF8D9002313
S21400D03C002004E0CA18683210710133DBB25AB211
S21400D04C002AF7DA6323EC228B548220ED228854D4
S21400D05C5320EE228854EF228B5410BD5417002018
S21400D06C4C17002044020020F0B5474680B484B02C
S21400D07CFFF78EFF524B19683522F023CA54012352
S21400D08CF1228B54F2228B543D20F3228854072035
S21400D09CF4228854F5228B544A4B1878F62288547E
S21400D0AC5878F72288549878F8228854D87880468E
S21400D0BCF92288541A799446FA22604688545F7985
S21400D0CCFB23CF540C22FC23CA540022FD23CA5443
S21400D0DC122200233C4D2E1C07E0501CF45C8A18D0
S21400D0ECE832147101339BB282B2E85C0028F4D1AA
S21400D0FC551CADB28A18E83240461071681C80B2D6
S21400D10C4D19E83562462A71421C92B20818E8306E
S21400D11C0771D41A0C19E43403332371531C9BB2D5
S21400D12C8A18E83237201071581C80B2CB18E833B6
S21400D13C06221A71431C9BB20818E83001240471AD
S21400D14C581C80B2CB18E83303241C71431C9BB2CA
S21400D15C0818E83002715A1C92B2CB18E8330F202C
S21400D16C1871531C9BB28A18E8323A2010715A1C5C
S21400D17C92B2CB18E8333B201871531C9BB28A181A
S21400D18CE832FF2010713820FF30002404E0CA1863
S21400D19CE832147101339BB28342F8D903ABFF22F9
S21400D1AC1A705A709A70DA70084A107843220092F5
S21400D1BC8922920001F004F804B004BC9046F0BD3D
S21400D1CC54170020440200205C0000205817002052
S21400D1DCF0B585B0FFF7DCFE7F4B1B78033B012BCD
S21400D1EC18D87E4B1B6800229A72DA727C4A117829
S21400D1FC19735178597391789973D278DA73794A8E
S21400D20C117803AB19705178597091789970D2785F
S21400D21CDA7005E003ABFF221A705A709A70DA7057
S21400D22C6E4B19683522F023CA540123F1228B5415
S21400D23C0320F22288543D20F32288540720F4223F
S21400D24C8854F5228B54684B1878F62288545878F4
S21400D25CF72288549878F8228854D8788446F9228D
S21400D26C88541F79FA228F545E79FB23CE5403AB75
S21400D27CDA781023FF2A2DD13222FC23CA5404223A
S21400D28CFD23CA54564B1C78FE200C545C78FF20A9
S21400D29C0C549C78802040000C54D8780223FF3322
S21400D2ACC854362081235B00C8540423FF33CA5469
S21400D2BC4C4B187882225200885458780622FF323B
S21400D2CC88549878832252008854DA780823FF33DF
S21400D2DCCA541C23CA18E8320C2010719A1CCB189E
S21400D2ECE933002018710023404D05E0541C8A18C1
S21400D2FCE83210710133A2B2E85C0028F6D1541C57
S21400D30CA4B28A18E83260461071601C80B20C1900
S21400D31CE8342771421C92B20818E8300671D01A0D
S21400D32C0818E43003330371531C9BB28A18E83296
S21400D33C372010715A1C92B2CB18E833082018719B
S21400D34C531C9BB28A18E832012010715A1C92B2F8
S21400D35CCB18E83303201871531C9BB28A18E8329A
S21400D36C062010715A1C92B2CB18E8330F20187195
S21400D37C531C9BB28A18E8323A2010715A1C92B28F
S21400D38CCB18E8333B201871531C9BB28A18E83232
S21400D39C1F2010715A1C92B2CB18E833212018713A
S21400D3AC531C8A18E832FF2010719BB23820FF30CD
S21400D3BC002403E0CA18E832147101338342F9DD05
S21400D3CC0B4B1878432300938922920003AB00F092
S21400D3DCF7FE05B0F0BDC0462D0200205417002005
S21400D3EC4002002050170020440200205C00002061
S21400D3FC5817002030B585B0FFF7CAFD394B1968B1
S21400D40C00238B72CB723522F023CA540123F122EF
S21400D41C8B540422F2200A543D24F3200C54072487
S21400D42CF4200C54F5200B542F4B1C78F6200C547F
S21400D43C5C78F7200C549C78F8200C54DC78F92097
S21400D44C0C541C79FA200C545879FB23C8543220FF
S21400D45CFC23C854FD23CA54244B1C78FE200C54C1
S21400D46C5C78FF200C549D78802464000D55DC7885
S21400D47C0223FF33CC54362481235B00CC54042384
S21400D48CFF33CA541A4B1C78822252008C545C7898
S21400D49C0622FF328C549C78832252008C54DA7805
S21400D4AC0823FF33CA5484235B00C8541D2338203A
S21400D4BCFF30002403E0CA18E832147101338342AB
S21400D4CCF9DD03ABFF221A705A709A70DA70094AAB
S21400D4DC1078432200928922920000F071FE05B06B
S21400D4EC30BDC046541700204402002040020020E5
S21400D4FC5017002058170020F0B54F464646C0B4CB
S21400D50C87B05B4B187883045A4A9B181A6892B2F9
S21400D51C0023002A00D1A5E0574B19686D460E353E
S21400D52C009504AB00F034FF2B88432B00D098E01A
S21400D53C514B1A68147F514B197800238C4200D03B
S21400D54C90E0547F4D4B597800238C4200D089E0F4
S21400D55C947F4A4B997800238C4200D082E0D47F8B
S21400D56C464BD97800238C427CD12023D45C434B89
S21400D57C197900238C4275D12123D45C3F4B597901
S21400D58C00238C426ED180B2111CF03112181C1C78
S21400D59C3B4F3C4E3C4B9C463C4D60E00B78062B80
S21400D5AC30D006D8012B14D0002B0DD0032B1AD05C
S21400D5BC50E0352B0AD002D8332B2FD04AE0362B2E
S21400D5CC3ED0FF2B4AD045E0013148E08C78033141
S21400D5DC45E08B782B70CB786B700B79AB704B79F6
S21400D5ECEB7006313BE0487881468B782848037010
S21400D5FCCB7843700879264B98704879D870494494
S21400D60C02312CE048788B783B70CB787B700B79AA
S21400D61CBB704B79FB700918023120E08B786046A2
S21400D62C03601B029846CB7843441B0298460B7942
S21400D63C43441B0298464B794344036006310EE084
S21400D64C8B783370CB7873700B79B3704B79F3702F
S21400D65C063104E08B1C4978591800E0111C9142E5
S21400D66C9CD3E3B258B207B00CBC90469946F0BDBA
S21400D67C58170020240201465417002044020020AC
S21400D68C4C020020501700205800002030020020CA
S21400D69C3C02002070B582B0134C201C02F0D2FB6A
S21400D6AC061C201C032102F0D1FB104B1878104BE3
S21400D6BC009310491122104B00F082FD051C201C13
S21400D6CC311C02F0C3FB01230D3509D0FFF792FE87
S21400D6DC0A4B19681A1C13685B1A012BFBD900231A
S21400D6EC58B202B070BDC0464460004658170020C1
S21400D6FC881300000C290100400200203402002090
S21400D70C0023044A13600521034A1160034A137070
S21400D71C7047C0463402002048000020500200200B
S21400D72C10B5214B1B785BB2012B23DC1F4B1A6800
S21400D73C1F4B1B6801249A4233D21E4B1B78022BBC
S21400D74C06D0042B07D0012B07D1FFF78DFC04E085
S21400D75CFFF73EFD01E0FFF73BFD154B00221A607C
S21400D76C1A680532114B1A600F4B1A7801321A7070
S21400D77C012416E00F4B1B78022B09D0042B07D084
S21400D78C0124012B0BD100220A4B1A70002406E050
S21400D79CFFF76AFC0122074B1A700124FFE7FFF71C
S21400D7ACAFFF201C10BDC0465002002048000020D1
S21400D7BC340200202D02002010B5654B1B785BB29E
S21400D7CC0520062B00D1C1E0624B18788004624A13
S21400D7DC801802F037FB222806D05E4B1878022100
S21400D7EC4422002300F000FAFFF786FEC0B2584B26
S21400D7FC1A78042A00D9A5E09300584AD3589F46B5
S21400D80C574B00221A705A709A70DA70FFF72CFC7D
S21400D81C01224F4B1A70012497E0022811D1514B6C
S21400D82C1A68117C4E4B1970517C5970917C99700A
S21400D83CD27CDA70FFF7CCFC0222454B1A7001241E
S21400D84C83E0FFF76DFF041C7FE0052817D1FFF778
S21400D85C21FF002809D0444B1B689847FFF750FF60
S21400D86C03223B4B1A7001246FE0FFF749FF3F4B36
S21400D87C1B6898470022364B1A70012465E0062870
S21400D88C06D1FFF73DFF0122314B1A7001245CE0F4
S21400D89CFFF746FF041C58E0354B1B685A1C53D048
S21400D8AC5B08344A1268042493424ED22C4A1178F0
S21400D8BC314B19705178597091789970D278DA701A
