S012000057697A494F5F426F6F742E737265634D
S11300000040002065010000591500005D15000046
S113001000000000000000000000000000000000DC
S11300200000000000000000000000006D1500004A
S113003000000000000000007115000075150000AC
S11300407D1500008115000085150000891500004C
S11300508D15000000000000000000009115000054
S113006095150000991500009D150000A1150000CC
S1130070A5150000AD150000B5150000B915000068
S1130080BD150000C1150000C5150000C91500000C
S1130090CD150000D1150000D5150000D9150000BC
S11300A0DD150000E115000070B582B0224B234A33
S11300B0002101E0196004339342FBD3204B214A11
S11300C0214903E010681860043304328B42F9D3E9
S11300D001F08CFA01A8694601F0BAFA1B4B1C4DD9
S11300E0ED1AAD1000241E1C03E0A3009B59984791
S11300F00134A542F9DC174B174DED1AAD1000245D
S11301001E1C03E0A3009B5998470134A542F9DC67
S11301100198009901F0F0F8061C104B104CE41AF9
S1130120A4101D1C03E0013CA3005B599847002C5C
S1130130F9DC301C01F056FAAC0000200C1E002043
S1130140000000209C4D0000AC0000207C01000059
S11301507C0100007C0100007C0100007C010000A7
S11301607C010000A0E7C046FEE7C046FEE7C046AB
S10F0170FEE7C046FEE7C046FEE7C046BE
S113017C08B5011C72B612200022002302F03AFDCD
S113018C62B608BD08B5011C72B613200022002308
S113019C02F030FD62B608BD38B5051C0B1C141CEE
S11301AC72B62220291C1A1C231C02F023FD62B6F1
S11301BC201C38BD10B5002302E0C45CCC540133C0
S11301CC9342FAD3181C10BD70B5061C0D1C012AE1
S11301DC0AD106E0231C08331803FFF7D3FF0134BC
S11301EC00E00024162CF5DD064B19684A191A6038
S11301FC054C2068311C2A1CFFF7CEFF22685519C8
S113020C256070BDAC0000200000002000B585B056
S113021C42000A4BD35A009301236A4613710B22F2
S113022C02926A4613738000054BC058694602F06B
S113023C83FE044800F002F905B000BD1C48000020
S113024C040000201027000008B58200044BD3588A
S113025C4000044A815A181C02F030FD08BDC04607
S113026C040000201C4800008200044BD358596839
S113027C4000034A825A4A405A60704704000020E6
S113028C1C48000000B585B00223009300236A4685
S113029C1371012313738420C005694602F04CFECC
S11302AC05B000BD08B58420C005022102F0B2FCE3
S11302BC08BDC04600B585B080231B020093012302
S11302CC6A461371032202926A4613738820C0058E
S11302DC694602F031FE05B000BDC04608B5882061
S11302ECC0058021090202F0E9FC08BD08B588208C
S11302FCC0058021090202F00FFD08BD08B50128D4
S113030C02D1FF20400201E0FE204002FFF752FF21
S113031C08BDC04670B50E1C151C012802D1FF2463
S113032C640201E0FE246402201CFFF721FF601C20
S113033CFF30FFF71DFF201C311C2A1CFFF72CFF7C
S113034C70BDC04608B51D4802F014FC002833D01B
S113035C1A4802F02FFC1A4B1868013018606321FC
S113036C03F000F900291BD1164B1B78002B04D188
S113037C154B1A7801321A7003E0134B1A78013AB0
S113038C1A70114B1878022803D101220D4B1A70E4
S113039C04E0002802D100220A4B1A70FFF764FF14
S11303AC074B1868094903F0DDF8002904D1002231
S11303BC034B1A6001F01EFC08BDC046001000403F
S11303CCBC000020B8000020B0000020E7030000AF
S11303DC08B5064802F0CEFB002806D0034802F00C
S11303ECE9FB034B1A6801321A6008BD0020004077
S11303FCB400002010B582B00D4B00930023694665
S113040C4B7140220A71CB7102238B71094C201C55
S113041C02F008FB201C012102F07AFB802252011D
S113042C054B1A60201C012102F0C8FA02B010BD61
S113043C3F1F00000010004000E100E082B001907A
S113044C019B5A1E0192002BFAD102B07047C04690
S113045C10B582B0041C03F003F8074903F03EF80E
S113046C4443019402E0019B013B0193019B002B4B
S113047CF9D102B010BDC046102700000FB400B56E
S113048CA3B024AA08CA219201A8191C03F05EFD8A
S113049C01A801F043F823B008BC04B01847C046C7
S11304AC00487047C0000020F8B55F4656464D46DC
S11304BC4446F0B46E4CE12323800423A37000253E
S11304CCE5702571652082466071A571E571C022C5
S11304DC9046A273A827E77325746420834660743E
S11304ECA274E7742575012291466275FF23A375E6
S11304FCE375237665760823A376E376237763770F
S113050C5C4E201C1E30311C0A2203F04CF8231CB8
S113051C2833321C03CA03C312881A80201C3230BD
S113052C0C36311C192203F03EF8201C4B30311CC4
S113053C192203F038F843465A46A354504627541C
S113054C6623E55402226723E2544B4B6822A352E0
S113055C6A22A3526C234946E1546D23E5546E235D
S113056CE55400226F23E2547023E25400234048E4
S113057C0124002108E05A00D218821870325470F9
S113058C9170D1700133DBB2032BF4D900233848BA
S113059C01260025002412E05900CA1852008218C2
S11305AC78325671D5801472CA1852008218783277
S11305BC191C0A315172090A91720133DBB2012BF5
S11305CCEAD900232A4D0122904600210024A44696
S11305DC3227642618E09800C2185200AA188832F0
S11305EC444654705180644614715C001434547144
S11305FC240A9471D7711172C2185200AA1890323D
S113060C567091700133DBB2012BE4D9184C194E9E
S113061C201C9D30311C2831142202F0C4FF201CF4
S113062CB130311C0A2202F0BEFF0025BB23E55475
S113063CBC23E554201CBD30311C40311E2202F079
S113064CB2FF18235B42DB22A3540321DC22A15406
S113065CDD22A354DE230322E2542C22DF23E254B2
S113066CE023E5543CBC90469946A246AB46F8BD03
S113067CC0000020244800008813000010B50D4C65
S113068C0120211CE122FFF739FE2288013A92B2A3
S113069C094B9A4206D9FFF707FF01200549E122CD
S11306ACFFF738FE034B65225A7100229A71DA71F6
S11306BC10BDC046C0000020FDFF000070B5064C04
S11306CC6D25665D002363550120211CE122FFF793
S11306DC21FE665570BDC046C000002008B502F06E
S11306EC62FF08BD08B502F05EFF08BD10B586B008
S11306FCFFF7D6FE041C011C083168460622FFF7DE
S113070CEDFF211C0E31684606300422FFF7E6FF8C
S113071C211C123168460E300422FFF7DFFF211C26
S113072C163168460A300422FFF7D8FF211C1A310F
S113073C684612300422FFF7D1FFBB23E35C002B85
S113074C03D002236A46937502E001236A4693752B
S113075C0020694602F0E2F806B010BD031C303BE1
S113076CDBB258B2092801DDD81F40B20F2801DDD5
S113077C203840B27047C04638B50D1C40B2FFF764
S113078CEDFFC4B22401E4B268B2FFF7E7FF20180E
S113079CC0B238BD70B584B0234B1B7A002B09D181
S11307AC214B5B7A0024082B05D11F4B9B7ADC2B45
S11307BC37D000E000241D4D0026281CFFF75EFEF8
S11307CC00F0B8FEC3B26A461370532B0CD1184810
S11307DCFFF754FE341C04E000F0ACFE6B461855D5
S11307EC01340B2CF8D90124002CE6D011486946AD
S11307FCFFF744FE002500240B4E09E06B1C6A46EF
S113080C505DD15CFFF7B8FF33191872013402350F
S113081C062CF3D9FFF748FEFFF750FF0648FFF705
S113082C2DFE04B070BDC046C00000201449000069
S113083C24490000284900003C490000BFF34F8FB5
S113084C024A034BDA60BFF34F8FFEE70400FA054C
S113085C00ED00E030B5002305E0CC1825784540C8
S113086C257001339BB29342F7D330BD30B50023CE
S113087C05E0CC1825784540257001339BB2934292
S113088CF7D330BDF0B54F464646C0B4FDB0061C98
S113089C8946141CFFF704FE80466D46EF35FF3580
S11308AC301C0B212A1C01F06DFC6279A7793F02E4
S11308BC17432A8897425AD16B460A330093301C4B
S11308CC3EA9062203AB01F053FB63785AB2002A0B
S11308DC08DA7F2018406B46EF33FF331A883EA9A1
S11308ECFFF7C4FF414608313EA8062202F04CFE35
S11308FC00283CD119235B4263710023A371552357
S113090C23714146083104A8062202F04CFE6846C5
S113091C16304146E12202F046FE63785AB2002AB0
S113092C05DA7F20184004A9E722FFF793FF40A8BB
S113093C211C072202F037FE68460830FF3004A958
S113094CE72202F030FEA378002B04D14846FF21A5
S113095C042202F031FE49460A794B791B021343F7
S113096C0093301C40A9EE224B4601F019FA7DB0DD
S113097C0CBC90469946F0BDF0B557464E464546DC
S113098CE0B4A4B0061C8946141CFFF789FD80460C
S113099C6D468E35301C0B212A1C01F0F3FB627959
S11309ACA7793F0217432A88974200D0FEE0E378E8
S11309BC5F33DAB2042A00D9F8E093007E4AD358A4
S11309CC9F466B463E330093301C02A9072210ABA2
S11309DC01F0CEFA63785AB2002A07DA7F20184065
S11309EC6B468E331A8802A9FFF740FF4146023149
S11309FC02A8032202F0C8FD002800D193E0D5E040
S1130A0C6B463E330093301C02A90C2210AB01F050
S1130A1CAFFA63785AB2002A07DA7F2018406B4683
S1130A2C8E331A8802A9FFF721FF02AB1A784046CD
S1130A3C037A9A4200D9B9E002AA5178427A9142D7
S1130A4C00D9B3E002A988784546A97A884200D92E
S1130A5CACE002A8C5784746F87A854200D9A5E0EF
S1130A6C02AD2D79AC463D7BAC4500D99EE002AF7E
S1130A7C7F79BC4647467F7BBA46BC4500D995E096
S1130A8C02AFBF79BB4200D990E002ABDB799A424A
S1130A9C00D98BE002AB1B7A994200D986E002ABF9
S1130AAC5B7A984200D981E002AB9B7A9D427DD857
S1130ABC02ABDB7A9A4536D978E06B463E33009329
S1130ACC301C02A9212210AB01F052FA63785AB2FD
S1130ADC002A07DA7F2018406B468E331A8802A945
S1130AECFFF7C4FE02A802F007FE021C02A841464E
S1130AFC9D3102F049FD002815D057E06B463E337A
S1130B0C0093301C02A9342210AB01F031FA637843
S1130B1C5AB2002A07DA7F2018406B468E331A88A3
S1130B2C02A9FFF7A3FE0C2363710023A3715523C1
S1130B3C23714146023111A8032202F034FD4146CF
S1130B4C053168464730032202F02DFD4146083139
S1130B5C68464A30062202F026FD63785AB2002A0F
S1130B6C05DA7F20184011A90C22FFF773FE14A894
S1130B7C211C072202F017FD6846573011A90C22DC
S1130B8C02F011FDA378002B04D14846FF21042266
S1130B9C02F012FD4846027943791B021343009379
S1130BAC301C14A913224B4601F0FAF824B01CBCD7
S1130BBC90469946A246F0BD60490000F0B54F46F8
S1130BCC4646C0B4484CA544061C8946141CFFF781
S1130BDC67FC8046454D6D44301C0B212A1C01F0EA
S1130BECD1FA6279A7793F0217432A88974274D1C4
S1130BFC6B460A330093301C3EA9F82203AB01F078
S1130C0CB7F963785AB2002A07DA7F201840374BB9
S1130C1C6B441A883EA9FFF729FE414608313EA8C9
S1130C2C062202F0B1FC002857D16846FF30414639
S1130C3CB13102F04FFD00284FD1404669461031C6
S1130C4CFF31E122FFF74EFD652341464B71002530
S1130C5C8D71CD71FFF732FD19235B426371A57160
S1130C6C552323714146083104A8062202F09BFC4B
S1130C7C684616304146E12202F095FC63785AB27C
S1130C8CAA4205DA7F20184004A9E722FFF7E2FD07
S1130C9C7CA8211C072202F086FC6846F830FF3041
S1130CAC04A9E72202F07FFCA378002B04D1484668
S1130CBCFF21042202F080FC4B461A795B791B025B
S1130CCC13430093301C7CA9EE224B4601F068F8C8
S1130CDC6420FFF7BDFBFFF7B1FDB9239B009D44D6
S1130CEC0CBC90469946F0BD1CFDFFFFDE020000D3
S1130CFCF0B54F464646C0B491B0061C8946141C48
S1130D0CFFF7CEFB80466D463E35301C0B212A1C6A
S1130D1C01F038FA6279A7793F0217432A8897427F
S1130D2C5CD16B460A330093301C06A9172203AB23
S1130D3C01F01EF963785AB2002A06DA7F201840B3
S1130D4C6B46DA8F06A9FFF791FD4146083106A8D8
S1130D5C062202F019FC002840D168461F30414697
S1130D6CB13102F0B7FC002838D10622627100239D
S1130D7CA371552323714146083104A802F013FCD6
S1130D8C63785AB2002A05DA7F20184004A9062297
S1130D9CFFF760FD0CA8211C072202F004FC684636
S1130DAC373004A9062202F0FEFBA378002B04D1F1
S1130DBC4846FF21042202F0FFFB49460A794B798D
S1130DCC1B0213430093301C0CA90D224B4600F05C
S1130DDCE7FF6420FFF73CFBFFF730FD11B00CBCC0
S1130DEC90469946F0BDC046F0B557464E4645462A
S1130DFCE0B4B8B0061C8946141CFFF751FB8246BC
S1130E0CFFF74EFB80466D46C635301C0B212A1C61
S1130E1C01F0B8F96379A7793F021F432A889742F6
S1130E2C00D098E06B460E330093301C1DA94F2262
S1130E3C04AB01F09DF8E378D12B00D08BE0637800
S1130E4C5AB2002A07DA7F2018406B46C6331A8838
S1130E5C1DA9FFF70BFD414608311DA8062202F01F
S1130E6C93FB002877D168467B304146B13102F0C0
S1130E7C31FC00286FD157460837162532A8391C87
S1130E8C2A1C02F090FBFFF7F9FB381C32A92A1C30
S1130E9C02F089FBFFF712FC05A8211C072202F0C3
S1130EAC82FB062568461B3049462A1C02F07BFB54
S1130EBC6846213069468B31042202F074FB684683
S1130ECC253069468F31022202F06DFB68462730CB
S1130EDC69469131322202F066FB002005A94522B5
S1130EECFFF718FA65710023A3715523237141464A
S1130EFC083117A82A1C02F056FB63785AB2002A50
S1130F0C05DA7F20184017A92A1CFFF7A3FC19A89F
S1130F1C211C072202F047FB68466B3017A90622F6
S1130F2C02F041FBA378002B04D14846FF21042294
S1130F3C02F042FB49460A794B791B021343009396
S1130F4C301C19A90D224B4600F02AFF6420FFF730
S1130F5C7FFAFFF773FC38B01CBC90469946A24646
S1130F6CF0BDC046F0B54F464646C0B491B0061C21
S1130F7C8946141CFFF794FA80466D463E35301CA6
S1130F8C0B212A1C01F0FEF86279A7793F02174362
S1130F9C2A88974260D16B460A330093301C06A909
S1130FAC172203AB00F0E4FF63785AB2002A06DA86
S1130FBC7F2018406B46DA8F06A9FFF757FC414691
S1130FCC083106A8062202F0DFFA002844D168464C
S1130FDC1F304146B13102F07DFB00283CD1FFF7B4
S1130FEC63FAFFF76BFB062262710023A37155238E
S1130FFC23714146083104A802F0D5FA63785AB239
S113100C002A05DA7F20184004A90622FFF722FCE7
S113101C0CA8211C072202F0C6FA6846373004A932
S113102C062202F0C0FAA378002B04D14846FF2113
S113103C042202F0C1FA49460A794B791B02134384
S113104C0093301C0CA90D224B4600F0A9FE642021
S113105CFFF7FEF9FFF7F2FB11B00CBC9046994672
S113106CF0BDC04670B59CB0051CFFF719FA061C00
S113107C281C00F0CDFD281C0221274A002300F077
S113108C01FE04AC0020211C4522FFF737F906238E
S113109C63710023A371D223E37055232371311C94
S11310AC083116A8062202F07EFA63785AB2002A96
S11310BC05DA7F20184016A90622FFF7CBFB04ACF7
S11310CC18A8211C072202F06EFA6846673016A98C
S11310DC062202F068FAA378002B05D16846173073
S11310ECFF21042202F068FA03A86946173104228E
S11310FC02F059FA6C460A34201C69461B31022250
S113110C02F051FA23880093281C18A90D2203AB72
S113111C00F046FE1CB070BD9619000030B589B0C5
S113112C051C6C461F340A21221C01F02BF8237871
S113113C002B51D0222B55D107AC281C0921221C81
S113114C01F020F82388062B4CD903AC06AB009392
S113115C281C211C072205AB00F00AFF2378A52BC1
S113116C40D103AB1B79AA2B3CD103ABDB780F2208
S113117C9343C02B18D004D8A02B09D0B02B0DD07E
S113118C30E0E02B1CD0F02B20D0D02B2AD111E056
S113119C281C05A903AAFFF7EFFB23E0281C05A9CB
S11311AC03AAFFF76FFB1DE0281C05A903AAFFF790
S11311BC05FD17E0281C05A903AAFFF715FE11E08D
S11311CC281C05A903AAFFF793FD0BE0281C05A90D
S11311DC03AAFFF7C7FE05E0281C0221024A0023DC
S11311EC00F050FD09B030BD9619000003480068AA
S11311FC854603480068874670470000008000005D
S113120C0480000000B5C1B0002303E01A786946DD
S113121CCA540133FF2BF9D972B62220FE21C9011D
S113122C6A4680235B0001F0E5FC62B641B000BD68
S113123C00B5C1B0002303E01A786946CA540133DF
S113124C072BF9D9082304E0C21812786946CA544A
S113125C0133A72BF8D9A82303E01A786946CA549A
S113126C0133FF2BF9D972B612200021002200237E
S113127C01F0C0FC222000216A4680235B0001F0AF
S113128CB9FC62B641B000BD30B593B000206946DC
S113129C4522FFF733F86A4613780020A52B22D198
S11312AC507B0006937B1B041843D37B1B0218430F
S11312BC137C18436946133100F086FC00F026FCBD
S11312CC041EFBD002280DD10220FFF7CBFE4525CE
S11312DC684600212A1C02F06FF9002069462A1C7A
S11312ECFFF718F8201C13B030BDC04670B582B09F
S11312FC02F0E0F802F0B4F8FA21890002F0EEF8FA
S113130C01385D4B98420DD85C4B58605C4A106AAE
S113131C0002000AC02109060143116200229A60EE
S113132C07221A6002F09CF8564902F0D7F8564B83
S113133C1860E120400201F0C7FF012001F0D0FF4A
S113134CFE23DB011B68013302D1FFF75BFF03E0D3
S113135CFE20C001FFF76CFF0020FEF757FF0120B1
S113136CFEF754FF0220FEF751FF0020FEF76CFF3E
S113137C0120FEF769FF0220FEF766FFFEF79AFFD5
S113138CFEF7B4FFFEF77EFFFFF778F9FFF732F8AC
S113139CFFF700FAFEF7A2FF002300936A4693803E
S11313AC0820694601F026F9384802F089F93848D2
S11313BC694602F009F9374802F082F902F056F84E
S11313CC011C354802F000F902F04AF8011C3348BC
S11313DC02F0FAF88620C005802109028022D2018D
S11313EC01F036FF012801D12D4900E02D492E488A
S11313FC02F0EAF801F05CFF012801D12B4900E06E
S113140C2B492C4802F0E0F8FFF770F901202A4927
S113141C00F066FBFFF738FF041CFEF743FF011CCA
S113142C2648221C02F0D0F8FEF73CFF012811D10B
S113143C012C0FD080231B021B6801330AD080209F
S113144C0002FFF7F5FE1E4802F03AF9FEF74EFFD4
S113145CFFF7CCFEFEF74AFF1A4C261C0025237816
S113146C002B03D10220FFF759FEF8E700F04EFBE6
S113147C0028F4D03570F2E7FFFFFF0010E000E025
S113148C00ED00E010270000002000468C4900000D
S113149CBC490000D0490000004A00001C4A00006E
S11314AC744900007C490000384A0000844900005B
S11314BC88490000504A0000300A0020644A0000A9
S11314CC884A0000A4010020044B1B68002B03D0A5
S11314DC024B1A68013A1A607047C046A8010020F2
S11314EC08B5031C0A1C0248191C02F06DF8FEE72F
S11314FCA44A000010B5041C01F00EFF201C10BD02
S113150C70B50E1C151C002403E0305DFFF7F2FFD0
S113151C0134A542F9D8281C70BDC04638B5051C49
S113152C2C78002C02D0201C01F0F6FE0135002C86
S113153CF6D138BD08B5044902224B681A42FCD0D6
S113154C01F0F4FEC0B208BD006000407047C04614
S113155C08B5024802F0B4F8FEE7C046D44A0000CD
S113156C7047C0467047C04608B5FFF7ADFF08BDCD
S113157C7047C0467047C0467047C0467047C04667
S113158C7047C0467047C0467047C0467047C04657
S113159C7047C0467047C04608B5FEF7D3FE08BD79
S11315AC08B5FEF715FF08BD7047C0467047C04626
S11315BC7047C0467047C0467047C0467047C04627
S11315CC7047C0467047C0467047C0467047C04617
S11315DC7047C0467047C04608B500F005F8C046D1
S11315EC08B501F067FF08BDBFF34F8F024A034BE8
S11315FCDA60BFF34F8FFEE70400FA0500ED00E05C
S113160C08B50D4B1B68002B02D10C4A0A4B1A600F
S113161C094B1B680330032290431818084A904264
S113162C06D901F0ABFF0C2303600120404202E019
S113163C014A1060181C08BDAC0100200C1E0020CF
S113164C0037002001230360014B0B607047C04638
S113165C1000002008B501F091FF5823036001200D
S113166C404208BD08B501F089FF582303600120EE
S113167C404208BD08B501F081FF582303600020E7
S113168C08BDC04608B501F079FF5823036001205A
S113169C404208BD08B501F071FF582303600120D6
S11316AC404208BD0302000A184380B27047C0468A
S11316BC020603041B0E1B041343020C1206120C29
S11316CC1343000E1843704708B5FFF7EBFF08BD32
S11316DC08B5FFF7EDFF08BD08B5FFF7F5FF08BD2A
S11316EC08B5FFF7E5FF08BD00230B4A13700B4A3E
S11316FC13600B4A13800B4A13800B4A13600B4A7A
S113170C13800B4A13600B4A13600B4A13600B4B88
S113171C00221A707047C046BC010020B40100209E
S113172CD8010020DA010020DC010020D2010020C5
S113173CE4010020D4010020E0010020D0010020AD
S113174C054B1B68002B06D00023034A1360034A85
S113175C1360034A13607047E4010020D401002095
S113176CE0010020064B1B68002B07D10122044B1F
S113177C1A600023034A1360034A13607047C0467F
S113178CE4010020D4010020E001002030B583B036
S113179C041C02210B4A012300F074FAC5B2A542C1
S11317AC0BD16C460734281C0A21221C00F0EAFCDD
S11317BC2378222BF7D1281C01E00120404203B0EE
S11317CC30BDC04638C7000008B5031C0A1C0248CB
S11317DC191C01F0E8FE08BDBC010020F0B585B071
S11317EC071C0D1C141C181C03930AAB1E88FFF752
S11317FC6FFF0390F8B2A2B20096291C03AB00F061
S113180CCFFA031CA34201D00120404205B0F0BD25
S113181CF0B557464E464546E0B42C4CA54481469B
S113182C0E1C90469A460120FFF74EFF03AB18801E
S113183C68460E30494601F057FF484601F05CFFFC
S113184C441C0E236B441C19201C311C01F04CFF4E
S113185C301C01F051FF451C6519002416E0E6000C
S113186C46443768281C391C01F03EFF381C01F033
S113187C43FF01302D187668281C311C01F034FF0D
S113188C301C01F039FF01302D180134A245E6D883
S113189C03A96A1A0E4B1B680E4800684524009471
S11318ACFFF79CFF01220C4B1A60484601F024FF01
S11318BC411C4846FFF788FFFFF754FFBF23DB00AA
S11318CC9D441CBC90469946A246F0BD08FAFFFF05
S11318DCB401002018000020DC01002030B585B0D4
S11318EC051C0420FFF7F0FE03AC2080281CFFF736
S11318FCEBFE6B46D881074B1B68074A12880749D5
S113190C08680092211C0422FFF768FFFFF72AFFE6
S113191C05B030BDB4010020D8010020180000200F
S113192C08B50B4B1B68012B02D0022B09D00DE020
S113193C0522074B1A60FFF703FF0020FFF7CEFFC9
S113194C04E00422024B1A60FFF7FAFE08BDC046FD
S113195CDC010020F0B585B00E1C171C1D1CC4B294
S113196C201C0A216A460F3200F00CFC01281FD1FE
S113197C6B460F331B78222B1DD1201C092103AA83
S113198C00F000FC012819D103AB1B88002B18D0E4
S113199CBAB20A9B0093201C311C2B1C00F0E8FAF1
S11319AC03AC20802868FFF79BFE286020880AE09F
S11319BC0120404207E00120404204E00120404263
S11319CC01E00120404205B0F0BDC04610B5041C36
S11319DC0088FFF781FE20806088FFF77DFE608021
S11319ECFFF782FE0122014B1A7010BDD0010020BA
S11319FC38B5041C0D1C0088FFF76EFE208060882F
S1131A0CFFF76AFE82B26280194B1B68032B14D059
S1131A1C052B01D0012B29D1012A0AD10321144B06
S1131A2C1960144B1A80201D291FFEF7CDFBFFF7FC
S1131A3C87FE6088FFF752FF18E00E4B1B880133BA
S1131A4C9A4207D10B4B1A80201D291FFEF7BCFBB1
S1131A5CFFF776FE6088FFF741FF043D064B9D427D
S1131A6C04D8FFF741FE0222044B1A7038BDC0465D
S1131A7CDC010020D2010020FF010000D001002075
S1131A8CF8B5051C0E1C1F1C124C2468A24220D154
S1131A9C0088FFF721FE104B1B68022B01D0012B91
S1131AAC01D10E4B1F800004000C05280DD0062814
S1131ABC06D003280DD1281C311CFFF799FF08E030
S1131ACC281C311CFFF72CFF03E0281C311CFFF7EA
S1131ADC7DFFF8BDB4010020DC010020D8010020FA
S1131AEC10B5041CFFF700FE201CFFF74FFE044B3F
S1131AFC186004480021044A01F05EFD10BDC04684
S1131B0C1800002020180020EA05000070B582B0EF
S1131B1C1F4B1B68002B23D01E4B1B68042B1FD997
S1131B2C1D4B1B68032B09D0052B07D0012B09D1A6
S1131B3C1A481B491B4AFFF76BFE03E01A4B188823
S1131B4CFFF7CCFE0022134B1A60184A13680133BA
S1131B5C1360042B04D9FFF7C7FD0122144B1A7030
S1131B6C144B1868144C154E154D0095211C154A30
S1131B7C331CFFF7EFFE32682B889BB20104090C6F
S1131B8C201CFFF77DFF0A4B187802B070BDC046CD
S1131B9CE4010020D4010020DC010020BC01002061
S1131BACF04A00001C000020D2010020E0010020BB
S1131BBCD00100201800002020180020E80100208B
S1131BCCB8010020EA05000008B5064A106000229E
S1131BDC054B1A70081C0549054A0123FFF718FE2A
S1131BEC08BDC046B4010020D0010020F04A00001A
S1131BFC1C000020044B1B68002B03D0034B1A68F9
S1131C0C01321A607047C046E4010020D401002060
S1131C1C70B5051E082D26D88604144BF418201C08
S1131C2C102101F08DFB201C01F086FB0028FAD159
S1131C3C0F4BF0181F2101F083FB0121A9400D4B20
S1131C4C1A888A431A806A0000210B4BD1520B4B21
S1131C5C00225A550A4BF418201C01F06DFB002885
S1131C6CFAD1012000E0FF2040B270BD1000014603
S1131C7C28000146EE010020F8010020F0010020AC
S1131C8C30000146F0B5474680B4051C0E1C141CEC
S1131C9C1F1C082861D8002961D0022901D9042904
S1131CAC5DD106233B425CD1002F0DD0012E02D016
S1131CBC022E04D008E021233B4205D153E0BA069E
S1131CCC02D57BB2002B50DA281CFFF7A1FFAB0422
S1131CDC9846284A101C40440F23391C994331431D
S1131CEC01F02EFB002C0AD1234A1488631C9BB2EE
S1131CFC1380224A934202D1214A1F4B1A80214A53
S1131D0C131C43441C60204B1C1C4444201C012108
S1131D1C01F016FB201C01F00FFB0028FAD1012363
S1131D2C1F40AF40194B1A8817431F800121A9404B
S1131D3C174B1A888A431A806B000021154A995252
S1131D4C154B00225A55154A141C4444201C01F00E
S1131D5CF3FA0028FAD0E8B208E0FF2006E0FB20F2
S1131D6C04E0FA2002E0FA2000E0FA2040B204BCBD
S1131D7C9046F0BD0000014624000020F0FF000056
S1131D8C00C0FFFF1401014610000146EC010020C5
S1131D9CEE010020F8010020F00100203000014683
S1131DACF0B55F4656464D464446F0B483B00090B9
S1131DBC0191171C1C1C0CAB1D88082800D9A0E031
S1131DCC804683049B465D4A101C584401F0B4FAC7
S1131DDC0F231840022802D0042800D094E0002FCE
S1131DEC00D194E023781B0262789B181B02A27822
S1131DFC9B181B02E2789B180438421E9041C0B217
S1131E0C5A425341034200D084E06B426B4103427B
S1131E1C00D082E04A4B1E1C5E44301C01F08CFA4C
S1131E2C422801D022287BD12178464A101C5844E0
S1131E3C01F086FA6178444B181C584401F080FA7E
S1131E4CA178424A101C584401F07AFAE178404BCC
S1131E5C181C584401F074FA3E4A131C5B441D6070
S1131E6C3D4B181C584401F067FA8502ADB2AF42E1
S1131E7C00D83D1C394A171C5F44394B9A46012241
S1131E8C91463C68A4B2301C01F056FA00284AD0A2
S1131E9C52461388424613414A461A4201D0AC4278
S1131EAC44D3AC42EDD3009801992A1C01F066FA94
S1131EBC2C4B1C1C5C44201C202101F041FA201CDE
S1131ECC01F03AFA0028FAD1274A161C5E44102471
S1131EDC0827301C01F030FA044207D0234B181C9D
S1131EEC5844102101F02CFA281C20E00742F0D0B1
S1131EFC1E4A101C5844082101F022FA0D204042BD
S1131F0C15E00120404212E0052040420FE00E2073
S1131F1C40420CE00C20404209E00B20404206E019
S1131F2C0720404203E00420404200E0002003B0BC
S1131F3C3CBC90469946A246AB46F0BD0000014617
S1131F4C30000146270101462601014625010146C0
S1131F5C2401014620010146000201460402014607
S1131F6CEC01002010000146200001462800014627
S1131F7CF0B55F4656464D464446F0B487B0051C52
S1131F8C029193460393082800D9D4E0061C8004DC
S1131F9C82467349081C504401F0CEF901900F237A
S1131FAC0340022B02D0042B00D0C7E05A46002A6F
S1131FBC00D1C6E06B006B4A9B5A002B1BD16A4BB9
S1131FCC9846D0446948071C574469498946424697
S1131FDC1468A4B2381C01F0AFF9002800D1B3E0A6
S1131FEC484603883341D90702D5002C00D1AEE012
S1131FFC002CECD000E0002400225E4B5A55072341
S113200C019A1340022B02D0042B3CD071E06B00DC
S113201C544A9B5A002B2AD1281C04A9082201F0EB
S113202CC9F9554B1C1C5444201C402101F088F95F
S113203C201C01F081F90028FAD16846037C03992D
S113204C0B70437C4B70837C8B70C37CCB70037D97
S113205C427D1B02D318109A1380827D6B00C17DC4
S113206C120289183F4A99528022424B5A556B00EE
S113207C3C4A9C5A5C4500D95C46281C0299221C9B
S113208C01F098F93CE06B00364A9B5A002B24D1A2
S113209C281C04A9022201F08DF9374B1C1C544452
S11320AC201C402101F04CF9201C01F045F90028BA
S11320BCFAD16846037C6A00417C1B02CB189BB2A4
S11320CC284953522D4A934204D9281CFFF7A0FDEA
S11320DC2B483DE08022274B5A556B00214A9C5AD1
S11320EC5C4500D95C46281C0299221C01F07EF93F
S11320FC06E0281C211C01F09BF96B00194A9C5228
S113210C1D490E1C5644301C402101F019F9301C99
S113211C01F012F90028FAD1124A69008B5A1B1BE0
S113212C9BB28B52002B04D0124B595D01220A43F3
S113213C5A55201C0CE00120404209E00520404285
S113214C06E00E20404203E00420404200E0002060
S113215C07B03CBC90469946A246AB46F0BDC0467F
S113216C00000146F801002024020146300001461B
S113217CEC010020F001002010000146EC050000E9
S113218C17FCFFFF70B5041C151C082800D98AE045
S113219C0C2900D989E08900474B5B589F4684047D
S11321AC464BE01801F0C8F80F239843287001201F
S11321BC80E08404424BE01801F0BEF82870012042
S11321CC78E084043F4BE01801F0B6F82870012045
S11321DC70E084043C4BE41823681370012069E01C
S11321EC84043A4BE01801F0A7F82870384BE01837
S11321FC01F0A2F86870374BE01801F09DF8A87054
S113220C354BE01801F098F8E870012052E0840492
S113221C324BE4182368138001204BE08404274BD1
S113222CE01801F089F80F23184001283FD12C4BFA
S113223CE01801F081F8288001203BE08404294B4C
S113224CE41823681380012034E08404264BE4183A
S113225C2368138001202DE08404244BE01801F042
S113226C6BF82870012025E08604144BF01801F05B
S113227C63F8012804D11C4BF61833682B8019E041
S113228C64001B4BE35A2B80012013E080040B4B9E
S113229CC01801F051F80F231840012809D1154B2F
S11322AC1B5D2B7006E0FF2004E0FE2002E0FB2007
S11322BC00E0FB2040B270BD044B0000000001465E
S11322CC080101460401014610010146270101469B
S11322DC260101462501014624010146200101463F
S11322EC80010146040201462402014630000146E5
S11322FCF8010020F00100207047C0467047C0462A
S113230C7047C0467047C0460078C0B27047C0469C
S113231C01707047F0B55F4656464D464446F0B4DE
S113232C93B0554B9A46181C01F006F80090534B89
S113233C9946181C01F000F80190514B9846181C52
S113234C00F0FAFF02904F4800F0F6FF03904E485D
S113235C00F0F2FF04904D4800F0EEFF05904C485D
S113236C00F0EAFF06904B4800F0E6FF07904A485D
S113237C00F0E2FF0890494800F0DEFF099048485D
S113238C00F0DAFF0A90474800F0D6FF0B9046485D
S113239C00F0D2FF0C90454800F0CEFF0D90444F56
S11323AC381C00F0C9FF0E90424E301C00F0C4FFE4
S11323BC0F90414D281C00F0BFFF10903F4C201C87
S11323CC00F0BAFF11903E4B9B46181C802100F084
S11323DCB7FF584600F0B0FF5046009900F0B0FF2C
S11323EC4846019900F0ACFF4046029900F0A8FF62
S11323FC2448039900F0A4FF2348049900F0A0FF9B
S113240C2248059900F09CFF2148069900F098FF9A
S113241C2048079900F094FF1F48089900F090FF9A
S113242C1E48099900F08CFF1D480A9900F088FF9A
S113243C1C480B9900F084FF1B480C9900F080FF9A
S113244C1A480D9900F07CFF381C0E9900F078FFA7
S113245C301C0F9900F074FF281C109900F070FFC9
S113246C201C119900F06CFF13B03CBC90469946AB
S113247CA246AB46F0BDC04603600046026000466F
S113248C0160004600600046076000460660004696
S113249C0B6000460A60004609600046086000466E
S11324AC0F6000460E6000460D6000460C6000464E
S11324BC136000461260004611600046106000462E
S11324CC0023004670B5061C0D1CFFF723FF002EDD
S11324DC07D11CE05AB2B25C5118C9B20133DBB259
S11324EC01E0002100235AB2072AF3DD49B2102976
S11324FC2FDC002408E063B29804184A8018F15CBD
S113250C00F01EFF0134E4B263B2072BF3DD0022AA
S113251C00230020002D1FD005E059B2695C8A18F5
S113252CD2B20133DBB259B20729F6DD52B2102A0A
S113253C11DC002408E063B29804094A8018E95CB1
S113254C00F0FEFE0134E4B263B2072BF3DD00208D
S113255C02E0FF2000E0FF2040B270BD0002014603
S113256C2002014610B5040AF0210140034800F092
S113257CE7FE0348211C00F0E3FE10BD08210046D1
S113258C1021004610B5054800F0D6FE041C044882
S113259C00F0D2FE0002001980B210BD00210046EA
S11325AC1021004610B5040AF0210140034800F044
S11325BCC7FE0348211C00F0C3FE10BD04210046D5
S11325CC1421004610B5054800F0B6FE041C04485E
S11325DC00F0B2FE0002001980B210BD04210046C6
S11325EC14210046012040427047C046012040425D
S11325FC7047C04610B582B00C1C002300930193A5
S113260C0A2844D88000264B1B589F46FFF782FEAD
S113261C002041E0002902D0009108340194009874
S113262C0199FFF74FFF37E00888FFF79BFF002065
S113263C32E0FFF7A7FF208000202DE00888FFF789
S113264CB1FF002028E0FFF7BDFF2080002023E02D
S113265C144B9A780A70DA784A701A798A705A7913
S113266CCA709B790B7100234B71002014E0FFF7A7
S113267CBDFFC0B2FF280CD0207000200CE0FFF787
S113268CB1FFC0B2FF2806D02070002004E0FF2068
S113269C02E0FF2000E0FF2040B202B010BDC046B3
S11326AC384B00002800002010B5041C01782A487F
S11326BC00F046FE6178294800F042FEA1782848D3
S11326CC00F03EFEE178274800F03AFE21792648D6
S11326DC00F036FE6179254800F032FEA17B2448D7
S11326EC00F02EFEE17B234800F02AFE217C2248D8
S11326FC00F026FE617C214800F022FEA17A2048DD
S113270C00F01EFEE17A1F4800F01AFE217B1E48E1
S113271C00F016FE617B1D4800F012FEA1791C48E6
S113272C00F00EFEE1791B4800F00AFE217A1A48EB
S113273C00F006FE617A194800F002FEA27C184BE8
S113274C1A70E27C5A70227D9A70627DDA70A27DD6
S113275C144B1A7010BDC04603600046026000465C
S113276C01600046006000460760004606600046B3
S113277C0B6000460A60004609600046086000468B
S113278C0F6000460E6000460D6000460C6000466B
S113279C136000461260004611600046106000464B
S11327AC0C0200200802002010B5041C2A4800F07A
S11327BCC3FD2070294800F0BFFD6070284800F06C
S11327CCBBFDA070274800F0B7FDE070264800F070
S11327DCB3FD2071254800F0AFFD6071244800F072
S11327ECABFDA073234800F0A7FDE073224800F072
S11327FCA3FD2074214800F09FFD6074204800F074
S113280C9BFDA0721F4800F097FDE0721E4800F07B
S113281C93FD20731D4800F08FFD60731C4800F07D
S113282C8BFDA0711B4800F087FDE0711A4800F085
S113283C83FD2072194800F07FFD6072184B1A78E2
S113284CA2745A78E2749A782275DB786375154B06
S113285C1B78A37510BDC046036000460260004699
S113286C01600046006000460760004606600046B2
S113287C0B6000460A60004609600046086000468A
S113288C0F6000460E6000460D6000460C6000466A
S113289C136000461260004611600046106000464A
S11328AC0C0200200802002038B5041C3823021C3A
S11328BC9A430AD1064D281C00F03EFD0443E1B2B4
S11328CC281C00F03DFD002000E0FF2040B238BD84
S11328DC0023004608B5024800F02EFD08BDC04692
S11328EC0023004610B5041C0178034800F028FDB1
S11328FC6288024B1A6010BD44600046406000467A
S113290C10B5041C034800F017FD2070024B1B6823
S113291C638010BD446000464060004610B50C1C3A
S113292C052820D88000114B1B589F46081CFFF724
S113293CBBFE002018E0081CFFF736FF002013E054
S113294C0878FFF7B1FF0FE0FFF7C4FF20700020F9
S113295C0AE0081CFFF7C6FF002005E0081CFFF77F
S113296CCFFF002000E0FF2040B210BD644B0000FC
S113297C002803D00122044BDA6103E00222524204
S113298C014BDA617047C0460010004110B5041CBD
S113299C831E012B03D907487421FEF7A1FD022CD9
S11329AC04D102225242044B1A6202E00122024B6D
S11329BC1A6210BD7C4B00000010004138B5041C99
S11329CC0D1C134B98420CD0124B984209D0124B4D
S11329DC984206D0114B984203D01148A021FEF71F
S11329EC7FFD012D03D90E48A121FEF779FD002DA1
S11329FC06D0A26880231A43A2600122E25006E0AA
S1132A0CA26880239A43A26002225242E25038BD4B
S1132A1C0010004020100040002000402020004006
S1132A2CDC4B000038B5051C0C1C344B98420CD004
S1132A3C334B984209D0334B984206D0324B9842D0
S1132A4C03D032485E21FEF74BFD2379002B05D0D1
S1132A5C402B03D02D485F21FEF742FD6379002BF8
S1132A6C07D0042B05D0082B03D028486021FEF78F
S1132A7C37FDA379002B05D0022B03D02348612109
S1132A8CFEF72EFDE379012B03D920486221FEF7D2
S1132A9C27FD281C0021FFF791FF21682960AA68F3
S1132AAC2379590602D540231A4301E040239A4363
S1132ABC6379590705D50C239A43131C04210B4342
S1132ACC0AE0190705D50C239A43131C08210B4360
S1132ADC02E00C239A43131CA279910702D502221B
S1132AEC134301E002229343E279D10702D5012278
S1132AFC134301E001229343AB6038BD0010004046
S1132B0C201000400020004020200040DC4B00003E
S1132B1C38B5041C0D1C124B98420DD0114B984225
S1132B2C0AD0114B984207D0104B984204D010484D
S1132B3C1421FF31FEF7D4FC012D04D90C488A2151
S1132B4C4900FEF7CDFC002D04D0A26820231343CA
S1132B5CA36003E0A36820229343A36038BDC0465E
S1132B6C00100040201000400020004020200040B5
S1132B7CDC4B000010B5041C094B98420DD0094BDA
S1132B8C98420AD0084B984207D0084B984204D07C
S1132B9C074896214900FEF7A3FC6069C0B210BD3A
S1132BAC0010004020100040002000402020004075
S1132BBCDC4B000010B5041C094B98420DD0094B9A
S1132BCC98420AD0084B984207D0084B984204D03C
S1132BDC0748A0214900FEF783FC0123E36010BDE4
S1132BEC0010004020100040002000402020004035
S1132BFCDC4B0000F8B5054D802464002E590127E8
S1132C0C7F422F51024FB8472E51F8BD00E100E02E
S1132C1C0110FF1F38B5051C0C1C8423DB059842DE
S1132C2C0FD08623DB0598420BD08823DB05984212
S1132C3C07D08A23DB05984203D01F48B821FEF73E
S1132C4C4FFC631E9BB2012B2FD9042C2DD0082CC6
S1132C5C2BD0102C29D0202C27D0402C25D0802CE4
S1132C6C23D080235B009C421FD080239B009C427A
S1132C7C1BD08023DB009C4217D080231B019C4279
S1132C8C13D080235B019C420FD080239B019C4278
S1132C9C0BD08023DB019C4207D080231B029C4277
S1132CAC03D00548B921FEF71BFC28680440201CFE
S1132CBC441EA04138BDC046404C000038B5041C2D
S1132CCC0D1C8423DB05984210D08623DB05984227
S1132CDC0CD08823DB05984208D08A23DB05984264
S1132CEC04D00C4883214900FEF7FAFB002D04D1D3
S1132CFC08480821FF31FEF7F3FBEBB20133FF3335
S1132D0C9B001D512B0A802292009B189B001D5185
S1132D1C38BDC046404C000038B5041C0D1C84233F
S1132D2CDB05984210D08623DB0598420CD088230F
S1132D3CDB05984208D08A23DB05984204D00C4862
S1132D4C8D214900FEF7CCFB002D04D108481C2131
S1132D5CFF31FEF7C5FBEAB2EB430132FF329200BE
S1132D6C13512D0A80229200AD18AD002B5138BDA1
S1132D7C404C000070B5041C0E1C151C8423DB0590
S1132D8C984210D08623DB0598420CD08823DB05AF
S1132D9C984208D08A23DB05984204D01748E021D6
S1132DACFF31FEF79DFB0F2E04D91448F021490086
S1132DBCFEF796FB032D04D91048E221FF31FEF7F0
S1132DCC8FFB8423DB059C4203D1B6000C4BF550DE
S1132DDC12E08623DB059C4203D1B600094BF55067
S1132DEC0AE08823DB059C4203D1B600064BF55060
S1132DFC02E0B600054BF55070BDC046404C0000D7
S1132E0C002000414020004180200041C0200041AE
S1132E1C70B5041C0D1C161C8423DB0598420FD0C2
S1132E2C8623DB0598420BD08823DB05984207D018
S1132E3C8A23DB05984203D013481449FEF750FB50
S1132E4C0F2D04D9104882218900FEF749FB8423F5
S1132E5CDB059C4203D1AD000D4BEE5012E08623F2
S1132E6CDB059C4203D1AD000A4BEE500AE08823EB
S1132E7CDB059C4203D1AD00074BEE5002E0AD00E4
S1132E8C064BEE5070BDC046404C000007020000DB
S1132E9C003000414030004180300041C0300041DE
S1132EAC38B5041C0D1C8423DB0598420FD08623F3
S1132EBCDB0598420BD08823DB05984207D08A2384
S1132ECCDB05984203D015481549FEF709FB0F2D75
S1132EDC03D912481349FEF703FB8423DB059C42F8
S1132EEC04D1AD00104BE858C0B215E08623DB05C5
S1132EFC9C4204D1AD000D4BE858C0B20CE08823C1
S1132F0CDB059C4204D1AD00094BE858C0B203E088
S1132F1CAD00084BE858C0B238BDC046404C000068
S1132F2C1A0200001B020000003000414030004136
S1132F3C80300041C0300041F8B55F4656464D46DE
S1132F4C4446F0B4061C0D1C8423DB0598420FD0B8
S1132F5C8623DB0598420BD08823DB05984207D0E7
S1132F6C8A23DB05984203D043485A21FEF7B8FA6A
S1132F7C2968002903D140485B21FEF7B1FA2B796B
S1132F8C012B03D93C485C21FEF7AAFA2B7B032BBB
S1132F9C03D939485E21FEF7A3FA8A23DB059E4246
S1132FAC02D01022904601E0052398460024012704
S1132FBC03218A4658E03B1CA3402A681A409A42D3
S1132FCC51D12A79012A03D132691343336100E0C8
S1132FDC7361A2B29146301C111CFFF761FFAB6800
S1132FEC51461940032903D151468843C2B212E019
S1132FFC1F4205D052469043C2B201210A430AE053
S113300C990705D552469043C2B202210A4302E005
S113301C51468843C2B20421194201D00A4301E04B
S113302C04218A43190702D508210A4301E0082127
S113303C8A43990602D520210A4301E020218A43C0
S113304C590603D540231A43934602E040239A437E
S113305C93462A7B301C4946FFF78CFE301C4946AC
S113306C5A46FFF7D5FE01344445A4D33CBC9046E4
S113307C9946A246AB46F8BD404C000082B0019084
S113308C002301E0C0460133019A9342FAD302B003
S113309C7047C046F0B557464E464546E0B40C1C46
S11330AC20256D1AA840051C164B9946164B9846BC
S11330BCCA4620E0002D06DA134B198853461868CB
S11330CCFFF7FCFD05E0434619884B461868FFF7EB
S11330DC23FE0A20FFF7D2FF0A4F0C4E31883868C2
S11330ECFFF7ECFD0A20FFF7C9FF38683188FFF7BA
S11330FC13FE6D00013C002CDCD11CBC904699469F
S113310CA246F0BD1C020020100200201802002070
S113311C38B50C4C23680C4A12885A610A20FFF704
S113312CADFF0A4D29882068FFF7C8FD0A20FFF778
S113313CA5FF20682988FFF7EFFD0A20FFF79EFF03
S113314C38BDC0461C0200201002002018020020CA
S113315C38B50A4D28680A4B1B880361094C218831
S113316CFFF7ACFD0A20FFF789FF28682188FFF7D9
S113317CD3FD0A20FFF782FF38BDC0461C02002095
S113318C1002002018020020F0B5474680B400203D
S113319C0024104D104E114B984615E04700318811
S11331AC2868FFF78BFD0A20FFF768FF3188286831
S11331BCFFF7B2FD0A20FFF761FF43461988286820
S11331CCFFF728FD384301340F2CE7D904BC904693
S11331DCF0BDC0461C020020180200201002002082
S11331EC38B5051C0C1C012040422021FFF752FF6E
S11331FC06200421FFF74EFF281C0521FFF74AFF88
S113320C201C0521FFF746FFFFF782FFFFF7BCFFE9
S113321C041CFFF79DFF201C38BDC04670B500246C
S113322C094E0DE0201C0121FFF7DAFF002805D020
S113323CB04203D0054B1C60012004E00134E4B21D
S113324C072CEFD9002070BDFFFF000014020020F2
S113325CF0B585B0124D2860124F3980124E328071
S113326C124B009301246A461471642302930023C5
S113327C13738620C0056946FFF75EFE3A883388CF
S113328C134300936B461C71022302936A46147316
S113329C28686946FFF750FEFFF7C0FF05B0F0BD84
S11332AC1C0200201802002010020020103C000018
S11332BC08B5044B18680121FFF792FF4007C00FB3
S11332CC08BDC0461402002010B5041C00F0C8F858
S11332DC211C00F003F9014B186110BD0060004083
S11332EC10B5041E012C04D909488E214900FEF79F
S11332FCF7F8002C05D0074B996803220A439A600F
S113330C04E0044B9A6803218A439A6010BDC046BA
S113331CA04C000000600040034901224B681A4293
S113332CFCD1014B1860704700600040014B1868D9
S113333C80B27047006000400078C0B27047C0464D
S113334C0170704730B5002407E065182D042D0C6E
S113335C2D182D7815550134A4B29C42F5D330BDEB
S113336C70B5002407E065182D042D0C2D18165D7E
S113337C2E700134A4B29C42F5D370BD70B50B1CF5
S113338C141E11D08504094AAD182E683604360C67
S113339C072210408004064A1043311C1A1C231CBB
S11333ACFFF7DEFFA4192C6070BDC0460C02014669
S11333BC0000024670B50B1C141E11D08504094A7A
S11333CCAD182E683604360C072210408004064AC9
S11333DC1043311C1A1C231CFFF7B4FFA4192C60D6
S11333EC70BDC046280201460000034670B50B1C94
S11333FC141E17D085040C4AAD182E683604360CEE
S113340C072210408004094A1043311C1A1C231C47
S113341CFFF798FF0223A3429B415B425B00E41A33
S113342CA6192E6070BDC046280201460000034652
S113343C10B500290FD08304074A9B181A6812048C
S113344C120C072420408004044C204389180904DE
S113345C090C0818186010BD280201460000034628
S113346C014B18687047C04620020020014B1868B5
S113347C7047C04624020020024B034A1360034ADF
S113348C1360704700127A002402002020020020EE
S113349C08B50220FFF77AFA0120FFF769FA034A0C
S11334AC034B5A61FFF7E8FF08BDC0460001020058
S11334BC0010004108B5054B1A68054B1A60054B02
S11334CC1A68054B1A60FFF7E3FF08BDB8FD03004B
S11334DC10120041BCFD030004100041002934D03B
S11334EC0123002210B488422CD301242407A142C6
S11334FC04D2814202D209011B01F8E7E400A14283
S113350C04D2814202D249005B00F8E7884201D31D
S113351C401A1A434C08A04202D3001B5C082243F5
S113352C8C08A04202D3001B9C082243CC08A04266
S113353C02D3001BDC082243002803D01B0901D052
S113354C0909E3E7101C10BC7047002801D00020C7
S113355CC04307B4024802A14018029003BDC04600
S113356C190000000029F0D003B5FFF7B9FF0EBC19
S113357C4243891A1847C0467047C046014B186825
S113358C7047C046A800002030B50023934208D0F1
S113359CC55C0133CC18013C2478A542F6D0281B19
S11335AC00E0002030BD10B50023934203D0CC5C66
S11335BCC4540133F9E710BD031C8218934202D0A2
S11335CC19700133FAE770470FB40B4B13B51C6831
S11335DC002C05D0A369002B02D1201C00F098FE0E
S11335EC05ABA168201C049A019300F005FA16BCE3
S11335FC08BC04B01847C046A800002070B5051CD0
S113360C0E1C002804D08269002A01D100F080FE2F
S113361CAC68A3891A0702D52369002B19D1281C7D
S113362C211C00F0F9FC002813D00120404245E095
S113363C3178002B1BDAA269934211DA281C221C64
S113364C00F092FC013043425841C0B20028ECD146
S113365C0136A3683278013BA360002AE8D10CE060
S113366C23681970236819780A2903D1E6E72268BC
S113367C1170236801332360EAE7002B17DAA2697F
S113368C934208DB22680A231370236819780A29E9
S113369C11D1281C01E0281C0A21221C00F064FC16
S11336AC013043425841C0B2002806D0BDE722681D
S11336BC0A2313702368013323600A2070BD0000B1
S11336CC08B5034B011C1868FFF798FF08BDC046EA
S11336DCA800002002780B7801300131002A01D0B7
S11336EC9A42F7D0D01A7047031C0A7801311A7029
S11336FC0133002AF9D170470023C25C0133002A3C
S113370CFBD1581E70470000F0B58D6885B0071CBE
S113371C0C1C03920193AB4245D390228B89D200AB
S113372C13423DD062690326564309692068F20F9F
S113373C401A96190290021C019801321218761044
S113374C964200D2161C381C5A050FD5311C00F0B9
S113375C0BFF051E13D0029A2169FFF724FFA289DF
S113376C184B134080221343A38111E0321C00F048
S113377C4FFF051E0CD1381C216900F0ADFE0C2343
S113378C3B60A389402213430120A381404217E0EC
S113379C029B2561ED1825606661019DF61AA660F1
S11337AC0198A84200D2019D2A1C2068039900F0BC
S11337BC7AFEA2680020531BA36023685D19256060
S11337CC05B0F0BD7FFBFFFFF0B59FB003900593F0
S11337DC8B890E1C171C19060FD53269002A0CD1C3
S11337EC402100F0C1FE30603061002803D1039900
S11337FC0C230B60C9E04023736106AD00236B619D
S113380C20236B763023AB763C1C2378002B03D11E
S113381CE21B029211D003E0252BF9D00134F4E71A
S113382C0398311C3A1C029BFFF76EFF013000D148
S113383CA6E06969029A8B186B612378002B00D17E
S113384C9EE0012252426A606A4600235B320134D4
S113385C2B60EB60AB601370AB654E4F2178381C5A
S113386C052200F015FE002807D0C71B2B68012089
S113387CB840184328600134EFE72B68D90603D508
S113388C6A4620215B3211701A0703D56A462B2134
S113389C5B32117022782A2A01D0099B0EE0059A1A
S11338AC111D12680591002A01DB099204E05242B1
S11338BCEA60022213432B60013409E02278303A87
S11338CC092A04D80A214B4301349B18F6E70993BF
S11338DC23782E2B18D163782A2B09D1059B02341B
S11338EC1A1D1B680592002B0DDA01235B420AE0BA
S11338FC013400232278303A092A04D80A214B4394
S113390C01349B18F6E70793234F2178381C0322C4
S113391C00F0BEFD002806D0C71B2B684020B84021
S113392C18432860013421781C480622671C297628
S113393C00F0AEFD002812D0194B002B06D1059BCC
S113394C0722073393430833059314E005AB009324
S113395C0398291C321C134B00E000BF07E005AB95
S113396C00930398291C321C0E4B00F0C1F90490EF
S113397C0499013104D06A69049953186B6143E7C3
S113398CB3895A0601D40B9801E0012040421FB0C0
S113399CF0BDC046084D00000E4D0000124D000055
S11339AC0000000015370000936810B5013B9360CC
S11339BC002B05DA9469A34208DBCBB20A2B05D0A1
S11339CC1368581C10601970C8B201E000F0CCFAEE
S11339DC10BDF8B5061C0F1C141CD518AC4208D02D
S11339EC2178301C3A1CFFF7DFFF0134431CF5D15E
S11339FC00E00020F8BD0000F0B59FB0061C0F1CC1
S1133A0C03920593002804D08169002901D100F0A8
S1133A1C7FFC754B9F4201D1776808E0734B9F4242
S1133A2C01D1B76803E0724B9F4200D1F768BB89A0
S1133A3C1A070AD53B69002B07D006AD00236B612E
S1133A4C20236B763023AB763BE0301C391C00F022
S1133A5CE3FA0028F1D001204042C2E0059A111D7E
S1133A6C12680591002A76DB0992013423782E2BF7
S1133A7C00D181E021785F48032200F009FD002881
S1133A8C07D05C492A68431A4020984010432860A8
S1133A9C01342178631C584806220393297600F0DC
S1133AACF7FC002800D18AE0544B002B7ED1059BF7
S1133ABC072207339343083305936A69049953180F
S1133ACC6B61039C2378002B04D10399611A029136
S1133ADC10D003E0252BF8D00134F3E7301C391C4B
S1133AEC039A029BFFF775FF013075D06A6902993E
S1133AFC53186B612378002B6ED0012252426A60FA
S1133B0C6A4600235B3201342B60EB60AB601370AC
S1133B1CAB6521783A48052200F0BAFC002808D09D
S1133B2C374A0134831A012098402B6818432860C3
S1133B3CEFE72B68D90603D56A4620215B32117056
S1133B4C1A0703D56A462B215B32117022782A2A74
S1133B5C84D0099B05E05242EA60022213432B6095
S1133B6C83E72278303A092A04D80A214B430134DA
S1133B7C9B18F6E7099379E763782A2B09D1059BFF
S1133B8C02341A1D1B680592002B0DDA01235B42CB
S1133B9C0AE0013400232278303A092A04D80A2195
S1133BAC4B4301349B18F6E7079363E705AB00938B
S1133BBC301C291C3A1C134B00E000BF07E005AB7A
S1133BCC0093301C291C3A1C0E4B00F091F8049005
S1133BDC0499013100D070E7BB895A0600D53AE745
S1133BEC0B981FB0F0BDC0463C4D00005C4D00006E
S1133BFC7C4D00000E4D0000124D00000000000032
S1133C0C084D0000DF390000F7B5151C01930A6953
S1133C1C8B68061C0C1C934200DA131C221C2B60B0
S1133C2C43321278002A01D001332B6020688006BD
S1133C3C02D52B6802332B60216806270F401FD056
S1133C4C231C43331B785A1E9341226892061FD5BA
S1133C5CE11840313020C870211C5A1C45310978B8
S1133C6CA21840320233D17012E0221C301C01998C
S1133C7C19320123089FB847013011D0009F013736
S1133C8C0097E0682968009F431A9F42EDDBD7E751
S1133C9C221C301C01994332089FB847013002D1D1
S1133CAC0120404223E0206806212B68E268014091
S1133CBC0025042903D1D51AEB43DB171D40A26858
S1133CCC23699A4201DDD31AED1800270097009F4F
S1133CDCAF420BDA221C301C01991A320123089FC3
S1133CECB8470130DCD0009F0137EFE70020FEBD60
S1133CFCF0B50D1C8BB043350692059007930495D3
S1133D0C0B7E0C1C109A6E2B00D1A7E011D8632BE0
S1133D1C22D009D8002B00D1B0E0582B00D0C0E041
S1133D2C45310B707B4D4EE0642B1CD0692B1AD0A3
S1133D3CB7E0732B00D1A5E009D86F2B29D0702BD9
S1133D4C00D0AEE00E68202333430B6036E0752BB5
S1133D5C1FD0782B32D0A4E013680D1C191D4235EA
S1133D6C11601B689FE0216813680E0603D5191DAA
S1133D7C11601E6805E04806F9D5191D1160002173
S1133D8C5E5E644B002E3BDA049D2D2276422A7033
S1133D9C36E0216813680E0603D5191D11601E68E0
S1133DAC04E04806F9D5191D1E881160594B227E72
S1133DBC039308276F2A1ED00A271CE0231C7821A2
S1133DCC4533554D197011682368081D039510600F
S1133DDC1E0601D50E6802E05806FBD50E88D907DD
S1133DEC02D52022134323601027002E03D122680E
S1133DFC20239A432260231C002243331A7001E0CF
S1133E0C03930A276368A360002B03DB2568042251
S1133E1C95432560002E02D1049D002B0ED0049DE9
S1133E2C301C391CFFF79EFB0398013D435C301C8E
S1133E3C2B70391CFFF752FB061EF1D1082F09D148
S1133E4C2168C90706D5626823699A4202DC013DE0
S1133E5C30232B70049E731B23612AE008681368BB
S1133E6C4969050604D5181D10601B68196005E026
S1133E7C4606F8D5181D10601B68198000232361B1
S1133E8C049D16E01368191D11601D68281CFFF7AA
S1133E9C33FC63682061984200D923612069606017
S1133EAC04E0251C42352B7001232361049E00235E
S1133EBC3370079E05980096211C09AA069BFFF7F0
S1133ECCA3FE013002D10120404221E02A1C0598B6
S1133EDC06992369079DA8470130F4D02668B607D4
S1133EEC05D4099BE068984212DA181C10E00025EE
S1133EFCE0680999431A9D42F3DA221C0598069945
S1133F0C19320123079EB0470130DCD00135EFE7AD
S1133F1C0BB0F0BD194D00002A4D000030B59BB01C
S1133F2C0091049108496D46029105910121494281
S1133F3C8224E981A4006946AC81FFF745FC009D0D
S1133F4C00232B701BB030BDFFFFFF7F38B5131C53
S1133F5C044A051C0C1C1068291C221CFFF7DEFFEC
S1133F6C38BDC046A800002070B5051C0E1C141CDE
S1133F7C002804D08269002A01D100F0C9F9234B2E
S1133F8C9C4201D16C6808E0214B9C4201D1AC6885
S1133F9C03E0204B9C4200D1EC68A369A360A38985
S1133FAC1A070AD52369002B07D022682369F6B2B5
S1133FBCD01A626990420FDB08E0281C211C00F027
S1133FCC2BF80028F1D0012040421DE0281C211CB4
S1133FDC00F01EF90028F6D1A3680130013BA36060
S1133FEC23685A1C22601E706369984205D0A38909
S1133FFC301CDA0708D50A2E06D1281C211C00F027
S113400C07F90028DFD1301C70BDC0463C4D0000C0
S113401C5C4D00007C4D0000344B70B51D68061CD3
S113402C0C1C002D05D0A969002902D1281C00F014
S113403C6FF92F4B9C4201D16C6808E02D4B9C42CC
S113404C01D1AC6803E02C4B9C4200D1EC68A289F2
S113405C93B2190721D4D90605D40923336040231C
S113406C1A43A2813FE05A0713D5616B002908D08B
S113407C231C4433994202D0301C00F02DFA002347
S113408C6363A38924229343A3810023636023697C
S113409C2360A38908221343A381216900290BD12E
S11340ACA389A02292001A4080239B009A4203D039
S11340BC301C211C00F09CF9A38901221A4005D064
S11340CC61690022A2604A42A26103E0990700D40C
S11340DC6269A26022690020824206D1190604D5C5
S11340EC40221343A3810120404270BDA80000204C
S11340FC3C4D00005C4D00007C4D0000F7B58B89F5
S113410C051C0C1C19075ED46268002A02DC276C9F
S113411C002F1ADDE76A002F17D000222E682A60C0
S113412C802252011A4001D0626D15E0281C216ACC
S113413C0123B847021C411C0ED12B68002B0BD059
S113414C1D2B01D0162B02D12E6000205EE0A3891A
S113415C40210B43A38159E0A3895F0706D561680D
S113416C636B521A002B01D0276CD21B281C216ABA
S113417C0023E76AB847A289411C06D12B68002B9F
S113418C03D01D2B01D0162B19D100236360236996
S113419C2360D70405D5411C02D12A68002A00D11A
S11341AC6065616B2E600029CFD0231C4433994287
S11341BC02D0281C00F090F90020606326E0402314
S11341CC1A43A28122E02669002EBED02768002261
S11341DCBF1B01972660990700D16269A260019FF9
S11341EC002FB2DD281C216A321C019BA76AB84738
S11341FC002806DCA389402213430120A3814042FA
S113420C04E0019F36183F1A0197E8E7FEBD000051
S113421C0A6938B5051C0C1C002A01D100201CE0CD
S113422C002804D08369002B01D100F071F80B4BEA
S113423C9C4201D16C6808E0094B9C4201D1AC68EA
S113424C03E0084B9C4200D1EC680C22A35E002BCB
S113425CE4D0281C211CFFF751FF38BD3C4D000055
S113426C5C4D00007C4D0000F8B5041C071C483460
S113427C002C12D0A5686668013E0CD4AB89012BC6
S113428C07D90E22AB5E013303D0381C291CFFF76F
S113429CBFFF6835F0E72468EAE7F8BD002310B5E2
S11342AC041C03604360836081814366C2810361A3
S11342BC43618361191C08225C30FFF77DF9054BBF
S11342CC24626362044BA362044BE362044B2363D6
S11342DC10BDC0468D460000B5460000ED460000FA
S11342EC1947000070B54B1E68255D430E1C291C34
S11342FC743100F039F9041E08D0002101604660C5
S113430C2A1C0C30A0606832FFF756F9201C70BDD3
S113431C836913B5041C002B27D18364C364036520
S113432C124B134A1B688262984201D101238361A8
S113433C201C00F01FF86060201C00F01BF8A0602B
S113434C201C00F017F80421E06000226068FFF7DD
S113435CA5FFA06809210122FFF7A0FFE068122144
S113436C0222FFF79BFF0123A36113BD044D000040
S113437C75420000F8B51D4B071C1E68B269002A73
S113438C02D1301CFFF7C4FF4836B4687368013B94
S113439C05D40C22A55E002D10D06834F7E73368E1
S11343AC002B06D1381C0421FFF79CFF3060002839
S11343BC01D03668E9E70C233B6016E001235B422D
S11343CCE381201C0123A38165662560A5606560DB
S11343DC25616561A5615C30291C0822FFF7ECF8A6
S11343EC6563A563A564E564201CF8BD044D000059
S11343FCF0B58B8991B0051C0C1C9A0725D40E239F
S113440CC95E002906DAA78980231F400FD0002734
S113441C40260EE001AA00F0A5F90028F3DB029B6C
S113442CF0273F02184A1F40BF187B425F41802689
S113443CF600281C311C00F097F800280CD1A38935
S113444C9A051FD402221343A381231C47332360F0
S113445C23610123636115E00C4B8022AB62A389B9
S113446C20601343A38120616661002F0AD00E23C0
S113447CE15E281C00F088F9002803D0A3890122EE
S113448C1343A38111B0F0BD00E0FFFF754200009F
S113449CC9B28218904204D003788B4202D0013006
S11344ACF8E70020704770B5814201D300230CE07B
S11344BC8C18A042FAD28518131C013B0BD3514221
S11344CC6618F65C6918CE54F7E7934203D0CC5CBB
S11344DCC4540133F9E770BD30B5002940D0043918
S11344EC0B68002B00DAC9181E4A1368141C002B25
S11344FC02D14B60116033E099420FD208680A185C
S113450C9A4205D113685268C01808604A6000E0EA
S113451C4B60216024E08A4203D8131C5A68002A99
S113452CF9D11D685C198C420BD1096869185818AB
S113453C1960904214D114685268091919605A60B0
S113454C0EE08C4202D90C23036009E008680C18B5
S113455C944203D114685268001908604A60596087
S113456C30BDC0462C02002070B50323CD1C9D43E6
S113457C0835061C0C2D01D20C2501E0002D3FDB67
S113458C8D423DD3204B1C681A1C211C002913D0CE
S113459C0868431B0DD40B2B02D90B60CC181EE0FE
S11345AC8C4202D1636813601AE0486860600C1C8A
S11345BC16E00C1C4968E9E7144C2068002803D168
S11345CC301C00F04BF82060301C291C00F046F81D
S11345DC431C15D0C41C03239C4384420AD125607C
S11345EC201C0B300722231D9043C31A0BD05A42B4
S11345FCE25008E0211A301C00F030F80130EED102
S113460C0C233360002070BD2C02002028020020F3
S113461CF8B5061C0C1C151C002904D1111CFFF741
S113462CA3FF041C18E0002A03D1FFF755FF2C1C30
S113463C12E000F0CFF8A8420ED2301C291CFFF770
S113464C93FF071E07D0211C2A1CFEF7ACFF301C5D
S113465C211CFFF741FF3C1C201CF8BD38B5074C4E
S113466C0023051C081C2360FCF7CAFF431C03D160
S113467C2368002B00D02B6038BDC0461C180020CA
S113468C38B50C1C0E25495F00F0AEF8002803DB8E
S113469C626D1318636503E0A289024B1340A38176
S11346AC38BDC046FFEFFFFFF8B51E1C8B89051CF7
S11346BC0C1C171CDA0505D50E23C95E0022022337
S11346CC00F074F8A289054B281C1340A3810E2218
S11346DCA15E331C3A1C00F01FF8F8BDFFEFFFFF7E
S11346EC38B50C1C0E25495F00F060F8A389421CF8
S11346FC03D1054A1340A38104E0802252011343E1
S113470CA381606538BDC046FFEFFFFF08B50E23DB
S113471CC95E00F015F808BD38B5084C051C00201E
S113472C2060081C111C1A1CFCF7EAFE431C03D164
S113473C2368002B00D02B6038BDC0461C18002009
S113474C38B5074C0023051C081C2360FCF782FFBA
S113475C431C03D12368002B00D02B6038BDC0460A
S113476C1C18002038B5074C0023051C081C111C10
S113477C2360FCF777FF431C03D12368002B00D084
S113478C2B6038BD1C18002038B5074C0023051CC1
S113479C081C2360FCF76EFF431C03D12368002B19
S11347AC00D02B6038BDC0461C18002038B5084C0E
S11347BC051C00202060081C111C1A1CFCF762FF4D
S11347CC431C03D12368002B00D02B6038BDC0469A
S11347DC1C18002004390B68181F002B02DAC85867
S11347EC1B18181F7047000038B5084C051C002016
S11347FC2060081C111C1A1CFCF74CFF431C03D131
S113480C2368002B00D02B6038BDC0461C18002038
S113481C001000200040000057495A6E65740000D7
S113482C0000000057495A6E657400000000000037
S113483C0000000000000000000000000000000068
S113484C57697A494F204554482D34303232000090
S113485C000000000000000077697A6E65742E6910
S113486C6F000000000000000000000000000000C9
S113487C00000000000000005B4150505D204D41E1
S113488C433A20253032583A253032583A253032C2
S113489C583A253032583A253032583A2530325865
S11348AC0D0A00005B4150505D2049503A202564AC
S11348BC2E25642E25642E25640D0A005B41505070
S11348CC5D2047573A2025642E25642E25642E2519
S11348DC640D0A005B4150505D20534E3A20256410
S11348EC2E25642E25642E25640D0A005B41505040
S11348FC5D20444E533A2025642E25642E25642EC7
S113490C25640D0A00000000496E707574204D4139
S113491C43203F2000000000520000000D0A496EA5
S113492C707574204D41432069732025730D0A0062
S113493C0D0A4F4B0D0A00000D0A45726173652078
S113494C454550524F4D2E2E2E0000000D0A4F4B54
S113495C0D000000320B0000CE0900000C0A000010
S113496CC60A0000080B000053756363657373007B
S113497C4661696C000000004F6E00004F666600D3
S113498C0D0A3D3D3D3D3D3D3D3D3D3D3D3D3D3DAA
S113499C3D3D3D3D3D3D3D3D3D3D3D3D3D3D3D3D37
S11349AC3D3D3D3D3D3D3D3D3D3D3D3D3D3D0D0094
S11349BC2057697A494F20257320426F6F740D0A72
S11349CC000000003D3D3D3D3D3D3D3D3D3D3D3DFB
S11349DC3D3D3D3D3D3D3D3D3D3D3D3D3D3D3D3DF7
S11349EC3D3D3D3D3D3D3D3D3D3D3D3D3D3D3D3DE7
S11349FC0D0000005B424F4F545D20536F75726382
S1134A0C65436C6F636B203A2025640D0A0000002B
S1134A1C5B424F4F545D2053797374656D436C6FD7
S1134A2C636B203A2025640D0A0000005B424F4F53
S1134A3C545D205048595F496E6974203A2025739F
S1134A4C0D0A00005B424F4F545D204C696E6B2085
S1134A5C3A2025730D0A00005B424F4F545D2063CE
S1134A6C6865636B20747269676765723A256420A4
S1134A7C7265743A25640D0A000000005B424F4FC6
S1134A8C545D206A756D7020746F206170706C6950
S1134A9C636174696F6E0D0057726F6E672070617D
S1134AAC72616D65746572732076616C75653A20FC
S1134ABC66696C65202573206F6E206C696E6520A9
S1134ACC25640D0A000000005B424F4F545D2048E2
S1134ADC6172644661756C745F48616E646C657276
S1134AEC0D0000006F6374657400000074696D65DB
S1134AFC6F75740035000000AA210000BE2100006F
S1134B0CCE210000DE210000EC2100001A2200005E
S1134B1CB622000028220000482200005622000081
S1134B2C6422000074220000982200001826000061
S1134B3C202600003E2600003426000048260000F3
S1134B4C522600009A2600009A2600005C260000DB
S1134B5C7A2600008A260000382900004229000029
S1134B6C4C290000542900005E290000682900002B
S1134B7C433A2F55736572732F626F6F6D772F44A1
S1134B8C6F776E6C6F6164732F57697A494F2F5727
S1134B9C697A494F5F426F6F742F4C69627261720C
S1134BAC6965732F5737353030785F5374645065AB
S1134BBC726970685F4472697665722F7372632FC1
S1134BCC7737353030785F6372672E6300000000EE
S1134BDC433A2F55736572732F626F6F6D772F4441
S1134BEC6F776E6C6F6164732F57697A494F2F57C7
S1134BFC697A494F5F426F6F742F4C6962726172AC
S1134C0C6965732F5737353030785F53746450654A
S1134C1C726970685F4472697665722F7372632F60
S1134C2C7737353030785F6475616C74696D657293
S1134C3C2E630000433A2F55736572732F626F6FA6
S1134C4C6D772F446F776E6C6F6164732F57697A2D
S1134C5C494F2F57697A494F5F426F6F742F4C69D4
S1134C6C627261726965732F5737353030785F53D0
S1134C7C74645065726970685F4472697665722FEA
S1134C8C7372632F7737353030785F6770696F2EA6
S1134C9C63000000433A2F55736572732F626F6F74
S1134CAC6D772F446F776E6C6F6164732F57697ACD
S1134CBC494F2F57697A494F5F426F6F742F4C6974
S1134CCC627261726965732F5737353030785F5370
S1134CDC74645065726970685F4472697665722F8A
S1134CEC7372632F7737353030785F756172742E39
S1134CFC630000004300000048000020232D302BEB
S1134D0C2000686C4C0065666745464700303132BC
S1134D1C3334353637383941424344454600303113
S1134D2C3233343536373839616263646566000072
S1134D3C0000000000000000000000000000000063
S1134D4C0000000000000000000000000000000053
S1134D5C0000000000000000000000000000000043
S1134D6C0000000000000000000000000000000033
S1134D7C0000000000000000000000000000000023
S1134D8C0000000000000000000000000000000013
S1134D9C00800000000000440000004400000044B7
S1134DACB001002000000000FFFFFFFFF84A0000E4
S1134DBC004B000000C000000101573735303000B3
S1134DCC05230000092300000D230000112300001B
S1134DDC152300001D230000000000003C4D0000C2
S1134DEC5C4D00007C4D0000000000000000000041
S1134DFC0000000000000000004D00000000000056
S1134E0C0000000000000000000000000000000092
S1134E1C0000000000000000000000000000000082
S1134E2C0000000000000000000000000000000072
S10F4E3C000000000000000048000020FE
S90300A953
