:100000000040002065010000C9140000CD1400006C
:1000100000000000000000000000000000000000E0
:10002000000000000000000000000000DD140000DF
:100030000000000000000000E1140000E5140000D2
:10004000ED140000F1140000F5140000F914000094
:10005000FD14000000000000000000000115000079
:1000600005150000091500000D1500001115000010
:10007000151500001D1500002515000029150000AC
:100080002D15000031150000351500003915000050
:100090003D15000041150000451500004915000000
:1000A0004D1500005115000070B582B0224B234A57
:1000B000002101E0196004339342FBD3204B214A15
:1000C000214903E010681860043304328B42F9D3ED
:1000D00001F044FA01A8694601F072FA1B4B1C4D6D
:1000E000ED1AAD1000241E1C03E0A3009B59984795
:1000F0000134A542F9DC174B174DED1AAD10002461
:100100001E1C03E0A3009B5998470134A542F9DC6B
:100110000198009901F0CEF8061C104B104CE41A1F
:10012000A4101D1C03E0013CA3005B599847002C60
:10013000F9DC301C01F00EFAB0000020101E002087
:10014000000000205C4F0000B00000207C01000097
:100150007C0100007C0100007C0100007C010000AB
:100160007C010000A0E7C046FEE7C046FEE7C046AF
:0C017000FEE7C046FEE7C046FEE7C046C2
:10017C0008B5011C72B612200022002302F098FD73
:10018C0062B608BD08B5011C72B61320002200230C
:10019C0002F08EFD62B608BD38B5051C0B1C141C94
:1001AC0072B62220291C1A1C231C02F081FD62B697
:1001BC00201C38BD10B5002302E0C45CCC540133C4
:1001CC009342FAD3181C10BD70B5061C0D1C012AE5
:1001DC000AD106E0231C08331803FFF7D3FF0134C0
:1001EC0000E00024162CF5DD064B19684A191A603C
:1001FC00054C2068311C2A1CFFF7CEFF22685519CC
:10020C00256070BDB00000200000002000B585B056
:10021C0042000A4BD35A009301236A4613710B22F6
:10022C0002926A4613738000054BC058694602F06F
:10023C00E1FE044800F0E2F805B000BDC048000043
:10024C00040000201027000008B58200044BD3588E
:10025C004000044A815A181C02F08EFD08BDC046AD
:10026C0004000020C04800008200044BD358596899
:10027C004000034A825A4A405A60704704000020EA
:10028C00C048000000B585B080231B0200930123F9
:10029C006A461371092202926A4613738820C005BC
:1002AC00694602F0A7FE05B000BDC04608B588201F
:1002BC00C0058021090202F08DFD08BD08B501289A
:1002CC0002D1FF20400201E0FE204002FFF772FF46
:1002DC0008BDC04670B50E1C151C012802D1FF24A8
:1002EC00640201E0FE246402201CFFF741FF601C45
:1002FC00FF30FFF73DFF201C311C2A1CFFF74CFF81
:10030C0070BDC04608B51D4802F092FC002833D0E1
:10031C001A4802F0ADFC1A4B1868013018606321C2
:10032C0003F072F900291BD1164B1B78002B04D15A
:10033C00154B1A7801321A7003E0134B1A78013AF4
:10034C001A70114B1878022803D101220D4B1A7028
:10035C0004E0002802D100220A4B1A70FFF784FF38
:10036C00074B1868094903F04FF9002904D1002202
:10037C00034B1A6001F09CFC08BDC0460010004005
:10038C00C0000020BC000020B4000020E7030000E7
:10039C0008B5064802F04CFC002806D0034802F0D1
:1003AC0067FC034B1A6801321A6008BD002000403C
:1003BC00B800002010B582B00D4B009300236946A5
:1003CC004B7140220A71CB7102238B71094C201C9A
:1003DC0002F086FB201C012102F0F8FB8022520166
:1003EC00054B1A60201C012102F046FB02B010BD27
:1003FC003F1F00000010004000E100E082B00190BF
:10040C00019B5A1E0192002BFAD102B07047C046D4
:10041C0010B582B0041C03F075F8074903F0B0F86E
:10042C004443019402E0019B013B0193019B002B8F
:10043C00F9D102B010BDC046102700000FB400B5B2
:10044C00A3B024AA08CA219201A8191C03F0D0FD5C
:10045C0001A801F01BF823B008BC04B01847C04633
:10046C0000487047C4000020F8B55F4656464D461C
:10047C004446F0B46F4CE12323800423A370002581
:10048C00E57025716D20814660710923A3710823E5
:10049C00E371C0229046101CA273A827E773257441
:1004AC0064218B466174A074E77425750120824623
:1004BC006075FF22A275E27522766576A376E376E7
:1004CC00237763775C4E201C1E30311C0A2203F00C
:1004DC00BCF8231C2833321C03CA03C312881A80AD
:1004EC00201C32300C36311C192203F0AEF8201CC3
:1004FC004B30311C192203F0A8F843465A46A3543A
:10050C006523E7546623E55402226723E2544B4BE0
:10051C006822A3526A22A3526C235046E0544946E7
:10052C0065546E23E55400226F23E2547023E25489
:10053C00002340480124002108E05A00D2188218F8
:10054C00703254709170D1700133DBB2032BF4D93B
:10055C000023384801260025002412E05900CA184F
:10056C005200821878325671D5801472CA18520013
:10057C0082187832191C0A315172090A91720133AE
:10058C00DBB2012BEAD900232A4D0122904600212F
:10059C000024A4463227642618E09800C2185200A2
:1005AC00AA188832444654705180644614715C0019
:1005BC0014345471240A9471D7711172C2185200F8
:1005CC00AA189032567091700133DBB2012BE4D92A
:1005DC00184C194E201C9D30311C2831142203F06C
:1005EC0034F8201CB130311C0A2203F02EF80025FF
:1005FC00BB23E554BC23E554201CBD30311C4031D9
:10060C001E2203F022F818235B42DB22A3540321A1
:10061C00DC22A154DD22A354DE230322E2542C223B
:10062C00DF23E254E023E5543CBC90469946A246B5
:10063C00AB46F8BDC4000020C84800008813000079
:10064C0010B50D4C0120211CE122FFF737FE22884A
:10065C00013A92B2094B9A4206D9FFF705FF0120E5
:10066C000549E122FFF736FE034B6D225A71092230
:10067C009A710822DA7110BDC4000020FDFF000041
:10068C0070B5064C6D25665D002363550120211C59
:10069C00E122FFF71FFE665570BDC046C400002066
:1006AC0008B502F0D2FF08BD08B502F0CEFF08BDB8
:1006BC0010B586B0FFF7D4FE041C011C0831684647
:1006CC000622FFF7EDFF211C0E316846063004228E
:1006DC00FFF7E6FF211C123168460E300422FFF7AB
:1006EC00DFFF211C163168460A300422FFF7D8FFC1
:1006FC00211C1A31684612300422FFF7D1FFBB23AC
:10070C00E35C002B03D002236A46937502E00123BD
:10071C006A4693750020694602F05EF906B010BD7A
:10072C00031C303BDBB258B2092801DDD81F40B2A4
:10073C000F2801DD203840B27047C04638B50D1C7B
:10074C0040B2FFF7EDFFC4B22401E4B268B2FFF788
:10075C00E7FF2018C0B238BD70B584B0214B1B7AAE
:10076C00002B09D11F4B5B7A0024082B05D11D4BA4
:10077C009B7ADC2B33D000E000241B4D0026281C78
:10078C00FFF75CFE00F08EFEC3B26A461370532B6B
:10079C000CD11648FFF752FE341C04E000F082FE28
:1007AC006B46185501340B2CF8D90124002CE6D0DB
:1007BC00002500240B4E09E06B1C6A46505DD15C91
:1007CC00FFF7BCFF3319187201340235062CF3D92C
:1007DC00FFF74AFEFFF754FF0548FFF72FFE04B062
:1007EC0070BDC046C4000020B8490000C8490000D4
:1007FC00CC490000BFF34F8F024A034BDA60BFF3C2
:10080C004F8FFEE70400FA0500ED00E030B5002341
:10081C0005E0CC1825784540257001339BB29342F6
:10082C00F7D330BD30B5002305E0CC182578454012
:10083C00257001339BB29342F7D330BDF0B54F46D0
:10084C004646C0B4FDB0061C8946141CFFF708FED2
:10085C0080466D46EF35FF35301C0B212A1C01F00C
:10086C00EFFC6279A7793F0217432A8897425AD145
:10087C006B460A330093301C3EA9062203AB01F0F1
:10088C00D5FB63785AB2002A08DA7F2018406B46F1
:10089C00EF33FF331A883EA9FFF7C4FF41460831F6
:1008AC003EA8062202F0C2FE00283CD119235B426E
:1008BC0063710023A371552323714146083104A8A9
:1008CC00062202F0C2FE684616304146E12202F0D2
:1008DC00BCFE63785AB2002A05DA7F20184004A9BE
:1008EC00E722FFF793FF40A8211C072202F0ADFE80
:1008FC0068460830FF3004A9E72202F0A6FEA37870
:10090C00002B04D14846FF21042202F0A7FE4946E1
:10091C000A794B791B0213430093301C40A9EE2239
:10092C004B4601F09BFA7DB00CBC90469946F0BD4D
:10093C00F0B557464E464546E0B4A4B0061C894671
:10094C00141CFFF78DFD80466D468E35301C0B2137
:10095C002A1C01F075FC6279A7793F0217432A889B
:10096C00974200D0FEE0E3785F33DAB2042A00D974
:10097C00F8E093007E4AD3589F466B463E33009373
:10098C00301C02A9072210AB01F050FB63785AB25D
:10099C00002A07DA7F2018406B468E331A8802A98A
:1009AC00FFF740FF4146023102A8032202F03EFE4F
:1009BC00002800D193E0D5E06B463E330093301C09
:1009CC0002A90C2210AB01F031FB63785AB2002A59
:1009DC0007DA7F2018406B468E331A8802A9FFF77E
:1009EC0021FF02AB1A784046037A9A4200D9B9E04B
:1009FC0002AA5178427A914200D9B3E002A98878D0
:100A0C004546A97A884200D9ACE002A8C578474689
:100A1C00F87A854200D9A5E002AD2D79AC463D7B34
:100A2C00AC4500D99EE002AF7F79BC4647467F7B40
:100A3C00BA46BC4500D995E002AFBF79BB4200D99C
:100A4C0090E002ABDB799A4200D98BE002AB1B7AC7
:100A5C00994200D986E002AB5B7A984200D981E0DA
:100A6C0002AB9B7A9D427DD802ABDB7A9A4536D994
:100A7C0078E06B463E330093301C02A9212210AB68
:100A8C0001F0D4FA63785AB2002A07DA7F201840B2
:100A9C006B468E331A8802A9FFF7C4FE02A802F037
:100AAC007DFE021C02A841469D3102F0BFFD0028CC
:100ABC0015D057E06B463E330093301C02A934220C
:100ACC0010AB01F0B3FA63785AB2002A07DA7F2030
:100ADC0018406B468E331A8802A9FFF7A3FE0C232D
:100AEC0063710023A371552323714146023111A870
:100AFC00032202F0AAFD4146053168464730032225
:100B0C0002F0A3FD4146083168464A30062202F045
:100B1C009CFD63785AB2002A05DA7F20184011A98F
:100B2C000C22FFF773FE14A8211C072202F08DFD86
:100B3C006846573011A90C2202F087FDA378002BD0
:100B4C0004D14846FF21042202F088FD4846027970
:100B5C0043791B0213430093301C14A913224B46F8
:100B6C0001F07CF924B01CBC90469946A246F0BD1D
:100B7C00F0490000F0B54F464646C0B4494CA54478
:100B8C00061C8946141CFFF76BFC8046464D6D44D1
:100B9C00301C0B212A1C01F053FB6279A7793F0210
:100BAC0017432A88974276D16B460A330093301C40
:100BBC003EA9F82203AB01F039FA63785AB2002A45
:100BCC0007DA7F201840384B6B441A883EA9FFF790
:100BDC0029FE414608313EA8062202F027FD0028D6
:100BEC0059D16846FF304146B13102F0C5FD0028AD
:100BFC0051D1404669461031FF31E122FFF754FDD7
:100C0C006D2341464B7109238B710823CB71FFF780
:100C1C0037FD19235B4263710023A37155232371A4
:100C2C004146083104A8062202F00FFD6846163032
:100C3C004146E12202F009FD63785AB2002A05DA36
:100C4C007F20184004A9E722FFF7E0FD7CA8211CB7
:100C5C00072202F0FAFC6846F830FF3004A9E722BC
:100C6C0002F0F3FCA378002B04D14846FF210422A8
:100C7C0002F0F4FC4B461A795B791B021343009388
:100C8C00301C7CA9EE224B4601F0E8F86420FFF7FB
:100C9C00BFFBFFF7AFFDB9239B009D440CBC9046F6
:100CAC009946F0BD1CFDFFFFDE020000F0B54F467B
:100CBC004646C0B491B0061C8946141CFFF7D0FB05
:100CCC0080466D463E35301C0B212A1C01F0B8FACB
:100CDC006279A7793F0217432A8897425CD16B4609
:100CEC000A330093301C06A9172203AB01F09EF9BE
:100CFC0063785AB2002A06DA7F2018406B46DA8FE6
:100D0C0006A9FFF78FFD4146083106A8062202F01E
:100D1C008DFC002840D168461F304146B13102F0AD
:100D2C002BFD002838D1062262710023A3715523B4
:100D3C0023714146083104A802F087FC63785AB24B
:100D4C00002A05DA7F20184004A90622FFF75EFD71
:100D5C000CA8211C072202F078FC6846373004A945
:100D6C00062202F072FCA378002B04D14846FF2126
:100D7C00042202F073FC49460A794B791B02134397
:100D8C000093301C0CA90D224B4601F067F864202F
:100D9C00FFF73EFBFFF72EFD11B00CBC90469946B9
:100DAC00F0BDC046F0B557464E464546E0B4B8B027
:100DBC00061C8946141CFFF753FB8246FFF750FBB9
:100DCC0080466D46C635301C0B212A1C01F038FAC2
:100DDC006379A7793F021F432A88974200D098E095
:100DEC006B460E330093301C1DA94F2204AB01F04F
:100DFC001DF9E378D12B00D08BE063785AB2002A2E
:100E0C0007DA7F2018406B46C6331A881DA9FFF7F6
:100E1C0009FD414608311DA8062202F007FC0028F6
:100E2C0077D168467B304146B13102F0A5FC0028F1
:100E3C006FD157460837162532A8391C2A1C02F0E8
:100E4C0004FCFFF7FDFB381C32A92A1C02F0FDFB49
:100E5C00FFF716FC05A8211C072202F0F6FB06255D
:100E6C0068461B3049462A1C02F0EFFB68462130CD
:100E7C0069468B31042202F0E8FB6846253069464E
:100E8C008F31022202F0E1FB68462730694691312E
:100E9C00322202F0DAFB002005A94522FFF71AFAEC
:100EAC0065710023A371552323714146083117A89E
:100EBC002A1C02F0CAFB63785AB2002A05DA7F209A
:100ECC00184017A92A1CFFF7A1FC19A8211C0722FE
:100EDC0002F0BBFB68466B3017A9062202F0B5FB8B
:100EEC00A378002B04D14846FF21042202F0B6FB64
:100EFC0049460A794B791B0213430093301C19A9FC
:100F0C000D224B4600F0AAFF6420FFF781FAFFF791
:100F1C0071FC38B01CBC90469946A246F0BDC04648
:100F2C00F0B54F464646C0B491B0061C8946141C19
:100F3C00FFF796FA80466D463E35301C0B212A1C75
:100F4C0001F07EF96279A7793F0217432A8897420C
:100F5C0060D16B460A330093301C06A9172203ABF1
:100F6C0001F064F863785AB2002A06DA7F20184040
:100F7C006B46DA8F06A9FFF755FC4146083106A8E7
:100F8C00062202F053FB002844D168461F3041462C
:100F9C00B13102F0F1FB00283CD1FFF765FAFFF705
:100FAC006FFB062262710023A37155232371414606
:100FBC00083104A802F049FB63785AB2002A05DA1A
:100FCC007F20184004A90622FFF720FC0CA8211C46
:100FDC00072202F03AFB6846373004A9062202F0D9
:100FEC0034FBA378002B04D14846FF21042202F0E5
:100FFC0035FB49460A794B791B0213430093301C8D
:10100C000CA90D224B4600F029FF6420FFF700FAD3
:10101C00FFF7F0FB11B00CBC90469946F0BDC046F2
:10102C0070B59CB0051CFFF71BFA061C281C00F0C1
:10103C004DFE281C0221274A002300F081FE04AC3F
:10104C000020211C4522FFF739F906236371002388
:10105C00A371D223E37055232371311C083116A8D8
:10106C00062202F0F2FA63785AB2002A05DA7F20DF
:10107C00184016A90622FFF7C9FB04AC18A8211CBE
:10108C00072202F0E2FA6846673016A9062202F03F
:10109C00DCFAA378002B05D168461730FF21042217
:1010AC0002F0DCFA03A869461731042202F0CDFAEB
:1010BC006C460A34201C69461B31022202F0C5FA28
:1010CC0023880093281C18A90D2203AB00F0C6FE40
:1010DC001CB070BD9619000030B589B0051C6C466B
:1010EC001F340A21221C01F0ABF82378002B51D0BD
:1010FC00222B55D107AC281C0921221C01F0A0F889
:10110C002388062B4CD903AC06AB0093281C211C5E
:10111C00072205AB00F08AFF2378A52B40D103AB47
:10112C001B79AA2B3CD103ABDB780F229343C02B4A
:10113C0018D004D8A02B09D0B02B0DD030E0E02B68
:10114C001CD0F02B20D0D02B2AD111E0281C05A9C3
:10115C0003AAFFF7EDFB23E0281C05A903AAFFF760
:10116C006DFB1DE0281C05A903AAFFF703FD17E082
:10117C00281C05A903AAFFF715FE11E0281C05A9D8
:10118C0003AAFFF793FD0BE0281C05A903AAFFF7A0
:10119C00C7FE05E0281C0221024A002300F0D0FD06
:1011AC0009B030BD96190000034800688546034815
:1011BC000068874670470000008000000480000033
:1011CC0000B5C1B0002303E01A786946CA54013354
:1011DC00FF2BF9D972B62220FE21C9016A46802361
:1011EC005B0001F065FD62B641B000BD00B5C1B059
:1011FC00002303E01A786946CA540133072BF9D946
:10120C00082304E0C21812786946CA540133A72B8C
:10121C00F8D9A82303E01A786946CA540133FF2B86
:10122C00F9D972B6122000210022002301F040FDF2
:10123C00222000216A4680235B0001F039FD62B652
:10124C0041B000BD30B593B0002069464522FFF790
:10125C0035F86A4613780020A52B22D1507B000666
:10126C00937B1B041843D37B1B021843137C18433A
:10127C006946133100F0F6FC00F096FC041EFBD01E
:10128C0002280DD10220FFF7CBFE45256846002130
:10129C002A1C02F0E3F9002069462A1CFFF71AF811
:1012AC00201C13B030BDC04670B582B002F054F9AA
:1012BC0002F028F9FA21890002F062F901384E4B4C
:1012CC0098420DD84D4B58604D4A106A0002000AE6
:1012DC00C02109060143116200229A6007221A609C
:1012EC0002F010F9474902F04BF9474B1860E12026
:1012FC00400202F03BF8012002F044F8FE23DB012F
:10130C001B68013302D1FFF75BFF03E0FE20C00135
:10131C00FFF76CFF0020FEF779FF0120FEF776FF48
:10132C000220FEF773FF0020FEF78EFF0120FEF770
:10133C008BFF0220FEF788FFFEF7A4FFFEF7B6FF37
:10134C00FFF77EF9FFF736F8FFF706FA0023009354
:10135C006A4693800820694601F0AAF92B4802F0EE
:10136C0001FA2B48694602F081F92A4802F0FAF991
:10137C0002F0CEF8011C284802F078F902F0C2F80D
:10138C00011C264802F072F98620C0058021090252
:10139C008022D20101F0BAFF002801D0204900E0E0
:1013AC002049214802F062F9FFF782F901201F4918
:1013BC0000F0E4FBFFF746FF01280DD080231B0251
:1013CC001B68013308D080200002FFF70FFF18487C
:1013DC0002F0C8F9FFF7E8FE164C261C002523780E
:1013EC00002B03D10220FFF777FEF8E700F0DCFBBF
:1013FC000028F4D03570F2E7FFFFFF0010E000E0AA
:10140C0000ED00E01027000000200046144A000008
:10141C00444A0000584A0000884A0000A44A0000D0
:10142C00044A00000C4A0000C04A0000340A0020A4
:10143C00D84A0000A8010020044B1B68002B03D0E5
:10144C00024B1A68013A1A607047C046AC01002082
:10145C0008B5031C0A1C0248191C02F007F9FEE728
:10146C00F44A000010B5041C01F0A8FF201C10BDAC
:10147C0070B50E1C151C002403E0305DFFF7F2FF65
:10148C000134A542F9D8281C70BDC04638B5051CDE
:10149C002C78002C02D0201C01F090FF0135002C80
:1014AC00F6D138BD08B5044902224B681A42FCD06B
:1014BC0001F08EFFC0B208BD006000407047C0460E
:1014CC0008B5024802F04EF908BDC046244B000096
:1014DC007047C0467047C04608B5FFF7ADFF08BD62
:1014EC007047C0467047C0467047C0467047C046FC
:1014FC007047C0467047C0467047C0467047C046EC
:10150C007047C0467047C04608B5FEF7FBFE08BDE5
:10151C0008B5FEF73DFF08BD7047C0467047C04692
:10152C007047C0467047C0467047C0467047C046BB
:10153C007047C0467047C0467047C0467047C046AB
:10154C007047C0467047C04608B500F005F8C04665
:10155C0008B502F001F808BDBFF34F8F024A034BE8
:10156C00DA60BFF34F8FFEE70400FA0500ED00E0F0
:10157C0008B50D4B1B68002B02D10C4A0A4B1A60A4
:10158C00094B1B680330032290431818084A9042F9
:10159C0006D902F045F80C2303600120404202E01A
:1015AC00014A1060181C08BDB0010020101E00205C
:1015BC000037002001230360014B0B607047C046CD
:1015CC001000002008B502F02BF85823036001200E
:1015DC00404208BD08B502F023F8582303600120EF
:1015EC00404208BD08B502F01BF8582303600020E8
:1015FC0008BDC04608B502F013F85823036001205B
:10160C00404208BD08B502F00BF8582303600120D6
:10161C00404208BD0302000A184380B27047C0461E
:10162C00020603041B0E1B041343020C1206120CBD
:10163C001343000E1843704708B5FFF7EBFF08BDC6
:10164C0008B5FFF7EDFF08BD08B5FFF7F5FF08BDBE
:10165C0008B5FFF7E5FF08BD00230B4A13700B4AD2
:10166C0013600B4A13800B4A13800B4A13600B4A0E
:10167C0013800B4A13600B4A13600B4A13600B4B1D
:10168C0000221A707047C046C0010020B80100202B
:10169C00DC010020DE010020E0010020D60100204A
:1016AC00E8010020D8010020E4010020D401002032
:1016BC00054B1B68002B06D00023034A1360034A1A
:1016CC001360034A13607047E8010020D801002022
:1016DC00E4010020064B1B68002B07D10122044BB0
:1016EC001A600023034A1360034A13607047C04614
:1016FC00E8010020D8010020E401002030B583B0BF
:10170C00041C02210B4A012300F01AFBC5B2A542AE
:10171C000BD16C460734281C0A21221C00F090FDCA
:10172C002378222BF7D1281C01E00120404203B082
:10173C0030BDC04638C7000008B5031C0A1C02485F
:10174C00191C01F082FF08BDC0010020F0B585B066
:10175C00071C0D1C141C181C03930AAB1E88FFF7E6
:10176C006FFF0390F8B2A2B20096291C03AB00F0F5
:10177C0075FB031CA34201D00120404205B0F0BD13
:10178C00F0B55F4656464D464446F0B4304CA54441
:10179C0081468A4690469B460120FFF74DFF03ABDE
:1017AC00188068460E30494601F0F0FF484601F0BB
:1017BC00F5FF441C0E226A441419201C514601F0FA
:1017CC00E5FF504601F0EAFF451C6519002416E0C0
:1017DC00E60046443768281C391C01F0D7FF381C3A
:1017EC0001F0DCFF01302D187668281C311C01F04B
:1017FC00CDFF301C01F0D2FF01302D180134A34570
:10180C00E6D803A96A1A134B1B68134800684524D1
:10181C000094FFF79BFF0122104B1A60484601F021
:10182C00BDFF411C4846FFF787FFFFF753FF0C4BEA
:10183C001B681A0704D50B484946524601F016FF9F
:10184C00094B9D443CBC90469946A246AB46F0BD24
:10185C0004FAFFFFB801002018000020E00100206E
:10186C0024000020684B0000FC05000030B585B05A
:10187C00051C0420FFF7E0FE03AC2080281CFFF7BA
:10188C00DBFE6B46D8810B4B1B680B4A12880B494D
:10189C0008680092211C0422FFF758FFFFF71AFF7B
:1018AC00074B1B681A0703D50648291C01F0DEFEFE
:1018BC0005B030BDB8010020DC010020180000206C
:1018CC0024000020904B0000F0B585B00E1C171CB6
:1018DC001D1CC4B2201C0A216A460F3200F0B0FC59
:1018EC0001281FD16B460F331B78222B1DD1201CD6
:1018FC00092103AA00F0A4FC012819D103AB1B8811
:10190C00002B18D0BAB20A9B0093201C311C2B1C44
:10191C0000F08CFB03AC20802868FFF799FE286050
:10192C0020880AE00120404207E00120404204E008
:10193C000120404201E00120404205B0F0BDC0460C
:10194C0010B5041C0088FFF77FFE20806088FFF72D
:10195C007BFE81B261800C4B1B681A0703D5221DDC
:10196C000A4801F083FE084B1B689A0705D562886C
:10197C00231D0748074901F079FEFFF76DFE012290
:10198C00054B1A7010BDC04624000020B44B00005B
:10199C00D04B0000304B0000D401002038B5041CA3
:1019AC000D1C0088FFF750FE20806088FFF74CFE6E
:1019BC0082B262801E4B1B68190703D521881D4813
:1019CC0001F054FE1C4B1B68032B15D0052B01D0CA
:1019DC00012B2BD16288012A0AD10321164B1960E5
:1019EC00164B1A80201D291FFEF7EEFBFFF760FE39
:1019FC006088FFF73BFF19E06288104B1B880133AE
:101A0C009A4207D10D4B1A80201D291FFEF7DCFBD3
:101A1C00FFF74EFE6088FFF729FF043D084B9D42FF
:101A2C0004D8FFF719FE0222064B1A7038BDC046C7
:101A3C0024000020EC4B0000E0010020D601002027
:101A4C00FF010000D401002008B5044B1B681A07E5
:101A5C0002D5034801F086FE08BDC04624000020D4
:101A6C00184C000008B50E4B1B681A0702D50D4820
:101A7C0001F078FE0C4B1B68012B02D0022B09D015
:101A8C000DE00522084B1A60FFF712FE0020FFF74D
:101A9C00EDFE04E00422044B1A60FFF709FE08BDBA
:101AAC0024000020284C0000E0010020F0B547463F
:101ABC0080B4061C0F1C141C9846284D2D68AA4295
:101ACC0012D0274B1B689A0703D52648264901F0EC
:101ADC00CDFD234B1B689A073CD5204B1A68234835
:101AEC00211C01F0C3FD35E00088FFF7ADFD041C9F
:101AFC001F4B1B68022B01D0012B0BD11D4B4246F7
:101B0C001A80174B1B68DA0704D51B481649424646
:101B1C0001F0ACFD2004000C04280DD002DC0328DD
:101B2C0005D017E0052811D006280AD012E0301C89
:101B3C00391CFFF733FF0DE0301C391CFFF784FF15
:101B4C0008E0301C391CFFF78DFF03E0301C391CFA
:101B5C00FFF7F6FE04BC9046F0BDC046B80100206D
:101B6C00240000203C4C0000404B0000544C000072
:101B7C00E0010020DC010020784C000010B5041CB2
:101B8C00FFF76AFD201CFFF7B9FD044B18600448F1
:101B9C000021044A01F062FD10BDC046180000206F
:101BAC0024180020EA05000070B582B01F4B1B689A
:101BBC00002B23D01E4B1B68042B1FD91D4B1B68FD
:101BCC00032B09D0052B07D0012B09D11A481B492F
:101BDC001B4AFFF7D5FD03E01A4B1888FFF746FEAA
:101BEC000022134B1A60184A136801331360042B3C
:101BFC0004D9FFF731FD0122144B1A70144B1868ED
:101C0C00144C154E154D0095211C154A331CFFF72D
:101C1C005BFE32682B889BB20104090C201CFFF779
:101C2C0045FF0A4B187802B070BDC046E801002091
:101C3C00D8010020E0010020C0010020944C0000DD
:101C4C001C000020D6010020E4010020D40100205B
:101C5C001800002024180020EC010020BC010020FA
:101C6C00EA05000010B5021C0C1C0A4B18600A4B4C
:101C7C001B68D90703D50948094901F0F7FC002274
:101C8C00084B1A70201C0849084A0123FFF778FDFD
:101C9C0010BDC046B8010020240000209C4C000060
:101CAC00544B0000D4010020944C00001C00002078
:101CBC00044B1B68002B03D0034B1A6801321A60CB
:101CCC007047C046E8010020D801002070B5051E01
:101CDC00082D26D88604144BF418201C102101F072
:101CEC0081FB201C01F07AFB0028FAD10F4BF01875
:101CFC001F2101F077FB0121A9400D4B1A888A4363
:101D0C001A806A0000210B4BD1520B4B00225A5502
:101D1C000A4BF418201C01F061FB0028FAD10120B9
:101D2C0000E0FF2040B270BD1000014628000146C3
:101D3C00F2010020FC010020F401002030000146DB
:101D4C00F0B5474680B4051C0E1C141C1F1C08283B
:101D5C0061D8002961D0022901D904295DD106235B
:101D6C003B425CD1002F0DD0012E02D0022E04D0AC
:101D7C0008E021233B4205D153E0BA0602D57BB2E1
:101D8C00002B50DA281CFFF7A1FFAB049846284A19
:101D9C00101C40440F23391C9943314301F022FBA2
:101DAC00002C0AD1234A1488631C9BB21380224A4C
:101DBC00934202D1214A1F4B1A80214A131C4344DF
:101DCC001C60204B1C1C4444201C012101F00AFB0C
:101DDC00201C01F003FB0028FAD101231F40AF4067
:101DEC00194B1A8817431F800121A940174B1A88D9
:101DFC008A431A806B000021154A9952154B002218
:101E0C005A55154A141C4444201C01F0E7FA0028CA
:101E1C00FAD0E8B208E0FF2006E0FB2004E0FA204C
:101E2C0002E0FA2000E0FA2040B204BC9046F0BD7B
:101E3C000000014628000020F0FF000000C0FFFF5A
:101E4C001401014610000146F0010020F2010020AF
:101E5C00FC010020F401002030000146F0B55F4683
:101E6C0056464D464446F0B483B000900191171C81
:101E7C001C1C0CAB1D88082800D9A0E080468304EC
:101E8C009B465D4A101C584401F0A8FA0F231840D9
:101E9C00022802D0042800D094E0002F00D194E056
:101EAC0023781B0262789B181B02A2789B181B02DA
:101EBC00E2789B180438421E9041C0B25A425341FA
:101ECC00034200D084E06B426B41034200D082E0BD
:101EDC004A4B1E1C5E44301C01F080FA422801D093
:101EEC0022287BD12178464A101C584401F07AFAFA
:101EFC006178444B181C584401F074FAA178424A9A
:101F0C00101C584401F06EFAE178404B181C5844F0
:101F1C0001F068FA3E4A131C5B441D603D4B181CD3
:101F2C00584401F05BFA8502ADB2AF4200D83D1CBB
:101F3C00394A171C5F44394B9A46012291463C683A
:101F4C00A4B2301C01F04AFA00284AD05246138839
:101F5C00424613414A461A4201D0AC4244D3AC42E9
:101F6C00EDD3009801992A1C01F05AFA2C4B1C1C39
:101F7C005C44201C202101F035FA201C01F02EFAC3
:101F8C000028FAD1274A161C5E4410240827301C5E
:101F9C0001F024FA044207D0234B181C584410219A
:101FAC0001F020FA281C20E00742F0D01E4A101C39
:101FBC005844082101F016FA0D20404215E001208A
:101FCC00404212E0052040420FE00E2040420CE05F
:101FDC000C20404209E00B20404206E00720404222
:101FEC0003E00420404200E0002003B03CBC9046DB
:101FFC009946A246AB46F0BD0000014630000146B2
:10200C00270101462601014625010146240101460E
:10201C00200101460002014604020146F0010020A5
:10202C00100001462000014628000146F0B55F462D
:10203C0056464D464446F0B487B0051C0291934673
:10204C000393082800D9D4E0061C80048246734907
:10205C00081C504401F0C2F901900F230340022BDD
:10206C0002D0042B00D0C7E05A46002A00D1C6E0AB
:10207C006B006B4A9B5A002B1BD16A4B9846D04481
:10208C006948071C57446949894642461468A4B2FA
:10209C00381C01F0A3F9002800D1B3E048460388AE
:1020AC003341D90702D5002C00D1AEE0002CECD086
:1020BC0000E0002400225E4B5A550723019A13407E
:1020CC00022B02D0042B3CD071E06B00544A9B5A7B
:1020DC00002B2AD1281C04A9082201F0BDF9554B6C
:1020EC001C1C5444201C402101F07CF9201C01F0E4
:1020FC0075F90028FAD16846037C03990B70437C70
:10210C004B70837C8B70C37CCB70037D427D1B0238
:10211C00D318109A1380827D6B00C17D120289182E
:10212C003F4A99528022424B5A556B003C4A9C5A6A
:10213C005C4500D95C46281C0299221C01F08CF9E4
:10214C003CE06B00364A9B5A002B24D1281C04A976
:10215C00022201F081F9374B1C1C5444201C4021F5
:10216C0001F040F9201C01F039F90028FAD1684639
:10217C00037C6A00417C1B02CB189BB2284953524A
:10218C002D4A934204D9281CFFF7A0FD2B483DE0B3
:10219C008022274B5A556B00214A9C5A5C4500D92A
:1021AC005C46281C0299221C01F072F906E0281CDE
:1021BC00211C01F08FF96B00194A9C521D490E1C11
:1021CC005644301C402101F00DF9301C01F006F989
:1021DC000028FAD1124A69008B5A1B1B9BB28B52F6
:1021EC00002B04D0124B595D01220A435A55201C76
:1021FC000CE00120404209E00520404206E00E20A0
:10220C00404203E00420404200E0002007B03CBC08
:10221C0090469946A246AB46F0BDC046000001462A
:10222C00FC0100202402014630000146F001002090
:10223C00F401002010000146EC05000017FCFFFF24
:10224C0070B5041C151C082800D98AE00C2900D98B
:10225C0089E08900474B5B589F468404464BE01845
:10226C0001F0BCF80F2398432870012080E084040F
:10227C00424BE01801F0B2F82870012078E0840499
:10228C003F4BE01801F0AAF82870012070E084049C
:10229C003C4BE41823681370012069E084043A4B2A
:1022AC00E01801F09BF82870384BE01801F096F814
:1022BC006870374BE01801F091F8A870354BE018B6
:1022CC0001F08CF8E870012052E08404324BE418E1
:1022DC002368138001204BE08404274BE01801F0A5
:1022EC007DF80F23184001283FD12C4BE01801F04A
:1022FC0075F8288001203BE08404294BE4182368FE
:10230C001380012034E08404264BE41823681380E6
:10231C0001202DE08404244BE01801F05FF82870B4
:10232C00012025E08604144BF01801F057F8012821
:10233C0004D11C4BF61833682B8019E064001B4B3E
:10234C00E35A2B80012013E080040B4BC01801F0E2
:10235C0045F80F231840012809D1154B1B5D2B7034
:10236C0006E0FF2004E0FE2002E0FB2000E0FB2062
:10237C0040B270BDC44C000000000146080101468B
:10238C0004010146100101462701014626010146C0
:10239C002501014624010146200101468001014628
:1023AC00040201462402014630000146FC010020D3
:1023BC00F40100207047C0467047C0467047C046C5
:1023CC007047C0460078C0B27047C0460170704775
:1023DC00F0B55F4656464D464446F0B493B0554B67
:1023EC009A46181C00F0FAFF0090534B9946181CA3
:1023FC0000F0F4FF0190514B9846181C00F0EEFFD2
:10240C0002904F4800F0EAFF03904E4800F0E6FFC0
:10241C0004904D4800F0E2FF05904C4800F0DEFFC0
:10242C0006904B4800F0DAFF07904A4800F0D6FFC0
:10243C000890494800F0D2FF0990484800F0CEFFC0
:10244C000A90474800F0CAFF0B90464800F0C6FFC0
:10245C000C90454800F0C2FF0D90444F381C00F022
:10246C00BDFF0E90424E301C00F0B8FF0F90414D56
:10247C00281C00F0B3FF10903F4C201C00F0AEFF66
:10248C0011903E4B9B46181C802100F0ABFF584628
:10249C0000F0A4FF5046009900F0A4FF48460199B3
:1024AC0000F0A0FF4046029900F09CFF24480399DD
:1024BC0000F098FF2348049900F094FF22480599F6
:1024CC0000F090FF2148069900F08CFF20480799F6
:1024DC0000F088FF1F48089900F084FF1E480999F6
:1024EC0000F080FF1D480A9900F07CFF1C480B99F6
:1024FC0000F078FF1B480C9900F074FF1A480D99F6
:10250C0000F070FF381C0E9900F06CFF301C0F9916
:10251C0000F068FF281C109900F064FF201C119932
:10252C0000F060FF13B03CBC90469946A246AB4607
:10253C00F0BDC046036000460260004601600046E4
:10254C000060004607600046066000460B600046CF
:10255C000A60004609600046086000460F600046AD
:10256C000E6000460D6000460C600046136000468D
:10257C0012600046116000461060004600230046C1
:10258C0070B5061C0D1CFFF723FF002E07D11CE0B5
:10259C005AB2B25C5118C9B20133DBB201E000216E
:1025AC0000235AB2072AF3DD49B210292FDC00248C
:1025BC0008E063B29804184A8018F15C00F012FF2E
:1025CC000134E4B263B2072BF3DD002200230020B8
:1025DC00002D1FD005E059B2695C8A18D2B20133C4
:1025EC00DBB259B20729F6DD52B2102A11DC0024F5
:1025FC0008E063B29804094A8018E95C00F0F2FE26
:10260C000134E4B263B2072BF3DD002002E0FF20BB
:10261C0000E0FF2040B270BD0002014620020146DE
:10262C0010B5040AF0210140034800F0DBFE03481A
:10263C00211C00F0D7FE10BD0821004610210046D9
:10264C0010B5054800F0CAFE041C044800F0C6FE94
:10265C000002001980B210BD002100461021004676
:10266C0010B5040AF0210140034800F0BBFE0348FA
:10267C00211C00F0B7FE10BD0421004614210046B9
:10268C0010B5054800F0AAFE041C044800F0A6FE94
:10269C000002001980B210BD04210046142100462E
:1026AC00012040427047C046012040427047C0465E
:1026BC0010B582B00C1C0023009301930A2844D857
:1026CC008000264B1B589F46FFF782FE002041E0FE
:1026DC00002902D000910834019400980199FFF769
:1026EC004FFF37E00888FFF79BFF002032E0FFF731
:1026FC00A7FF208000202DE00888FFF7B1FF002005
:10270C0028E0FFF7BDFF2080002023E0144B9A78CF
:10271C000A70DA784A701A798A705A79CA709B7979
:10272C000B7100234B71002014E0FFF7BDFFC0B20A
:10273C00FF280CD0207000200CE0FFF7B1FFC0B2D6
:10274C00FF2806D02070002004E0FF2002E0FF20CC
:10275C0000E0FF2040B202B010BDC046F84C0000B3
:10276C002C00002010B5041C01782A4800F03AFE19
:10277C006178294800F036FEA178284800F032FE36
:10278C00E178274800F02EFE2179264800F02AFE39
:10279C006179254800F026FEA17B244800F022FE3A
:1027AC00E17B234800F01EFE217C224800F01AFE3B
:1027BC00617C214800F016FEA17A204800F012FE40
:1027CC00E17A1F4800F00EFE217B1E4800F00AFE45
:1027DC00617B1D4800F006FEA1791C4800F002FE4A
:1027EC00E1791B4800F0FEFD217A1A4800F0FAFD51
:1027FC00617A194800F0F6FDA27C184B1A70E27C45
:10280C005A70227D9A70627DDA70A27D144B1A7018
:10281C0010BDC046036000460260004601600046E1
:10282C000060004607600046066000460B600046EC
:10283C000A60004609600046086000460F600046CA
:10284C000E6000460D6000460C60004613600046AA
:10285C001260004611600046106000461002002015
:10286C000C02002010B5041C2A4800F0B7FD2070A3
:10287C00294800F0B3FD6070284800F0AFFDA0704F
:10288C00274800F0ABFDE070264800F0A7FD207152
:10289C00254800F0A3FD6071244800F09FFDA07353
:1028AC00234800F09BFDE073224800F097FD207454
:1028BC00214800F093FD6074204800F08FFDA07259
:1028CC001F4800F08BFDE0721E4800F087FD20735E
:1028DC001D4800F083FD60731C4800F07FFDA07163
:1028EC001B4800F07BFDE0711A4800F077FD207268
:1028FC00194800F073FD6072184B1A78A2745A785C
:10290C00E2749A782275DB786375154B1B78A37586
:10291C0010BDC046036000460260004601600046E0
:10292C000060004607600046066000460B600046EB
:10293C000A60004609600046086000460F600046C9
:10294C000E6000460D6000460C60004613600046A9
:10295C001260004611600046106000461002002014
:10296C000C02002038B5041C3823021C9A430AD1EF
:10297C00064D281C00F032FD0443E1B2281C00F087
:10298C0031FD002000E0FF2040B238BD002300469E
:10299C0008B5024800F022FD08BDC04600230046E1
:1029AC0010B5041C0178034800F01CFD6288024B32
:1029BC001A6010BD446000464060004610B5041C0F
:1029CC00034800F00BFD2070024B1B68638010BDA8
:1029DC00446000464060004610B50C1C052820D809
:1029EC008000114B1B589F46081CFFF7BBFE0020B4
:1029FC0018E0081CFFF736FF002013E00878FFF7FB
:102A0C00B1FF0FE0FFF7C4FF207000200AE0081CA4
:102A1C00FFF7C6FF002005E0081CFFF7CFFF0020E2
:102A2C0000E0FF2040B210BD244D0000002803D070
:102A3C000122044BDA6103E002225242014BDA61BB
:102A4C007047C0460010004110B5041C831E012BBA
:102A5C0003D907487421FEF7FBFC022C04D1022297
:102A6C005242044B1A6202E00122024B1A6210BD60
:102A7C003C4D00000010004138B5041C0D1C134BDC
:102A8C0098420CD0124B984209D0124B984206D067
:102A9C00114B984203D01148A021FEF7D9FC012D0F
:102AAC0003D90E48A121FEF7D3FC002D06D0A26855
:102ABC0080231A43A2600122E25006E0A268802320
:102ACC009A43A26002225242E25038BD00100040EC
:102ADC002010004000200040202000409C4D0000B1
:102AEC0038B5051C0C1C344B98420CD0334B984217
:102AFC0009D0334B984206D0324B984203D032481F
:102B0C005E21FEF7A5FC2379002B05D0402B03D0CA
:102B1C002D485F21FEF79CFC6379002B07D0042B1A
:102B2C0005D0082B03D028486021FEF791FCA3792F
:102B3C00002B05D0022B03D023486121FEF788FC23
:102B4C00E379012B03D920486221FEF781FC281C74
:102B5C000021FFF791FF21682960AA6823795906A3
:102B6C0002D540231A4301E040239A436379590765
:102B7C0005D50C239A43131C04210B430AE01907B7
:102B8C0005D50C239A43131C08210B4302E00C239C
:102B9C009A43131CA279910702D50222134301E038
:102BAC0002229343E279D10702D50122134301E0BB
:102BBC0001229343AB6038BD001000402010004050
:102BCC0000200040202000409C4D000038B5041C23
:102BDC000D1C124B98420DD0114B98420AD0114B40
:102BEC00984207D0104B984204D010481421FF3162
:102BFC00FEF72EFC012D04D90C488A214900FEF762
:102C0C0027FC002D04D0A26820231343A36003E00B
:102C1C00A36820229343A36038BDC0460010004037
:102C2C002010004000200040202000409C4D00005F
:102C3C0010B5041C094B98420DD0094B98420AD090
:102C4C00084B984207D0084B984204D0074896216D
:102C5C004900FEF7FDFB6069C0B210BD00100040DA
:102C6C002010004000200040202000409C4D00001F
:102C7C0010B5041C094B98420DD0094B98420AD050
:102C8C00084B984207D0084B984204D00748A02123
:102C9C004900FEF7DDFB0123E36010BD001000408E
:102CAC002010004000200040202000409C4D0000DF
:102CBC00F8B5054D802464002E5901277F422F5111
:102CCC00024FB8472E51F8BD00E100E00110FF1F84
:102CDC0038B5051C0C1C8423DB0598420FD08623C9
:102CEC00DB0598420BD08823DB05984207D08A235A
:102CFC00DB05984203D01F48B821FEF7A9FB631EE1
:102D0C009BB2012B2FD9042C2DD0082C2BD0102C9E
:102D1C0029D0202C27D0402C25D0802C23D08023C8
:102D2C005B009C421FD080239B009C421BD08023C5
:102D3C00DB009C4217D080231B019C4213D08023C4
:102D4C005B019C420FD080239B019C420BD08023C3
:102D5C00DB019C4207D080231B029C4203D0054818
:102D6C00B921FEF775FB28680440201C441EA041C5
:102D7C0038BDC046004E000038B5041C0D1C842321
:102D8C00DB05984210D08623DB0598420CD08823B3
:102D9C00DB05984208D08A23DB05984204D00C4806
:102DAC0083214900FEF754FB002D04D1084808216B
:102DBC00FF31FEF74DFBEBB20133FF339B001D518E
:102DCC002B0A802292009B189B001D5138BDC046D7
:102DDC00004E000038B5041C0D1C8423DB05984202
:102DEC0010D08623DB0598420CD08823DB05984253
:102DFC0008D08A23DB05984204D00C488D21490069
:102E0C00FEF726FB002D04D108481C21FF31FEF7EC
:102E1C001FFBEAB2EB430132FF32920013512D0A31
:102E2C0080229200AD18AD002B5138BD004E000031
:102E3C0070B5041C0E1C151C8423DB05984210D0A5
:102E4C008623DB0598420CD08823DB05984208D0FA
:102E5C008A23DB05984204D01748E021FF31FEF7A6
:102E6C00F7FA0F2E04D91448F0214900FEF7F0FAB6
:102E7C00032D04D91048E221FF31FEF7E9FA84232F
:102E8C00DB059C4203D1B6000C4BF55012E08623B7
:102E9C00DB059C4203D1B600094BF5500AE08823B0
:102EAC00DB059C4203D1B600064BF55002E0B600A0
:102EBC00054BF55070BDC046004E0000002000418F
:102ECC004020004180200041C020004170B5041C0E
:102EDC000D1C161C8423DB0598420FD08623DB05C2
:102EEC0098420BD08823DB05984207D08A23DB0558
:102EFC00984203D013481449FEF7AAFA0F2D04D9AF
:102F0C00104882218900FEF7A3FA8423DB059C423A
:102F1C0003D1AD000D4BEE5012E08623DB059C4235
:102F2C0003D1AD000A4BEE500AE08823DB059C422E
:102F3C0003D1AD00074BEE5002E0AD00064BEE5056
:102F4C0070BDC046004E000007020000003000417A
:102F5C004030004180300041C030004138B5041C85
:102F6C000D1C8423DB0598420FD08623DB05984289
:102F7C000BD08823DB05984207D08A23DB059842C7
:102F8C0003D015481549FEF763FA0F2D03D91248E3
:102F9C001349FEF75DFA8423DB059C4204D1AD0096
:102FAC00104BE858C0B215E08623DB059C4204D1D7
:102FBC00AD000D4BE858C0B20CE08823DB059C42F9
:102FCC0004D1AD00094BE858C0B203E0AD00084B8A
:102FDC00E858C0B238BDC046004E00001A020000CE
:102FEC001B020000003000414030004180300041A5
:102FFC00C0300041F8B55F4656464D464446F0B4E5
:10300C00061C0D1C8423DB0598420FD08623DB05A0
:10301C0098420BD08823DB05984207D08A23DB0526
:10302C00984203D043485A21FEF712FA2968002926
:10303C0003D140485B21FEF70BFA2B79012B03D906
:10304C003C485C21FEF704FA2B7B032B03D939484F
:10305C005E21FEF7FDF98A23DB059E4202D0102289
:10306C00904601E0052398460024012703218A4657
:10307C0058E03B1CA3402A681A409A4251D12A7945
:10308C00012A03D132691343336100E07361A2B2A8
:10309C009146301C111CFFF761FFAB68514619407B
:1030AC00032903D151468843C2B212E01F4205D016
:1030BC0052469043C2B201210A430AE0990705D552
:1030CC0052469043C2B202210A4302E05146884361
:1030DC00C2B20421194201D00A4301E004218A43FF
:1030EC00190702D508210A4301E008218A439906F1
:1030FC0002D520210A4301E020218A43590603D539
:10310C0040231A43934602E040239A4393462A7B7A
:10311C00301C4946FFF78CFE301C49465A46FFF7D7
:10312C00D5FE01344445A4D33CBC90469946A246F6
:10313C00AB46F8BD004E000082B00190002301E0C8
:10314C00C0460133019A9342FAD302B07047C0468D
:10315C00F0B557464E464546E0B40C1C20256D1A7A
:10316C00A840051C164B9946164B9846CA4620E0BB
:10317C00002D06DA134B198853461868FFF7FCFD2F
:10318C0005E0434619884B461868FFF723FE0A20D2
:10319C00FFF7D2FF0A4F0C4E31883868FFF7ECFD71
:1031AC000A20FFF7C9FF38683188FFF713FE6D005E
:1031BC00013C002CDCD11CBC90469946A246F0BDCB
:1031CC0020020020140200201C02002038B50C4CF8
:1031DC0023680C4A12885A610A20FFF7ADFF0A4D8A
:1031EC0029882068FFF7C8FD0A20FFF7A5FF206893
:1031FC002988FFF7EFFD0A20FFF79EFF38BDC04678
:10320C0020020020140200201C02002038B50A4DB8
:10321C0028680A4B1B880361094C2188FFF7ACFD19
:10322C000A20FFF789FF28682188FFF7D3FD0A20C1
:10323C00FFF782FF38BDC046200200201402002098
:10324C001C020020F0B5474680B400200024104D2D
:10325C00104E114B984615E0470031882868FFF74F
:10326C008BFD0A20FFF768FF31882868FFF7B2FD55
:10327C000A20FFF761FF434619882868FFF728FDED
:10328C00384301340F2CE7D904BC9046F0BDC0463E
:10329C00200200201C0200201402002038B5051C5E
:1032AC000C1C012040422021FFF752FF0620042174
:1032BC00FFF74EFF281C0521FFF74AFF201C0521B4
:1032CC00FFF746FFFFF782FFFFF7BCFF041CFFF779
:1032DC009DFF201C38BDC04670B50024094E0DE082
:1032EC00201C0121FFF7DAFF002805D0B04203D0E3
:1032FC00054B1C60012004E00134E4B2072CEFD92B
:10330C00002070BDFFFF000018020020F0B585B052
:10331C00124D2860124F3980124E3280124B00939E
:10332C0001246A46147164230293002313738620CC
:10333C00C0056946FFF75EFE3A8833881343009355
:10334C006B461C71022302936A4614732868694603
:10335C00FFF750FEFFF7C0FF05B0F0BD20020020C4
:10336C001C02002014020020103C000010B5041CAC
:10337C0000F0C8F8211C00F003F9014B186110BDD6
:10338C000060004010B5041E012C04D909488B21A3
:10339C004900FEF75DF8002C05D0074B9968032215
:1033AC000A439A6004E0044B9A6803218A439A60AA
:1033BC0010BDC046604E0000006000400349012271
:1033CC004B681A42FCD1014B1860704700600040FA
:1033DC00014B186880B27047006000400078C0B2A2
:1033EC007047C0460170704730B5002407E065187F
:1033FC002D042D0C2D182D7815550134A4B29C429A
:10340C00F5D330BD70B5002407E065182D042D0CE4
:10341C002D18165D2E700134A4B29C42F5D370BDEC
:10342C0070B50B1C141E11D08504094AAD182E68FA
:10343C003604360C072210408004064A1043311C17
:10344C001A1C231CFFF7DEFFA4192C6070BDC046AC
:10345C000C0201460000024670B50B1C141E11D064
:10346C008504094AAD182E683604360C0722104024
:10347C008004064A1043311C1A1C231CFFF7B4FFAE
:10348C00A4192C6070BDC0462802014600000346FA
:10349C0070B50B1C141E17D085040C4AAD182E6881
:1034AC003604360C072210408004094A1043311CA4
:1034BC001A1C231CFFF798FF0223A3429B415B427B
:1034CC005B00E41AA6192E6070BDC04628020146A6
:1034DC000000034610B500290FD08304074A9B183F
:1034EC001A681204120C072420408004044C204358
:1034FC0089180904090C0818186010BD2802014627
:10350C0000000346014B18687047C0462402002097
:10351C00014B18687047C04628020020024B034A32
:10352C001360034A1360704700127A0028020020CF
:10353C002402002008B50220FFF786FA0120FFF7CD
:10354C0075FA034A034B5A61FFF7E8FF08BDC04602
:10355C00000102000010004108B5054B1A68054B2C
:10356C001A60054B1A68054B1A60FFF7E3FF08BD9C
:10357C00B8FD030010120041BCFD03000410004113
:10358C00002934D00123002210B488422CD301240A
:10359C002407A14204D2814202D209011B01F8E79F
:1035AC00E400A14204D2814202D249005B00F8E758
:1035BC00884201D3401A1A434C08A04202D3001B84
:1035CC005C0822438C08A04202D3001B9C082243B7
:1035DC00CC08A04202D3001BDC082243002803D0F5
:1035EC001B0901D00909E3E7101C10BC7047002827
:1035FC0001D00020C04307B4024802A14018029039
:10360C0003BDC046190000000029F0D003B5FFF738
:10361C00B9FF0EBC4243891A1847C0467047C046D2
:10362C00014B18687047C046AC00002030B5002331
:10363C00934208D0C55C0133CC18013C2478A542D8
:10364C00F6D0281B00E0002030BD10B500239342BB
:10365C0003D0CC5CC4540133F9E710BD031C8218B1
:10366C00934202D019700133FAE770470FB40B4B39
:10367C0013B51C68002C05D0A369002B02D1201CAB
:10368C0000F098FE05ABA168201C049A019300F091
:10369C0005FA16BC08BC04B01847C046AC000020A4
:1036AC0070B5051C0E1C002804D08269002A01D1BB
:1036BC0000F080FEAC68A3891A0702D52369002BA1
:1036CC0019D1281C211C00F0F9FC002813D0012072
:1036DC00404245E03178002B1BDAA269934211DAA3
:1036EC00281C221C00F092FC013043425841C0B20D
:1036FC000028ECD10136A3683278013BA360002A84
:10370C00E8D10CE023681970236819780A2903D1D1
:10371C00E6E722681170236801332360EAE7002B87
:10372C0017DAA269934208DB22680A231370236814
:10373C0019780A2911D1281C01E0281C0A21221C05
:10374C0000F064FC013043425841C0B2002806D05E
:10375C00BDE722680A2313702368013323600A2013
:10376C0070BD000008B5034B011C1868FFF798FFEB
:10377C0008BDC046AC00002002780B780130013146
:10378C00002A01D09A42F7D0D01A7047031C0A784D
:10379C0001311A700133002AF9D170470023C25C41
:1037AC000133002AFBD1581E70470000F0B58D681C
:1037BC0085B0071C0C1C03920193AB4245D390229D
:1037CC008B89D20013423DD06269032656430969A6
:1037DC002068F20F401A96190290021C01980132CF
:1037EC0012187610964200D2161C381C5A050FD5AA
:1037FC00311C00F00BFF051E13D0029A2169FFF754
:10380C0024FFA289184B134080221343A38111E09B
:10381C00321C00F04FFF051E0CD1381C216900F042
:10382C00ADFE0C233B60A389402213430120A381EE
:10383C00404217E0029B2561ED1825606661019DF1
:10384C00F61AA6600198A84200D2019D2A1C206895
:10385C00039900F07AFEA2680020531BA360236832
:10386C005D19256005B0F0BD7FFBFFFFF0B59FB083
:10387C00039005938B890E1C171C19060FD5326902
:10388C00002A0CD1402100F0C1FE306030610028CC
:10389C0003D103990C230B60C9E04023736106AD7F
:1038AC0000236B6120236B763023AB763C1C237892
:1038BC00002B03D1E21B029211D003E0252BF9D08F
:1038CC000134F4E70398311C3A1C029BFFF76EFF9E
:1038DC00013000D1A6E06969029A8B186B612378DC
:1038EC00002B00D19EE0012252426A606A460023FE
:1038FC005B3201342B60EB60AB601370AB654E4FE9
:10390C002178381C052200F015FE002807D0C71BB3
:10391C002B680120B840184328600134EFE72B686E
:10392C00D90603D56A4620215B3211701A0703D5DC
:10393C006A462B215B32117022782A2A01D0099B0E
:10394C000EE0059A111D12680591002A01DB0992FF
:10395C0004E05242EA60022213432B60013409E076
:10396C002278303A092A04D80A214B4301349B1897
:10397C00F6E7099323782E2B18D163782A2B09D1DB
:10398C00059B02341A1D1B680592002B0DDA0123CE
:10399C005B420AE0013400232278303A092A04D829
:1039AC000A214B4301349B18F6E70793234F2178E8
:1039BC00381C032200F0BEFD002806D0C71B2B6864
:1039CC004020B84018432860013421781C48062256
:1039DC00671C297600F0AEFD002812D0194B002B85
:1039EC0006D1059B0722073393430833059314E054
:1039FC0005AB00930398291C321C134B00E000BF4D
:103A0C0007E005AB00930398291C321C0E4B00F009
:103A1C00C1F904900499013104D06A6904995318CE
:103A2C006B6143E7B3895A0601D40B9801E001207E
:103A3C0040421FB0F0BDC046C84E0000CE4E000044
:103A4C00D24E000000000000B9370000936810B59A
:103A5C00013B9360002B05DA9469A34208DBCBB2DF
:103A6C000A2B05D01368581C10601970C8B201E0FD
:103A7C0000F0CCFA10BDF8B5061C0F1C141CD518A0
:103A8C00AC4208D02178301C3A1CFFF7DFFF013420
:103A9C00431CF5D100E00020F8BD0000F0B59FB04C
:103AAC00061C0F1C03920593002804D08169002981
:103ABC0001D100F07FFC754B9F4201D1776808E083
:103ACC00734B9F4201D1B76803E0724B9F4200D108
:103ADC00F768BB891A070AD53B69002B07D006ADDE
:103AEC0000236B6120236B763023AB763BE0301CDC
:103AFC00391C00F0E3FA0028F1D001204042C2E06A
:103B0C00059A111D12680591002A76DB0992013481
:103B1C0023782E2B00D181E021785F48032200F01E
:103B2C0009FD002807D05C492A68431A40209840B8
:103B3C001043286001342178631C584806220393F3
:103B4C00297600F0F7FC002800D18AE0544B002BBA
:103B5C007ED1059B072207339343083305936A698B
:103B6C00049953186B61039C2378002B04D103999F
:103B7C00611A029110D003E0252BF8D00134F3E741
:103B8C00301C391C039A029BFFF775FF013075D06E
:103B9C006A69029953186B612378002B6ED001224D
:103BAC0052426A606A4600235B3201342B60EB6040
:103BBC00AB601370AB6521783A48052200F0BAFC73
:103BCC00002808D0374A0134831A012098402B680A
:103BDC0018432860EFE72B68D90603D56A462021E5
:103BEC005B3211701A0703D56A462B215B321170B8
:103BFC0022782A2A84D0099B05E05242EA600222EC
:103C0C0013432B6083E72278303A092A04D80A211F
:103C1C004B4301349B18F6E7099379E763782A2B19
:103C2C0009D1059B02341A1D1B680592002B0DDA75
:103C3C0001235B420AE0013400232278303A092A3E
:103C4C0004D80A214B4301349B18F6E7079363E72A
:103C5C0005AB0093301C291C3A1C134B00E000BF31
:103C6C0007E005AB0093301C291C3A1C0E4B00F0EE
:103C7C0091F804900499013100D070E7BB895A0681
:103C8C0000D53AE70B981FB0F0BDC046FC4E0000C3
:103C9C001C4F00003C4F0000CE4E0000D24E0000E6
:103CAC0000000000C84E0000833A0000F7B5151C58
:103CBC0001930A698B68061C0C1C934200DA131CD6
:103CCC00221C2B6043321278002A01D001332B6066
:103CDC002068800602D52B6802332B6021680627EA
:103CEC000F401FD0231C43331B785A1E934122686C
:103CFC0092061FD5E11840313020C870211C5A1C87
:103D0C0045310978A21840320233D17012E0221CDE
:103D1C00301C019919320123089FB847013011D08A
:103D2C00009F01370097E0682968009F431A9F4263
:103D3C00EDDBD7E7221C301C01994332089FB847B2
:103D4C00013002D10120404223E0206806212B687B
:103D5C00E26801400025042903D1D51AEB43DB1797
:103D6C001D40A26823699A4201DDD31AED18002781
:103D7C000097009FAF420BDA221C301C01991A32BB
:103D8C000123089FB8470130DCD0009F0137EFE7D3
:103D9C000020FEBDF0B50D1C8BB04335069205908E
:103DAC00079304950B7E0C1C109A6E2B00D1A7E088
:103DBC0011D8632B22D009D8002B00D1B0E0582B9E
:103DCC0000D0C0E045310B707B4D4EE0642B1CD015
:103DDC00692B1AD0B7E0732B00D1A5E009D86F2B53
:103DEC0029D0702B00D0AEE00E68202333430B603B
:103DFC0036E0752B1FD0782B32D0A4E013680D1C45
:103E0C00191D423511601B689FE0216813680E066E
:103E1C0003D5191D11601E6805E04806F9D5191D5A
:103E2C00116000215E5E644B002E3BDA049D2D2256
:103E3C0076422A7036E0216813680E0603D5191DE8
:103E4C0011601E6804E04806F9D5191D1E88116022
:103E5C00594B227E039308276F2A1ED00A271CE099
:103E6C00231C78214533554D197011682368081DA2
:103E7C00039510601E0601D50E6802E05806FBD5AE
:103E8C000E88D90702D52022134323601027002E59
:103E9C0003D1226820239A432260231C002243333F
:103EAC001A7001E003930A276368A360002B03DBFD
:103EBC002568042295432560002E02D1049D002B19
:103ECC000ED0049D301C391CFFF79EFB0398013D5E
:103EDC00435C301C2B70391CFFF752FB061EF1D1D2
:103EEC00082F09D12168C90706D5626823699A424F
:103EFC0002DC013D30232B70049E731B23612AE0EE
:103F0C00086813684969050604D5181D10601B68FC
:103F1C00196005E04606F8D5181D10601B6819805D
:103F2C0000232361049D16E01368191D11601D68A0
:103F3C00281CFFF733FC63682061984200D9236189
:103F4C002069606004E0251C42352B70012323613D
:103F5C00049E00233370079E05980096211C09AA25
:103F6C00069BFFF7A3FE013002D10120404221E065
:103F7C002A1C059806992369079DA8470130F4D09F
:103F8C002668B60705D4099BE068984212DA181C1B
:103F9C0010E00025E0680999431A9D42F3DA221CCF
:103FAC000598069919320123079EB0470130DCD0E1
:103FBC000135EFE70BB0F0BDD94E0000EA4E000022
:103FCC0030B59BB00091049108496D460291059162
:103FDC00012149428224E981A4006946AC81FFF7A2
:103FEC0045FC009D00232B701BB030BDFFFFFF7FF5
:103FFC0038B5131C044A051C0C1C1068291C221C07
:10400C00FFF7DEFF38BDC046AC00002070B5051CC4
:10401C000E1C141C002804D08269002A01D100F067
:10402C00C9F9234B9C4201D16C6808E0214B9C429E
:10403C0001D1AC6803E0204B9C4200D1EC68A36931
:10404C00A360A3891A070AD52369002B07D022681D
:10405C002369F6B2D01A626990420FDB08E0281C83
:10406C00211C00F02BF80028F1D0012040421DE06B
:10407C00281C211C00F01EF90028F6D1A368013081
:10408C00013BA36023685A1C22601E70636998422E
:10409C0005D0A389301CDA0708D50A2E06D1281CB6
:1040AC00211C00F007F90028DFD1301C70BDC04680
:1040BC00FC4E00001C4F00003C4F0000344B70B510
:1040CC001D68061C0C1C002D05D0A969002902D105
:1040DC00281C00F06FF92F4B9C4201D16C6808E052
:1040EC002D4B9C4201D1AC6803E02C4B9C4200D17F
:1040FC00EC68A28993B2190721D4D90605D40923F7
:10410C00336040231A43A2813FE05A0713D5616BF9
:10411C00002908D0231C4433994202D0301C00F0F3
:10412C002DFA00236363A38924229343A3810023E4
:10413C00636023692360A38908221343A381216947
:10414C0000290BD1A389A02292001A4080239B0046
:10415C009A4203D0301C211C00F09CF9A389012247
:10416C001A4005D061690022A2604A42A26103E0B4
:10417C00990700D46269A26022690020824206D1AC
:10418C00190604D540221343A3810120404270BD7F
:10419C00AC000020FC4E00001C4F00003C4F000007
:1041AC00F7B58B89051C0C1C19075ED46268002AB4
:1041BC0002DC276C002F1ADDE76A002F17D00022D3
:1041CC002E682A60802252011A4001D0626D15E0DF
:1041DC00281C216A0123B847021C411C0ED12B68F4
:1041EC00002B0BD01D2B01D0162B02D12E600020E2
:1041FC005EE0A38940210B43A38159E0A3895F07AB
:10420C0006D56168636B521A002B01D0276CD21B48
:10421C00281C216A0023E76AB847A289411C06D1F1
:10422C002B68002B03D01D2B01D0162B19D100238A
:10423C00636023692360D70405D5411C02D12A6829
:10424C00002A00D16065616B2E600029CFD0231C41
:10425C004433994202D0281C00F090F9002060638E
:10426C0026E040231A43A28122E02669002EBED00C
:10427C0027680022BF1B01972660990700D162694D
:10428C00A260019F002FB2DD281C216A321C019B09
:10429C00A76AB847002806DCA389402213430120F3
:1042AC00A381404204E0019F36183F1A0197E8E7CA
:1042BC00FEBD00000A6938B5051C0C1C002A01D192
:1042CC0000201CE0002804D08369002B01D100F0F1
:1042DC0071F80B4B9C4201D16C6808E0094B9C4275
:1042EC0001D1AC6803E0084B9C4200D1EC680C2275
:1042FC00A35E002BE4D0281C211CFFF751FF38BD16
:10430C00FC4E00001C4F00003C4F0000F8B5041C94
:10431C00071C4834002C12D0A5686668013E0CD4EA
:10432C00AB89012B07D90E22AB5E013303D0381CAD
:10433C00291CFFF7BFFF6835F0E72468EAE7F8BDF2
:10434C00002310B5041C03604360836081814366C5
:10435C00C281036143618361191C08225C30FFF741
:10436C007DF9054B24626362044BA362044BE36248
:10437C00044B236310BDC046314700005947000071
:10438C0091470000BD47000070B54B1E68255D438A
:10439C000E1C291C743100F039F9041E08D00021C0
:1043AC00016046602A1C0C30A0606832FFF756F999
:1043BC00201C70BD836913B5041C002B27D18364AA
:1043CC00C3640365124B134A1B688262984201D185
:1043DC0001238361201C00F01FF86060201C00F09A
:1043EC001BF8A060201C00F017F80421E0600022EC
:1043FC006068FFF7A5FFA06809210122FFF7A0FF65
:10440C00E06812210222FFF79BFF0123A36113BD79
:10441C00C44E000019430000F8B51D4B071C1E6864
:10442C00B269002A02D1301CFFF7C4FF4836B468C9
:10443C007368013B05D40C22A55E002D10D06834A6
:10444C00F7E73368002B06D1381C0421FFF79CFFDB
:10445C003060002801D03668E9E70C233B6016E099
:10446C0001235B42E381201C0123A3816566256047
:10447C00A560656025616561A5615C30291C082219
:10448C00FFF7ECF86563A563A564E564201CF8BD33
:10449C00C44E0000F0B58B8991B0051C0C1C9A071A
:1044AC0025D40E23C95E002906DAA78980231F4074
:1044BC000FD0002740260EE001AA00F0A5F9002835
:1044CC00F3DB029BF0273F02184A1F40BF187B42C8
:1044DC005F418026F600281C311C00F097F800285C
:1044EC000CD1A3899A051FD402221343A381231C48
:1044FC004733236023610123636115E00C4B802259
:10450C00AB62A38920601343A38120616661002FF5
:10451C000AD00E23E15E281C00F088F9002803D095
:10452C00A38901221343A38111B0F0BD00E0FFFF6A
:10453C0019430000C9B28218904204D003788B4210
:10454C0002D00130F8E70020704770B5814201D3EA
:10455C0000230CE08C18A042FAD28518131C013BE6
:10456C000BD351426618F65C6918CE54F7E79342A8
:10457C0003D0CC5CC4540133F9E770BD30B50029CD
:10458C0040D004390B68002B00DAC9181E4A136896
:10459C00141C002B02D14B60116033E099420FD2F6
:1045AC0008680A189A4205D113685268C018086046
:1045BC004A6000E04B60216024E08A4203D8131C5F
:1045CC005A68002AF9D11D685C198C420BD1096814
:1045DC00691858181960904214D114685268091956
:1045EC0019605A600EE08C4202D90C23036009E07A
:1045FC0008680C18944203D11468526800190860BA
:10460C004A60596030BDC0463002002070B50323AB
:10461C00CD1C9D430835061C0C2D01D20C2501E048
:10462C00002D3FDB8D423DD3204B1C681A1C211CF6
:10463C00002913D00868431B0DD40B2B02D90B6037
:10464C00CC181EE08C4202D1636813601AE04868F3
:10465C0060600C1C16E00C1C4968E9E7144C2068DF
:10466C00002803D1301C00F04BF82060301C291CB2
:10467C0000F046F8431C15D0C41C03239C43844211
:10468C000AD12560201C0B300722231D9043C31A2E
:10469C000BD05A42E25008E0211A301C00F030F8DE
:1046AC000130EED10C233360002070BD30020020AD
:1046BC002C020020F8B5061C0C1C151C002904D17A
:1046CC00111CFFF7A3FF041C18E0002A03D1FFF70D
:1046DC0055FF2C1C12E000F0CFF8A8420ED2301C73
:1046EC00291CFFF793FF071E07D0211C2A1CFEF77D
:1046FC00ACFF301C211CFFF741FF3C1C201CF8BDFB
:10470C0038B5074C0023051C081C2360FCF730FF50
:10471C00431C03D12368002B00D02B6038BDC0464E
:10472C002018002038B50C1C0E25495F00F0AEF89F
:10473C00002803DB626D1318636503E0A289024B4A
:10474C001340A38138BDC046FFEFFFFFF8B51E1C18
:10475C008B89051C0C1C171CDA0505D50E23C95EAC
:10476C000022022300F074F8A289054B281C134088
:10477C00A3810E22A15E331C3A1C00F01FF8F8BD79
:10478C00FFEFFFFF38B50C1C0E25495F00F060F8F9
:10479C00A389421C03D1054A1340A38104E0802263
:1047AC0052011343A381606538BDC046FFEFFFFF84
:1047BC0008B50E23C95E00F015F808BD38B5084CD5
:1047CC00051C00202060081C111C1A1CFCF750FE54
:1047DC00431C03D12368002B00D02B6038BDC0468E
:1047EC002018002038B5074C0023051C081C23603A
:1047FC00FCF7E8FE431C03D12368002B00D02B6090
:10480C0038BDC0462018002038B5074C0023051CC5
:10481C00081C111C2360FCF7DDFE431C03D123682C
:10482C00002B00D02B6038BD2018002038B5074C69
:10483C000023051C081C2360FCF7D4FE431C03D189
:10484C002368002B00D02B6038BDC04620180020F8
:10485C0038B5084C051C00202060081C111C1A1CC3
:10486C00FCF7C8FE431C03D12368002B00D02B603F
:10487C0038BDC0462018002004390B68181F002BC7
:10488C0002DAC8581B18181F7047000038B5084CBE
:10489C00051C00202060081C111C1A1CFCF7B2FE21
:1048AC00431C03D12368002B00D02B6038BDC046BD
:1048BC0020180020001000200040000057495A6EBC
:1048CC00657400000000000057495A6E65740000C2
:1048DC0000000000000000000000000000000000CC
:1048EC000000000057495A53656E0000000000009C
:1048FC0000000000000000000000000077697A6EE4
:10490C0065742E696F0000000000000000000000BC
:10491C000000000000000000000000005B4150504F
:10492C005D204D41433A20253032583A25303258DB
:10493C003A253032583A253032583A253032583AE6
:10494C00253032580D0A00005B4150505D20495013
:10495C003A2025642E25642E25642E25640D0A002C
:10496C005B4150505D2047573A2025642E25642E1C
:10497C0025642E25640D0A005B4150505D20534E7A
:10498C003A2025642E25642E25642E25640D0A00FC
:10499C005B4150505D20444E533A2025642E2564D3
:1049AC002E25642E25640D0A00000000496E7075DA
:1049BC0074204D4143203F200000000052000000B5
:1049CC000D0A4F4B0D0A00000D0A457261736520EC
:1049DC00454550524F4D2E2E2E0000000D0A4F4BC8
:1049EC000D000000EA0A000086090000C40900005E
:1049FC007E0A0000C00A0000537563636573730080
:104A0C004661696C000000000D0A3D3D3D3D3D3D99
:104A1C003D3D3D3D3D3D3D3D3D3D3D3D3D3D3D3DBA
:104A2C003D3D3D3D3D3D3D3D3D3D3D3D3D3D3D3DAA
:104A3C003D3D3D3D3D3D0D002057697A494F2025B8
:104A4C007320426F6F740D0A000000003D3D3D3D28
:104A5C003D3D3D3D3D3D3D3D3D3D3D3D3D3D3D3D7A
:104A6C003D3D3D3D3D3D3D3D3D3D3D3D3D3D3D3D6A
:104A7C003D3D3D3D3D3D3D3D0D0000005B424F4FFA
:104A8C00545D20536F75726365436C6F636B203A92
:104A9C002025640D0A0000005B424F4F545D2053EB
:104AAC00797374656D436C6F636B203A2025640DCC
:104ABC000A0000005B424F4F545D205048595F493B
:104ACC006E6974203A2025730D0A00005B424F4F2B
:104ADC00545D206A756D7020746F206170706C6904
:104AEC00636174696F6E0D0057726F6E6720706131
:104AFC0072616D65746572732076616C75653A20B0
:104B0C0066696C65202573206F6E206C696E65205C
:104B1C0025640D0A000000005445535420353030F4
:104B2C002D310D00726563765F746674705F65720B
:104B3C00726F7200726563765F746674705F706119
:104B4C00636B657400000000544654505F726561DD
:104B5C00645F726571756573740000003E3E20548D
:104B6C0046545020525251203A2046696C654E6191
:104B7C006D65282573292C204D6F646528257329B4
:104B8C000D0A00003E3E20544654502041434B2019
:104B9C003A20426C6F636B204E756D6265722825EE
:104BAC0064290D0A000000003C3C20544654505F20
:104BBC004552524F52203A20256420282573290D46
:104BCC000A0000005B25735D204572726F722043F2
:104BDC006F6465203A20256420282573290D0A006E
:104BEC003C3C20544654505F44415441203A206F81
:104BFC0070636F6465282564292C20626C6F636B6D
:104C0C005F6E756D282564290D0A00003C3C20540C
:104C1C004654505F41434B203A200D003C3C2054FD
:104C2C004654505F4F41434B203A200D000000008A
:104C3C005B25735D20536572766572204950206642
:104C4C0061756C74730D0A0066726F6D204950208B
:104C5C003A20253038782C205365727665722049BD
:104C6C0050203A20253038780D0A00005B25735D02
:104C7C00205365742053657276657220506F727480
:104C8C00203A2025640D0A006F63746574000000DF
:104C9C005B25735D205365742054667470205365D6
:104CAC0072766572203A2025780D0A0074696D655C
:104CBC006F75740035000000662200007A22000037
:104CCC008A2200009A220000A8220000D6220000AE
:104CDC0072230000E42200000423000012230000D1
:104CEC00202300003023000054230000D4260000B1
:104CFC00DC260000FA260000F02600000427000045
:104D0C000E27000056270000562700001827000029
:104D1C003627000046270000F4290000FE29000079
:104D2C00082A0000102A00001A2A0000242A000079
:104D3C00433A2F55736572732F626F6F6D772F44E3
:104D4C006F776E6C6F6164732F57697A494F2F5769
:104D5C00697A494F2D426F6F742F4C696272617280
:104D6C006965732F5737353030785F5374645065ED
:104D7C00726970685F4472697665722F7372632F03
:104D8C007737353030785F6372672E630000000030
:104D9C00433A2F55736572732F626F6F6D772F4483
:104DAC006F776E6C6F6164732F57697A494F2F5709
:104DBC00697A494F2D426F6F742F4C696272617220
:104DCC006965732F5737353030785F53746450658D
:104DDC00726970685F4472697665722F7372632FA3
:104DEC007737353030785F6475616C74696D6572D6
:104DFC002E630000433A2F55736572732F626F6FE9
:104E0C006D772F446F776E6C6F6164732F57697A6F
:104E1C00494F2F57697A494F2D426F6F742F4C6948
:104E2C00627261726965732F5737353030785F5312
:104E3C0074645065726970685F4472697665722F2C
:104E4C007372632F7737353030785F6770696F2EE8
:104E5C0063000000433A2F55736572732F626F6FB6
:104E6C006D772F446F776E6C6F6164732F57697A0F
:104E7C00494F2F57697A494F2D426F6F742F4C69E8
:104E8C00627261726965732F5737353030785F53B2
:104E9C0074645065726970685F4472697665722FCC
:104EAC007372632F7737353030785F756172742E7B
:104EBC0063000000430000004C000020232D302B29
:104ECC002000686C4C0065666745464700303132FF
:104EDC003334353637383941424344454600303156
:104EEC0032333435363738396162636465660000B5
:104EFC0000000000000000000000000000000000A6
:104F0C000000000000000000000000000000000095
:104F1C000000000000000000000000000000000085
:104F2C000000000000000000000000000000000075
:104F3C000000000000000000000000000000000065
:104F4C000000000000000000000000000000000055
:104F5C0000800000000000440000004400000044F9
:104F6C00B401002000000000FFFFFFFFB84C000060
:104F7C00C04C00000B00000000C0000001015737BE
:104F8C0035303000C1230000C5230000C9230000C8
:104F9C00CD230000D1230000D92300000000000025
:104FAC00FC4E00001C4F00003C4F000000000000B5
:104FBC00000000000000000000000000C04E0000D7
:104FCC0000000000000000000000000000000000D5
:104FDC0000000000000000000000000000000000C5
:104FEC0000000000000000000000000000000000B5
:104FFC000000000000000000000000004C00002039
:04000003000000A950
:00000001FF
