:020000040000FA
:10000000700800205101000065060000670600002E
:1000100000000000000000000000000000000000E0
:100020000000000000000000000000006906000061
:1000300000000000000000006B0600006D060000DC
:100040007506000077060000790600007B060000B8
:100050007D06000063010000630100007F060000D0
:100060008106000083060000850600008706000068
:10007000890600008B0600008D0600008F06000038
:100080009106000093060000950600009706000008
:10009000990600009B060000630100009D06000019
:1000A0009F060000A106000000F002F800F041F8F1
:1000B0000CA030C8083824182D18A246671EAB467D
:1000C00054465D46AC4201D100F033F87E460F3E07
:1000D0000FCCB6460126334200D0FB1AA246AB46EF
:1000E0003343184784100000A4100000103A02D3D4
:1000F00078C878C1FAD8520701D330C830C101D5C9
:1001000004680C60704700000023002400250026CE
:10011000103A01D378C1FBD8520700D330C100D5C3
:100120000B60704710B5002010BD1FB51FBD10B586
:1001300010BD00F015FF1146FFF7F7FF00F05AFA67
:1001400000F02DFF03B4FFF7F2FF03BC00F089FAC3
:100150000748804707480047FEE7FEE7FEE7FEE75F
:10016000FEE7FEE704480549054A064B70470000D4
:1001700095010000A9000000700000207008002018
:10018000700400207004002016480068704715486D
:100190004068704710B51448816B144A1161C16BF7
:1001A000134841600121C943016241698907CA0FAF
:1001B000012191404269D207D20F9140CAB24169F0
:1001C00040698904890E514380020A4A800E5043D7
:1001D00000F0D5FA0349086010BD024805494160A6
:1001E000016070470000002080FD03000012004104
:1001F0000010004100127A0070477F49002801D0AA
:10020000012001E00120C043086070477A490028BE
:1002100002D00120C04300E0012008617047764908
:10022000002801D0012001E00120C043886170470F
:100230007149002801D0012001E00120C043C861BC
:1002400070476D49022802D00120086270470120E2
:10025000C043FAE76849012802D0022800D00320F1
:10026000086370476449002804D0012802D002289E
:1002700000D00320486370475F494031002804D014
:10028000012802D0022800D00320086070475A4994
:100290004031002804D0012802D0022800D00320D9
:1002A0004860704754494031002804D0012802D0EA
:1002B000022800D00320086270474F4940310028CF
:1002C00004D0012802D0022800D0032048627047E1
:1002D000494A80014032002904D0012902D0022974
:1002E00000D00321126B11507047434A8001403205
:1002F00000290CD001290AD0022908D0032906D0F0
:10030000042904D0052902D0062900D00721526B08
:1003100011507047384A80018032002904D00129E9
:1003200002D0022900D00321126B11507047324ACB
:100330008001803200290CD001290AD0022908D07E
:10034000032906D0042904D0052902D0062900D0AB
:100350000721526B115070472849002804D001280A
:1003600002D0022800D003200860704723490028EB
:100370000DD001280BD0022809D00322032808D071
:10038000042806D0052804D0062802D0072048609B
:1003900070474A6070471949002804D0012802D0EC
:1003A000022800D00320086170470022134900286A
:1003B00003D0012803D0022801D04A617047486168
:1003C00070470E4A0028106A02D00123184301E04A
:1003D00040084000106202200029116A01D0014348
:1003E00000E0814311627047044908637047034885
:1003F000006BC0B270470000001000414011004186
:1004000010B50020FFF7C7FF10BDF8B50446006B1C
:100410000D46400840002063FFF7B6FE70494A6968
:1004200001263146914000F0AAF9074628680001EC
:1004300000F044FD0090384600F040FD009900F0C7
:1004400049FC074600F0F6FC009000F037FD394605
:1004500000F0F6FD062100F035FD00F011FC002251
:10046000604B00F0B9FB00F0E7FB014600986062CA
:10047000A162E16AEE208143A888EA8810432A89B4
:100480000A431043E062206B5749AA8908406989F2
:10049000114301432163206B30432063F8BDE12108
:1004A00049020160602181800021C1800322018115
:1004B000120242818181704710B5C36A1024234320
:1004C000C3621143416310BDC16A10229143C162EE
:1004D0007047C16A01221143C1627047704710B56D
:1004E0000446FFF751FE214600F049F93F490861F3
:1004F00010BD3E490028886802D00322104301E065
:10050000800880008860704701607047006880B292
:1005100070473649086070473448006880B27047B9
:10052000324908607047314A0178002900D01160D3
:10053000401C0029F8D170472C4841688907FCD538
:100540000068C0B27047002A826B01D00A4300E005
:100550008A43826370470246926900200A4200D0B3
:10056000012070470246126C00200A4200D0012090
:100570007047426C0A43426470470246526800204A
:100580000A4200D00120704789B241607047174A83
:100590000029916801D0014300E0814391607047D8
:1005A000124A0146526800200A4200D001207047DA
:1005B0000E494A6802434A6070470C4A0146D268B5
:1005C00000200A4200D0012070470849C8607047E7
:1005D000826C0A4382640649082008607047000064
:1005E000401100410000E03FFE3CFFFF0060004082
:1005F00000E100E0FFF7CEFDE1204002FFF76FFFD2
:100600000120FFF776FF0AA000F04CF8FEE701B5E5
:1006100009480099016001680029FCD108BD06481D
:100620000168002902D00168491E0160704700007E
:1006300072756E200D0A00000800002010B5C0B2CF
:10064000FFF76EFF10BD10B5FFF776FFFFF768FFED
:1006500010BD0020C043704710B5C0B2FFF760FF67
:1006600010BDFEE7704770477047704710B5FFF741
:10067000D6FF10BD7047704770477047704770478E
:1006800070477047704770477047704770477047B2
:1006900070477047704770477047704770477047A2
:1006A000704770470FB4054910B503AA029800F0CF
:1006B0002BFC10BC08BC04B0184700000C00002044
:1006C000F8B50F460546002028622846E9688847A5
:1006D000002852D0252802D06A68A96849E0E96854
:1006E0002846002688476C2804460AD0682C08D083
:1006F0004C2C37D06A2C33D0742C33D07A2C31D098
:1007000015E0E968064628468847B042044608D105
:100710006C2E25D00126B6022846E9688847044693
:1007200005E06C2E02D0FF26013600E04026002CAA
:1007300023D020464138192803D80120C00206439F
:1007400020343A4628462E602146FFF7EBFC00286D
:100750000CD0012808D0FF1DFF08FF000837B4E7C0
:100760008026D9E70026D7E73F1DAEE76A68204616
:10077000A9689047286A401CA6E7286AF8BD0022AD
:1007800003098B422CD3030A8B4211D300239C46CE
:100790004EE003460B433CD4002243088B4231D346
:1007A00003098B421CD3030A8B4201D394463FE0DA
:1007B000C3098B4201D3CB01C01A524183098B423A
:1007C00001D38B01C01A524143098B4201D34B0123
:1007D000C01A524103098B4201D30B01C01A524186
:1007E000C3088B4201D3CB00C01A524183088B420D
:1007F00001D38B00C01A524143088B4201D34B00F6
:10080000C01A5241411A00D2014652411046704767
:100810005DE0CA0F00D04942031000D3404253406C
:1008200000229C4603098B422DD3030A8B4212D32C
:10083000FC22890112BA030A8B420CD3890192115E
:100840008B4208D3890192118B4204D389013AD09B
:10085000921100E08909C3098B4201D3CB01C01A70
:10086000524183098B4201D38B01C01A5241430983
:100870008B4201D34B01C01A524103098B4201D371
:100880000B01C01A5241C3088B4201D3CB00C01ADE
:10089000524183088B4201D38B00C01A5241D9D2F6
:1008A00043088B4201D34B00C01A5241411A00D277
:1008B0000146634652415B10104601D34042002B73
:1008C00000D54942704763465B1000D3404201B5F2
:1008D0000020C046C04602BD704770477047000008
:1008E000F0B50C46871A9C410D46861A9D4103D2ED
:1008F000C01BA141D21963410D0D1F0DC94EEC1B48
:10090000AE435CD07F057F0D0026002F51D02D0512
:10091000AC46A943DD020123ED0A1B051D4320233C
:100920001B1B24D41746E740381871412F46E74077
:10093000CC199D402818314661410C0D27D16144E6
:100940009A4013D50023401C594152000ED1400853
:10095000400001224B005205D34207D30520400737
:10096000C14201D5B04900E0B0493046F0BD6B004E
:10097000002A00D001229A181F23203C1B1B01D5FE
:10098000002302E0E540281871410C0DD7D0012466
:1009900024050919C407CD0740084908E40F284376
:1009A0006144002CD5D00024401C61419A40D0D134
:1009B000CDE76A05520DD9D1C90FC907D5E79C4DBE
:1009C0004E00002801D0012400E0002434195F000B
:1009D000002A01D0012600E00026BE19954FAC4246
:1009E0000CD8AE420AD8B44206D001256D05EC42BF
:1009F000BCD010461946F0BD9942FCD000203946C3
:100A0000F0BDF0B51FB40C460F46811A9F41254634
:100A1000861A9D4106D20125ED076F40401ABC4160
:100A200052187B41210D1E0D8D1BAC467D4D8D4313
:100A30007ED075056D0D7CD00D05AE46AC431B0315
:100A40001B0B794D52429D41202366469B1B14D3BC
:100A50001746F740381800260090744160462F462C
:100A60000741E41900989D402818664116D4714644
:100A700071189A4025D5012320E093182A466A412F
:100A80005200002B00D0521C1E23203E9B1B002B2B
:100A900061DD3541EE1728186641E8D5001876412A
:100AA0005B1C9A4000D3401C4B05F3181524E3400F
:100AB00010D3002B52D071467118D30FC01802D337
:100AC000491C05B0F0BD0123DB079A42F9D140086B
:100AD0004000F6E701225205B21801D1002853D098
:100AE0000123CC0ADB029943891E002A08D1020C9B
:100AF00003D0020C0004103902E002460020203925
:100B00000023550B05D112020823550B01D15201C8
:100B10000D23550C01D112011B1DD50C01D19200E2
:100B20009B1C150D01D152005B1C2025EE1A01E023
:100B30002CE022E00546F54015439840CA1AE1072B
:100B400069181305C918002ABBDA032040070818E2
:100B5000C10FC9070FE071466118B2E7F1074008FD
:100B60000843711071444A000CD001235B059A427E
:100B7000A7D2C90FC9070020A3E74905490D26D10F
:100B8000002001E00028F4D100219AE7284D6600FA
:100B9000002801D0012100E0002171185F00002A27
:100BA00001D0012600E00026BE19224FA94210D82C
:100BB000AE420ED8B14208D001256D05E94206D0FB
:100BC0001946A802414010467BE79C4201D02146CD
:100BD00077E70020394674E710B50C465C4005D530
:100BE0000124E4076340FFF70CFF10BDFFF778FE18
:100BF00010BD30B40C465C4004D50124E4076340CA
:100C000030BC6DE630BCFCE670B50124E407614001
:100C10000D465D4002D4FFF763FE70BD6340FFF7F1
:100C2000F0FE70BDFF0700000000F0FF0000F07F45
:100C30000000E0FF0000F87F0346CA02400D10B537
:100C400010430A1504D00124E4072043002A05DBE1
:100C50000A4CA21A04D4D040FF2A00DD002010BDA7
:100C60004A00002B01D0012000E0002010180122D2
:100C70005205D042F2D8C817C04310BD1E04000070
:100C80000121C9050123411842001B06D3185B0E40
:100C90000AD0C1100722D206891840075242D14219
:100CA00001D5520089187047090208D50146002A6B
:100CB00003D0C10FC9070020704710467047420299
:100CC00002D0002002497047072109050143F4E7DB
:100CD0000000F87FF0B5FF252D04C609C209FF27E3
:100CE00004462E400137CB093E4348402A402B4062
:100CF0000746002A6BD0002B69D0AA4267D0AB42CE
:100D000065D0002800DA32460125ED0529432C4341
:100D100009022002090AD21A4B0C7F24E31A434C21
:100D2000000A7C44E35C7D242404121914145B0043
:100D3000A218884201D3521C00E0400049420C46F0
:100D40005C4324115C43DB016415E318040A5C4333
:100D5000C502200D0C4644436419250A5D43230354
:100D6000EC0C0D46654300030019EB184C42A342FE
:100D700001D35B18401CD4052018002B07D05B0062
:100D8000C91804D3401C002901D1400840003F216C
:100D900089048A4209D3002A08DC1106090F04D00D
:100DA000032149074018C00FC007F0BD01224100D0
:100DB000120689187F2252069142F6D20521490770
:100DC000C84201D59010F0BDFF20C005F0BD002F36
:100DD00000DA32461648AA4207D2AB4205D21902BF
:100DE000090E17D0F80FC007F0BDFF2563002D06D0
:100DF000AB42F9D84900A942F6D8AB4201D1A94289
:100E0000F2D0A94201D1002101E061004908D005DA
:100E10000843F0BD1102090EFBD0FF200243D005AC
:100E2000F0BD0A460146104654E7000002040000E7
:100E30000000C07F0102C21504D00123DB07194363
:100E4000002A0ADB9E239A1A02D40846D040704733
:100E5000FF2241001206914201D900207047C017BD
:100E6000C04370471F22030C02D10F2200041CD084
:100E7000030E01D10002083A030F01D10001121F35
:100E8000830F01D18000921E002801DB4000521E1A
:100E9000D2055118021251181922904004D3491C4E
:100EA000002801D14908490008467047C10FC90709
:100EB00000D04042012292071143D3E70121890764
:100EC000D0E7000010B5FF22C30D134009D05A40EF
:100ED00007D0914205DA5C42A14202DDC90508183B
:100EE00010BDC40FE407002B06D0002A06D000294D
:100EF00002DBFF20C0050443204610BD4102FCD0A8
:100F0000004810BD0000C07F084B70B50D467B4403
:100F100000F013F804462846FFF79BFB002802D098
:100F20000020C04370BD204670BD00002BF7FFFFBE
:100F300001694A1C02610878704700B58FB00291C0
:100F400000210591054901937944039111460490CC
:100F50006846FFF7B5FB0FB000BD0000E5FFFFFFDF
:100F6000754600F023F8AE46050069465346C008B2
:100F7000C000854618B020B5FFF7F4F860BC002724
:100F80004908B6460026C0C5C0C5C0C5C0C5C0C555
:100F9000C0C5C0C5C0C5403D49008D467047044628
:100FA000C046C0462046FFF7CDF800000048704715
:100FB0001000002070B501250400ED074C4020D43E
:100FC000441A01D2001B0919C60D4B00F2B2FF2AC8
:100FD00029D01B0E2CD000020C02D31A2C43DC406B
:100FE0002843051910D2280A02D3401C6D0611D0DF
:100FF000761EF6058019FF2A00DA70BDC00DC00507
:1010000070BD694000F02EF801200543C541521C17
:10101000761CE8E764089C40C90161408900E7D17B
:101020000124A043E4E71B0E440200D0034870BD36
:10103000002AFCD1C00FC00770BD00BF0000C07FF8
:1010400070B50125ED07684004004C4002D56940A9
:1010500000F008F8FFF7B4FF70B501250400ED07B4
:101060004C4022D4441A02D26C40001B0919C60D10
:101070004B00F2B2FF2A4BD01B0E50D000020C02E4
:10108000D31A2C43DC40A843051B05D5AD0019D36A
:101090006D08761E521E37D0F605280A01D2801937
:1010A00070BD70416D0603D070BD6940FFF788FFC9
:1010B0009C4009026140490001D0401E70BD0124DE
:1010C000A04370BD6D081DD001202B0C01D12D0453
:1010D00010302B0E01D12D0208302B0F01D12D0124
:1010E000001DAB0F01D1AD00801CEB0F01D16D00D5
:1010F000401C6D00361A121A680AF5054019012ABB
:1011000002DB70BD002070BDC036300AC00770BD64
:101110001B0E440201D1FF2B00D1024870BD002AF2
:10112000F0D070BD0000C07F81828384858687886F
:10113000898B8C8D8E8F919293959697999A9C9D81
:101140009FA0A2A3A5A7A8AAACAEB0B2B3B5B7B9E9
:10115000BCBEC0C2C5C7C9CCCED1D4D7D9DCDFE2B2
:10116000E6E9ECF0F3F7FAFE881100000000002039
:1011700010000000EC00000098110000100000209A
:1011800060080000080100000000000000000000EE
:08119000000000000000000057
:04000005000000A94E
:00000001FF
